:020000040800F2
:100000003021002089010008E91A0008E91A0008D7
:10001000E91A0008E91A0008E91A000800000000BF
:10002000000000000000000000000000E91A0008C5
:10003000E91A000800000000E91A0008912C0008E5
:10004000A3010008A3010008A3010008A301000800
:10005000A3010008A3010008A3010008A3010008F0
:10006000A3010008A3010008A3010008D1100008A3
:10007000F1100008111100083D1100086911000875
:1000800095110008C1110008A3010008A301000890
:100090007D5B0008A3010008A3010008A30100087C
:1000A000A3010008A3010008A3010008A3010008A0
:1000B000A3010008A301000800000000A30100083C
:1000C000A30100080000000000000000A3010008D8
:1000D00000000000412F000851300008000000001F
:1000E000A3010008A3010008A301000800F002F822
:1000F00000F03AF80AA090E8000C82448344AAF188
:100100000107DA4501D100F02FF8AFF2090EBAE885
:100110000F0013F0010F18BFFB1A43F0010318473B
:10012000B8630000D8630000103A24BF78C878C1D3
:10013000FAD8520724BF30C830C144BF04680C60ED
:10014000704700000023002400250026103A28BF35
:1001500078C1FBD8520728BF30C148BF0B60704739
:100160001FB51FBD10B510BD00F0CFF81146FFF749
:10017000F7FF05F0F7FD00F0EDF803B4FFF7F2FF2D
:1001800003BC00F0F5F80000094880470948004723
:10019000FEE7FEE7FEE7FEE7FEE7FEE7FEE7FEE737
:1001A000FEE7FEE704480549054A064B7047000094
:1001B000152E0008ED000008301B00203021002023
:1001C000301D0020301D0020032A40F2308010F046
:1001D000030C00F0158011F8013BBCF1020F6244E2
:1001E00098BF11F801CB00F8013B38BF11F8013B73
:1001F000A2F1040298BF00F801CB38BF00F8013B20
:1002000011F0030300F04F80083AC0F0088051F865
:10021000043B083A51F804CBA0E80810F5E7121D9A
:100220005CBF51F8043B40F8043BAFF30080D207B9
:1002300024BF11F8013B11F801CB48BF11F8012B85
:1002400024BF00F8013B00F801CB48BF00F8012BA8
:1002500070474FF0000200B5134694469646203989
:1002600022BFA0E80C50A0E80C50B1F12001BFF46F
:10027000F7AF090728BFA0E80C5048BF0CC05DF8D5
:1002800004EB890028BF40F8042B08BF704748BF23
:1002900020F8022B11F0804F18BF00F8012B704797
:1002A00070477047704710B5203AC0F00B80B1E836
:1002B0001850203AA0E81850B1E81850A0E818509B
:1002C000BFF4F5AF5FEA027C24BFB1E81850A0E8A4
:1002D000185044BF18C918C0BDE810405FEA827CBE
:1002E00024BF51F8043B40F8043B08BF7047D207D5
:1002F00028BF31F8023B48BF11F8012B28BF20F876
:10030000023B48BF00F8012B7047754600F02CF8FF
:10031000AE4605006946534620F00700854618B0F2
:1003200020B5FFF73FFFBDE820404FF000064FF03B
:1003300000074FF000084FF0000B21F00701AC461A
:10034000ACE8C009ACE8C009ACE8C009ACE8C00939
:100350008D46704710B50446AFF300802046BDE8D7
:100360001040FFF70ABF000000487047D01A002075
:1003700001491820ABBEFEE72600020070470000CE
:1003800010B51048806940F001000E4988610E48A0
:10039000406840F080600C4948600A48806940F03D
:1003A0001C00084988610949094801F06BF90949AD
:1003B000094801F067F90949094801F063F901F0BA
:1003C000CBFB10BD0010024000000140AC610008F2
:1003D00000080140B0610008000C0140B461000851
:1003E0000010014038B51B49C86A80470090C0F32F
:1003F000400068B3184804681649486A80470444B6
:1004000016480068241AB4F5806F05DB13480068AD
:100410002044124908600024002C19DD0F480068B0
:10042000C0F30900C0F58065AC4200DD2C460B49E5
:100430000968C1F309010A4A8818214604F006F840
:100440000446002C04DD0548006820440349086088
:1004500038BD00006864000820000020240000204F
:100460004402002070B505460E4600210B4802F0FC
:1004700043FE287808B9012400E02C78012C05D12E
:1004800001200749087001F0AFFC01E0002400BF23
:1004900000BF34704FF0011070BD00000038014003
:1004A000441A002010B502461078547840EA04231C
:1004B00003EB4300C300184600BF00BF401E00D03E
:1004C000FCE700BF00200870004810BD01000200DA
:1004D00010B5044600200649087001F073FC0020A6
:1004E00020700121034802F007FE012010BD00002A
:1004F000441A00200038014030B502461546521C0F
:1005000012F8014B0BE012F8013B03F0020020B19E
:1005100003F0100010B1121D00E0121D641E002C2B
:10052000F1D1002008704870501B0004801C30BDC1
:1005300070B504460D46207810B1012810D107E0AF
:10054000627802F001000B4A1268116888470BE0DC
:10055000627802F00100074A12685168884703E098
:10056000FF202870044870BD00BF0020287002489A
:10057000F9E70000040000200100020070B5064603
:100580000C460025062E1FD006DC062E34D2DFE8EE
:1005900006F033101112131AFD2E22D004DCF02EB7
:1005A00013D0F12E28D11BE0FE2E21D0FF2E23D117
:1005B00018E022E021E020E006252A4610492046E6
:1005C000FFF702FE19E018E017E00E48006808B1D6
:1005D000202000E0002040F01100207001250CE0F8
:1005E0000BE00AE04020207000206070022504E04B
:1005F00020202070012500E000BF00BF284670BD0C
:10060000AE6300084C00002002461378FF200870FB
:10061000581C0004401C70470246FF2008704FF031
:1006200001107047F0B502460B46FF2003F8010B9E
:100630000125012612F8017B0AE012F8014B04F0B3
:100640003F0101B94021C81DC1080A44481C0544A6
:10065000381EA7F10107F0D146EA0540F0BD70B59C
:1006600005460E462878802807D328789F2804D886
:100670003146284600F091F870BD287806F8010B45
:1006800015F8010B1E287ED2DFE800F00F181E249B
:10069000646A717D77292F7D7D7D7D7D343A40466A
:1006A00052585E7D7D7D7D7D7D4C2878711CFFF7E5
:1006B00065FF0446347004F10210DDE73146284638
:1006C000FFF736FF044664E031462846FFF7CAFECE
:1006D00004465EE03046FFF7FBFE044659E0314633
:1006E0002846FFF7DFFE044653E0304600F05BF893
:1006F00004464EE03146284600F09EFB044648E0A2
:100700003146284600F05AFB044642E0314628466E
:1007100000F03EFC04463CE03146284600F04CF830
:10072000044636E03146284600F05AF8044630E0E8
:1007300031462846FFF776FF04462AE03146284630
:10074000FFF762FF044624E031462846FFF764FFC6
:1007500004461EE03146284600F088FC044618E0B6
:100760003146284600F042FC044612E00BE03146D8
:10077000284600F053FC04460BE03146284600F0C2
:100780008DFC044605E0FF2006F8010C4FF0011037
:1007900072E700BF04F101106EE70246FF20087007
:1007A0004FF001107047014600BF01204870002043
:1007B000087002207047000010B50246137803F05D
:1007C0000300401C054C2076C3F3800403484476A4
:1007D000002008704FF0011010BD0000441A0020E6
:1007E0002DE9F04704460E46002006F8010B4FF0B5
:1007F00001084FF0010914F801AB32E014F8017B55
:1008000007F03F0505B94025E81DC50807F0800041
:1008100080B100BF00BF00BF1648006820F4700020
:1008200040F4000013490860481412490C31086074
:1008300000BF01E001F09AFA32462146384601F045
:1008400091FCBAF1000F01D101F090FA07F080009D
:1008500020B108F101082E44A94402E02C44681C90
:100860008044BAF10000AAF1010AC7D149EA084060
:10087000BDE8F087040801402DE9F04F87B0054638
:100880000C460695002005900026A246A41CE049CF
:100890000870834604906D1C15F8019B50E115F813
:1008A000017B07F0020000287ED0BBF1000F3DD095
:1008B000D848B0F8108007F01100012811D100BF0E
:1008C00001A9384601F0ACFC0646022E1CD1B8F155
:1008D0000000A8F1010817D0CD4800780028EFD01B
:1008E00012E000BF01A90E2001F09AFC0646022E7C
:1008F00008D1B8F10000A8F1010803D0C44800787D
:100900000028EFD04FF0000B012E00D01CE1019821
:1009100004F8010B0198000A04F8010B0198000C7F
:1009200004F8010B0198000E04F8010B07F0100009
:1009300000285ED02878697840EA0120A97840EA4A
:100940000140E97840EA016003902D1DB148408ADA
:10095000029007F00100B0B1AE48B0F8108000BFBF
:100960000021384601F05CFC0646022E08D1B8F1A1
:100970000000A8F1010803D0A54800780028EFD0B6
:10098000012E00D0E0E000BFA248B0F8108000BF08
:1009900001A9384601F044FC0646022E0AD1B8F1FE
:1009A0000000A8F1010800E069E003D09848007851
:1009B0000028EDD0012E00D00EE096484069019944
:1009C00008400399884207D00298411E029118B14D
:1009D0008F4800780028D7D000BF8E484069019921
:1009E00008400399884201D046F01006012E43D0FA
:1009F000AAE08848B0F8108007F00100C8B1BBF148
:100A0000000F39D100BF0021384601F009FC06462D
:100A1000022E08D1B8F10000A8F1010803D07C48EB
:100A200000780028EFD0012E00D08DE04FF0010BB0
:100A300022E000BF01A9384601F0F2FB0646022E73
:100A400008D1B8F10000A8F1010803D0704800787F
:100A50000028EFD0012E00D076E0019804F8010BB9
:100A60000198000A04F8010B0198000C04F8010B2E
:100A70000198000E04F8010B0020049057E0BBF130
:100A8000000F27D06348B0F8108000BF01A90E20E6
:100A900001F0C6FB0646022E08D1B8F10000A8F10D
:100AA000010803D05A4800780028EFD0012E00D06A
:100AB0004AE0019804F8010B0198000A04F8010BC0
:100AC0000198000C04F8010B0198000E04F8010BCA
:100AD0004FF0000B2878697840EA0120A97840EAB5
:100AE0000140E97840EA016001902D1D07F02000E7
:100AF00020B1484801994161012618E04548B0F805
:100B0000108000BF01A9384601F08AFB0646022E7C
:100B100008D1B8F10000A8F1010803D03C480078E2
:100B20000028EFD0012E00D00EE00120049005989F
:100B3000401C05903648007800B105E0A9F1010994
:100B4000B9F1000F7FF4ABAE00BF0CE015F8017BEC
:100B500007F0020020B107F0100010B12D1D00E0D9
:100B60002D1DA9F10109B9F1000FEFD1012E3FD1DF
:100B7000BBF1000F26D02748B0F8108000BF01A9B4
:100B80000E2001F04DFB0646022E08D1B8F1000000
:100B9000A8F1010803D01E4800780028EFD0012EEC
:100BA00000D026E0019804F8010B0198000A04F82F
:100BB000010B0198000C04F8010B0198000E04F8D9
:100BC000010B15E0049898B11248B0F8108000BFEE
:100BD00000210E2001F024FB0646022E08D1B8F1B8
:100BE0000000A8F1010803D0094800780028EFD0E0
:100BF00000BF05988AF800008AF80160A4EB0A019A
:100C00000698281A41EA004007B0BDE8F08F0000BE
:100C100048000020441A00202DE9F84F04460D46F4
:100C20004FF0000B0026A846ED1C00205649087026
:100C3000641C2078617840EA012AA41CBAF1000FF4
:100C400000D195E014F8017B07F0020000284FD096
:100C500007F00100B0B14D48B0F8109000BF00217E
:100C6000384601F0DDFA0646022E08D1B9F100003F
:100C7000A9F1010903D0444800780028EFD0012EE3
:100C800000D075E02EE0BAF1000F03D107F00100AB
:100C900000B10E273D48B0F8109000BF69463846B5
:100CA00001F0BEFA0646022E08D1B9F10000A9F102
:100CB000010903D0344800780028EFD0012E00D07D
:100CC00056E0009805F8010B0098000A05F8010BA2
:100CD0000098000C05F8010B0098000E05F8010BB8
:100CE0000BF1010BBAF10000AAF1010ACBD13EE0F1
:100CF00024E02078617840EA0120A17840EA0140B0
:100D0000E17840EA01600090241D2048B0F810907E
:100D100000BF6946384601F083FA0646022E08D124
:100D2000B9F10000A9F1010903D0174800780028A3
:100D3000EFD0012E00D01BE00BF1010BBAF1000047
:100D4000AAF1010AD5D11148B0F8109000BF0021D6
:100D50000E2001F065FA0646022E08D1B9F1000016
:100D6000A9F1010903D0084800780028EFD000BF9E
:100D700088F800B04FEA1B2088F8010088F802606C
:100D8000A5EB0800BDE8F88F48000020441A0020B9
:100D900038B504460D466078A17840EA0120E17834
:100DA00040EA0140217940EA016000906946002054
:100DB00001F036FA00202870012038BD30B5024617
:100DC0000C461078557840EA0520957840EA0540B1
:100DD000D57840EA05631BB9FF202070124830BD6A
:100DE0001248834204D30120114D6870686010E0FE
:100DF00000200F4D6870581E0E4D2844B0FBF3F1D3
:100E0000022905D9891E881C0325B0FBF5F100E0F5
:100E1000012107480078022800D1491C044841609C
:100E2000002020700048DAE70100040080A81201C9
:100E3000441A0020005125022DE9F0470646884655
:100E400034787578B078F17840EA0120317940EA59
:100E50000140717940EA016905F0010088B104F0B0
:100E6000010030B100BF4FF480404649086000BF28
:100E700007E000BF4FF480404249091D086000BFF1
:100E800000BF05F0020088B104F0020030B100BFDD
:100E90004FF400503B49086000BF07E000BF4FF42B
:100EA00000503849091D086000BF00BF05F004006C
:100EB00018B1C4F3870000BF00BF05F0200018B1CF
:100EC000C4F3471000BF00BF05F0800018B1C4F3A1
:100ED000C71005F02FF9B9F1000F3AD04FF0010912
:100EE00000BF2948476800BF00BF05F0010020B1DE
:100EF00000F0C8FE604000B124E005F0020028B117
:100F000000F058FF80EA540000B11BE005F0040037
:100F100028B100BF002080EA940000B112E005F083
:100F2000200028B100BF002080EA541000B109E081
:100F300005F0800028B100BF012080EAD41000B184
:100F400000E005E000BF10484068C01B4845CCD316
:100F500000BF00F097FE824600F02CFF4AEA4000F6
:100F6000002140EA810000BF40EAC10000BF40EA22
:100F70004110012140EAC11488F800400348BDE84F
:100F8000F087000010080140001000E0010006009A
:100F900070B504460E4614F8015B0DB94FF4807528
:100FA0002146284601F0AEFD00203070E81DC5083E
:100FB000681C0004401C70BD10B500200A49087070
:100FC00048700120486000200873642106480182AF
:100FD0000021418241610120034908760021024835
:100FE000417600F0EFFE10BD441A002070B50546B2
:100FF0000E4609480078012805D131462846FFF7FA
:101000003BFC044605E031462846FFF775FA0446E6
:1010100000BF00BF204670BD441A002070B50546D1
:101020000E4611480078012805D131462846FFF7C1
:10103000F3FD044605E0002030707070B0700324AA
:1010400000BF00BFE87800F0020010B144F4802433
:1010500008E06878A97840EA0120042101EB8000CB
:1010600044EA0044204670BD441A0020024610782D
:10107000084B18735078937840EA0323054803829D
:10108000D078137940EA0323024843820020087095
:1010900001487047441A00200100050070B506465B
:1010A0000D4609480078012805D129463046FFF74A
:1010B0006FFE044603E0FF202870012400BF00BF3C
:1010C00044F4A02070BD0000441A002070470000C6
:1010D00010B50548006800F00F040348446020463E
:1010E000FFF7F4FF10BD0000000002407047000051
:1010F00010B505480068C0F3031420010249486098
:101100002046FFF7F3FF10BD0000024070470000CB
:1011100010B505480068C0F3032420020249486066
:101120002046FFF7F3FF10BD0000024010B5044653
:10113000014803F0BAF810BDD863000810B505489F
:101140000068C0F303342003024948602046FFF7DB
:10115000EDFF10BD0000024010B50446014802F04A
:1011600009FF10BDD863000810B505480068C0F33A
:1011700003442004024948602046FFF7EDFF10BDFC
:101180000000024010B50446014802F0F3FE10BD15
:101190003064000810B505480068C0F3035420050A
:1011A000024948602046FFF7EDFF10BD00000240F5
:1011B00010B50446014803F078F810BD306400080B
:1011C00010B505480068C0F3036420060249486072
:1011D0002046FFF7EDFF10BD0000024070B5054648
:1011E0000C46012D71D13A48406940F00100384960
:1011F0004861082C60D2DFE804F05F04101C293637
:1012000043500020334988600F2048600B2004F0D1
:1012100077FD0B2004F094FD4EE000202D49C861BD
:10122000F02048600C2004F06BFD0C2004F088FDD9
:1012300042E00020274908634FF4706048600D20A9
:1012400004F05EFD0D2004F07BFD35E00020214917
:1012500048644FF4704048600E2004F051FD0E20A9
:1012600004F06EFD28E000201A4988654FF47020D4
:1012700048600F2004F044FD0F2004F061FD1BE0E6
:1012800000201449C8664FF470004860102004F034
:1012900037FD102004F054FD0EE000200D49803190
:1012A00008604FF070600B494860112004F028FD81
:1012B000112004F045FD00BF00BF0120A0400649F9
:1012C000097808430449087000BF00BF70BD0000E2
:1012D00000100240000002404900002070B50546A1
:1012E0000C46012D4ED12948007800B970BD082C5C
:1012F00037D2DFE804F036040B121920272E0B201A
:1013000004F00CFD0020224988602AE00C2004F043
:1013100005FD00201E49C86123E00D2004F0FEFCFD
:1013200000201B4908631CE00E2004F0F7FC00209D
:101330001749486415E00F2004F0F0FC0020144920
:1013400088650EE0102004F0E9FC00201049C86612
:1013500007E0112004F0E2FC00200D498031086014
:1013600000BF00BF0120A040084909788143074819
:101370000170007828B90748406920F0010005494C
:10138000486100BF00BF00BFB0E700004900002077
:10139000000002400010024045F6C051484301469B
:1013A00000BF00BF491E00D0FCE700BF704700002F
:1013B00030B500F00F010D4C04EB8103D3F8002C85
:1013C00000F0800343B148F6CF731340254605EB88
:1013D0008104C4F8003C07E04CF68F731340034DC2
:1013E00005EB8104C4F8003C30BD00000050004013
:1013F00070B500F00F02104D05EB8204D4F8003CEC
:1014000000F080045CB101F030045C4048F6BF7528
:101410002C40094E06EB8205C5F8004C0AE001F4A9
:1014200040545C404BF68F752C40034E06EB820512
:10143000C5F8004C70BD00000050004030B50446B7
:1014400004254FF4302000F06FF80546042D17D125
:101450000C48006940F002000A49086108464461EE
:10146000006940F0400008614FF4302000F05CF863
:1014700005460448006941F6FD71084001490861CC
:10148000284630BD0020024004200B49C96801F005
:10149000010109B101200EE00749C96801F004010A
:1014A00009B1022007E00449C96801F0100109B13F
:1014B000032000E004207047002002400348006938
:1014C00040F08000014908617047000000200240A0
:1014D00070B504460D460426F00200F025F80646D5
:1014E000042E11D10948006940F001000749086144
:1014F0002580F00200F018F806460448006941F61D
:10150000FE71084001490861304670BD002002406C
:101510000248034948600348486070472301674513
:1015200000200240AB89EFCD00B502460423FFF74F
:10153000ABFF034603E0FFF7A7FF0346521E012B54
:1015400001D1002AF7D102B90523184600BD0000D9
:1015500018B5002844D0C0F34211C0F30322214B38
:101560009B6903F001032BB91E4B9B6943F00103F8
:101570001C4CA36100F48053A3B11B4BDB690093A7
:1015800000F01F0301FA03F3009C9C43009400F059
:101590001F0302FA03F3009C23430093124C009BA9
:1015A000E3611DE0104B5B68009300F01F0301FA3C
:1015B00003F3009C9C43009400F01F0302FA03F322
:1015C000009C2343009307210022009B23EA016330
:1015D0000093009B43EA02630093034C009B63600B
:1015E00018BD0000001002400000014001461D48E7
:1015F000814204D11C488069C0F3800070471B48B9
:10160000814204D118488069C0F3C000F6E7184849
:10161000814204D114488069C0F30010EEE71548F8
:10162000814204D110488069C0F34010E6E71248B7
:10163000814204D10C488069C0F38010DEE70F4876
:10164000814204D108488069C0F3C010D6E70C4835
:10165000814204D104488069C0F30020CEE7002015
:10166000CCE700000008014000100240000C0140DF
:10167000001001400014014000180140001C01400E
:10168000002001402DE9F0410246002500260020FF
:1016900000230024002791F803C00CF00F0591F8F7
:1016A00003C00CF0100CBCF1000F03D091F802C085
:1016B0004CEA050591F800C0BCF1000F31D0146868
:1016C00000202BE04FF0010C0CFA00F3B1F800C041
:1016D0000CEA03069E4220D183004FF00F0C0CFA57
:1016E00003F7BC4305FA03FC4CEA040491F803C079
:1016F000BCF1280F06D14FF0010C0CFA00FCC2F827
:1017000014C00AE091F803C0BCF1480F05D14FF0B6
:10171000010C0CFA00FCC2F810C0401C0828D1D300
:101720001460B1F800C0BCF1FF0F34DD5468002034
:101730002EE000F1080C4FF0010808FA0CF3B1F8A4
:1017400000C00CEA03069E4221D183004FF00F0C2B
:101750000CFA03F7BC4305FA03FC4CEA040491F8C5
:1017600003C0BCF1280F05D100F1080C08FA0CF8F1
:10177000C2F8148091F803C0BCF1480F07D100F102
:10178000080C4FF0010808FA0CF8C2F81080401C51
:101790000828CED35460BDE8F0812DE9F04105461C
:1017A0000C46174698460F2C02D90020BDE8F08160
:1017B0002846FFF71BFF18B90121284600F02AF838
:1017C000B8F1000F10D1022F05D1E8680121A14026
:1017D0008843E86008E0032F06D127F00107E86896
:1017E0000121A1400843E860082C01D22E4601E007
:1017F000083C2E1D3068A2000F21914088433060C4
:1018000048EA8700A1008840316808433060012021
:10181000CCE70000002945D0454A904206D1454A10
:10182000926942F00402434B9A6180E0424A90423E
:1018300006D1404A926942F008023E4B9A6176E036
:101840003E4A904206D13B4A926942F01002394B1F
:101850009A616CE03A4A904206D1364A926942F067
:101860002002344B9A6162E0364A904206D1314AF6
:10187000926942F040022F4B9A6158E0324A9042FE
:1018800006D12C4A926942F080022A4B9A614EE0BE
:101890002E4A90424BD1274A926942F48072254BDE
:1018A0009A6144E0224A904206D1224A926922F08B
:1018B0000402204B9A613AE01F4A904206D11D4A29
:1018C000926922F008021B4B9A6130E01B4A904259
:1018D00006D1184A926922F01002164B9A6126E04E
:1018E000174A904206D1134A926922F02002114B06
:1018F0009A611CE0134A904206D10E4A926922F086
:1019000040020C4B9A6112E00F4A904206D1094AFC
:10191000926922F08002074B9A6108E00B4A9042DC
:1019200005D1044A926922F48072024B9A61704791
:101930000008014000100240000C0140001001406E
:101940000014014000180140001C0140002001402B
:101950002DE9F04704460D464FF0FF0A2078D028C5
:1019600072DB2078D7286FDC207805F8010B14F89B
:10197000010BD038082868D2DFE800F004121518EF
:10198000213356725048076805F8017B380A05F87C
:10199000010B380C05F8010B380E05F8010B75E04A
:1019A000FFF7B6FD72E0FFF789FD6FE02768384664
:1019B000FFF744FD042801D04FF0FF0A66E0D4F899
:1019C0000080A68806E018F8011BFF2902D04FF01E
:1019D000FF0A04E0301EA6F101018EB2F3D100BF70
:1019E00054E02768A688382E02DD4FF0FF0A1AE07F
:1019F000A41D12E014F8019B2EB114F8011B49EA52
:101A00000129701E86B249463846FFF761FD042859
:101A100002D04FF0FF0A05E0BF1C301EA6F1010105
:101A20008EB2E7D100BF31E0D4F80080A6883E2E08
:101A300002DD4FF0FF0A12E0002005F8010B09E07B
:101A400026B998F800A005E024E01BE018F8010B87
:101A500005F8010B301EA6F101018EB2F0D115E0A0
:101A600000BFBFF34F8F1948006800F4E0601849C9
:101A70000843001D15490860BFF34F8F00BF00BF2A
:101A800000BFFDE76D1E4FF0FF0A00BF00BF85F8E5
:101A900000A017E00F48006890B10F4BDFF83CC082
:101AA000DCF800C003EB8C110D4BDFF838C0DCF81C
:101AB00000C003EB8C10074B1B685A68904701E08D
:101AC000FF202870BDE8F087002004E00CED00E066
:101AD0000000FA0508000020441200204000002009
:101AE000440A00203800002072B61849086880F3C4
:101AF000088800BF00F030F8002412E000F084F8FD
:101B00006420FFF749FC00F077F800F057F86420F4
:101B1000FFF742FC00F04AF84FF47A70FFF73CFC04
:101B2000641C052CEADB00BFBFF34F8F0848006838
:101B300000F4E06007490843001D05490860BFF351
:101B40004F8F00BF00BF00BFFDE70000000000088E
:101B50000CED00E00000FA0510B51048806940F077
:101B600008000E49886188140D4908600D490C4829
:101B70001438FFF787FD0948806940F008000749DD
:101B800088614FF4804006490860074904481438CA
:101B9000FFF778FD00F030F810BD000000100240A3
:101BA000140C0140886100088C6100084FF48050DB
:101BB0000149086070470000100C01404FF480504C
:101BC0000149086070470000140C014000B502464E
:101BD00000F012F80748007820F00100054908706D
:101BE0004FF0E020006940F001004FF0E021086173
:101BF00000BD0000010000204FF480400149086052
:101C000070470000100C01404FF48040014908600B
:101C100070470000140C014000B50246FFF7CEFFEC
:101C20000F48007840F001000D49087002F00100F3
:101C300050B14FF0E020006920F001004FF0E021AA
:101C40000861FFF7E1FF09E04FF0E020006940F094
:101C500001004FF0E0210861FFF7CEFF00BD00005A
:101C6000010000204FF480400149086070470000E7
:101C7000140801404FF4804001490860704700009B
:101C80001408014002480068C0F38030704700002B
:101C90000C0801404FF48040014908607047000083
:101CA000100801404FF4804001490860704700006F
:101CB000100801400448006800F4005008B10120F9
:101CC00070470020FCE70000080801400448006855
:101CD00000F4005008B1012070470020FCE700002C
:101CE0000808014000F0010121B14FF40051044AFD
:101CF000116004E04FF40051014A121D1160704759
:101D00001008014000F0010121B14FF40051044AD4
:101D1000116004E04FF40051014A121D1160704738
:101D20001008014000BF0748006820F4700040F42C
:101D3000000004490860481402490C31086000BFE3
:101D4000704700000408014000BF0748006820F405
:101D5000700040F4401004490860481402491031F2
:101D6000086000BF704700000408014000BF07483A
:101D7000006820F4700040F44010044908604814E2
:101D800002491031086000BF70470000040801409C
:101D900000BF0748006820F4700040F44010044978
:101DA0000860481402491031086000BF7047000005
:101DB0000408014002480068C0F34030704700004A
:101DC0000808014010B50548406840F080600349AC
:101DD000486003490348FFF755FC10BD000001406F
:101DE000A86100080008014010B54FF4C0400B493D
:101DF00008600B48406840F0806009494860094924
:101E000006481038FFF73EFC002004F093F96420E8
:101E1000FFF7C2FA012004F08DF910BD100801404F
:101E200000000140A4610008704700002DE9F04760
:101E300007468A4600250120FFF754FFFFF712FFEF
:101E4000C648416800BF00BF491E00D0FCE700BF84
:101E5000FFF720FFC148416800BF00BF491E00D006
:101E6000FCE700BF3C46E0B2FFF73CFFFFF7FAFE9D
:101E7000BA48416800BF00BF491E00D0FCE700BF60
:101E8000FFF708FFB548416800BF00BF491E00D0FA
:101E9000FCE700BF25447C08E0B2FFF723FFFFF713
:101EA000E1FEAE48416800BF00BF491E00D0FCE71C
:101EB00000BFFFF7EFFEA948416800BF00BF491E01
:101EC00000D0FCE700BF2544BC08E0B2FFF70AFFE2
:101ED000FFF7C8FEA148416800BF00BF491E00D0FF
:101EE000FCE700BFFFF7D6FE9C48416800BF00BF7B
:101EF000491E00D0FCE700BF2544FC08E0B2FFF714
:101F0000F1FEFFF7AFFE9548416800BF00BF491ED4
:101F100000D0FCE700BFFFF7BDFE9048416800BF5E
:101F200000BF491E00D0FCE700BF2544E8B2FFF720
:101F3000D9FEFFF797FE8948416800BF00BF491EE0
:101F400000D0FCE700BFFFF7A5FE8448416800BF52
:101F500000BF491E00D0FCE700BF0020FFF7C2FE13
:101F6000FFF780FE7D48416800BF00BF491E00D0DA
:101F7000FCE700BFFFF78EFE7848416800BF00BF56
:101F8000491E00D0FCE700BF0120FFF7ABFEFFF7C2
:101F900069FE7248416800BF00BF491E00D0FCE7DF
:101FA00000BFFFF777FE6D48416800BF00BF491EC4
:101FB00000D0FCE700BF00BF00BF00BF684800685A
:101FC00020F4700040F4000065490860481464493A
:101FD0000C31086000BF00BF6048067E14E0FFF7C8
:101FE00041FE5E48416800BF00BF491E00D0FCE7CB
:101FF00000BFFFF74FFE5948416800BF00BF491EB0
:1020000000D0FCE700BF761E002EE8D1FFF72AFEC5
:102010005248416800BF00BF491E00D0FCE700BF26
:10202000FFF748FE0446FFF735FE4C48416800BF05
:1020300000BF491E00D0FCE700BFA046FFF712FE1C
:102040004648416800BF00BF491E00D0FCE700BF02
:10205000FFF730FE0446FFF71DFE4048416800BF11
:1020600000BF491E00D0FCE700BF48EA4408FFF764
:10207000F9FD3A48416800BF00BF491E00D0FCE7A7
:1020800000BFFFF717FE0446FFF704FE3348416820
:1020900000BF00BF491E00D0FCE700BF48EA84082B
:1020A0002E48067E14E0FFF7DDFD2C48416800BF96
:1020B00000BF491E00D0FCE700BFFFF7EBFD27483B
:1020C000416800BF00BF491E00D0FCE700BF761E7C
:1020D000002EE8D1FFF738FED146002520261BE070
:1020E00009F0FF00FFF7FEFDFFF7BCFD1B4841684C
:1020F00000BF00BF491E00D0FCE700BFFFF7CAFDCC
:102100001648416800BF00BF491E00D0FCE700BF71
:102110004D444FEA5909761E002EE1D1E8B2FFF78F
:10212000E1FDFFF79FFD0D48416800BF00BF491E5C
:1021300000D0FCE700BFFFF7ADFD0848416800BFD5
:1021400000BF491E00D0FCE700BFFFF7FDFD0120E6
:10215000FFF7C8FD08F0FF00BDE8F087441A002033
:10216000040801402DE9F04707468846914607F0EC
:102170003F0404B9402407F08000002828D024E060
:10218000002508261BE0FFF775FD2448416800BFC5
:1021900000BF491E00D0FCE700BFFFF797FD824655
:1021A000FFF780FD1D48416800BF00BF491E00D0F9
:1021B000FCE700BF6D0845EACA15761E641E0EB125
:1021C000002CE0D1F54009F8015B002CD8D123E0C8
:1021D00020E018F8015B082619E0E8B2FFF792FD4D
:1021E000FFF748FD0D48416800BF00BF491E00D001
:1021F000FCE700BFFFF756FD0848416800BF00BF7D
:10220000491E00D0FCE700BF6D08761E641E0EB1AB
:10221000002CE2D1002CDCD1BDE8F087441A00206C
:1022200070B504460D460648407820B12946204640
:1022300000F008F870BD2946204600F0A9F9F9E73A
:10224000441A00202DE9F04706468A46CD4800781A
:1022500040F00100CB49087000270120FFF752FD34
:10226000FFF708FD00BF00BFFFF71CFD00BF00BF68
:102270003546E8B2FFF746FDFFF7FCFC00BF00BFA4
:10228000FFF710FD00BF00BF2F447508E8B2FFF74D
:1022900039FDFFF7EFFC00BF00BFFFF703FD00BFF4
:1022A00000BF2F44B508E8B2FFF72CFDFFF7E2FCB2
:1022B00000BF00BFFFF7F6FC00BF00BF2F44F508CA
:1022C000E8B2FFF71FFDFFF7D5FC00BF00BFFFF727
:1022D000E9FC00BF00BF2F44F8B2FFF713FDFFF782
:1022E000C9FC00BF00BFFFF7DDFC00BF00BF00203E
:1022F000FFF708FDFFF7BEFC00BF00BFFFF7D2FCF1
:1023000000BF00BF0120FFF7FDFCFFF7B3FC00BFDB
:1023100000BFFFF7C7FC00BF00BFFFF703FD9A48EF
:10232000047E08E0FFF7A6FC00BF00BFFFF7BAFC81
:1023300000BF00BF641E002CF4D1FFF79BFC00BF60
:1023400000BFFFF7C3FC0546FFF7ACFC00BF00BFB2
:10235000A846FFF78FFC00BF00BFFFF7B7FC05469C
:10236000FFF7A0FC00BF00BF48EA4508FFF782FC6A
:1023700000BF00BFFFF7AAFC0546FFF793FC00BFB4
:1023800000BF48EA8508B8F1010F7DD106F00200D0
:1023900000283ED0A1460027202410E0FFF76AFC69
:1023A00000BF00BFFFF792FC0546FFF77BFC00BFB4
:1023B00000BF2F444FEA590949EAC579641E002C31
:1023C000ECD1FFF757FC00BF00BFFFF77FFC0546CD
:1023D000FFF768FC00BF00BF87EA050000F00100BE
:1023E00008B14FF00808BAF1000F01D0CAF8009008
:1023F0006548047E08E0FFF73DFC00BF00BFFFF723
:1024000051FC00BF00BF641E002CF4D1FFF7C0FCDC
:1024100032E05D48047E08E0FFF72CFC00BF00BFFF
:10242000FFF740FC00BF00BF641E002CF4D1FFF793
:10243000AFFCDAF80090002720240FE009F0FF003D
:10244000FFF760FCFFF716FC00BF00BFFFF72AFC98
:1024500000BF00BF4F444FEA5909641E002CEDD164
:10246000F8B2FFF74FFCFFF705FC00BF00BFFFF716
:1024700019FC00BF00BF00BF06F0800030B100BFF4
:1024800042484068404900E019E088603E48047BCB
:1024900074B10020FFF736FC08E0FFF7EBFB00BF4C
:1024A00000BFFFF7FFFB00BF00BF641E002CF4D18C
:1024B0000120FFF727FC08F0FF00BDE8F087B8F126
:1024C000020F02D0B8F1040F3ED12F48407E78B100
:1024D00006F0020060B1212408E0FFF7CBFB00BF4B
:1024E00000BFFFF7DFFB00BF00BF641E002CF4D16C
:1024F0002548047E08E0FFF7BDFB00BF00BFFFF7E3
:10250000D1FB00BF00BF641E002CF4D1FFF740FCDC
:102510001D48407E90B106F0020078B90020FFF718
:10252000F1FB212408E0FFF7A5FB00BF00BFFFF788
:10253000B9FB00BF00BF641E002CF4D10120FFF7DF
:10254000E1FB08F0FF00B8E70F48007E00F121042E
:1025500008E0FFF78FFB00BF00BFFFF7A3FB00BF42
:1025600000BF641E002CF4D1FFF712FC0120FFF71E
:10257000C9FB0448007800F0FE000249087008F02A
:10258000FF009AE701000020441A0020001000E03C
:102590002DE9F04706468A46F748007840F00100EA
:1025A000F54908704FF000080120FFF7ABFBFFF77B
:1025B00061FBF248416800BF00BF491E00D0FCE744
:1025C00000BFFFF76FFBED48416800BF00BF491E29
:1025D00000D0FCE700BF3546E8B2FFF793FBFFF7FA
:1025E00049FBE648416800BF00BF491E00D0FCE738
:1025F00000BFFFF757FBE148416800BF00BF491E1D
:1026000000D0FCE700BFA8447508E8B2FFF77AFBEA
:10261000FFF730FBD948416800BF00BF491E00D01A
:10262000FCE700BFFFF73EFBD448416800BF00BF96
:10263000491E00D0FCE700BFA844B508E8B2FFF788
:1026400061FBFFF717FBCD48416800BF00BF491E83
:1026500000D0FCE700BFFFF725FBC848416800BF7A
:1026600000BF491E00D0FCE700BFA844F508E8B24F
:10267000FFF748FBFFF7FEFAC048416800BF00BF04
:10268000491E00D0FCE700BFFFF70CFBBB484168C8
:1026900000BF00BF491E00D0FCE700BFA84408F0FF
:1026A000FF00FFF72FFBFFF7E5FAB448416800BFD2
:1026B00000BF491E00D0FCE700BFFFF7F3FAAF48A8
:1026C000416800BF00BF491E00D0FCE700BF0020EA
:1026D000FFF718FBFFF7CEFAA848416800BF00BF1C
:1026E000491E00D0FCE700BFFFF7DCFAA3484168B1
:1026F00000BF00BF491E00D0FCE700BF0120FFF76C
:1027000001FBFFF7B7FA9D48416800BF00BF491EB3
:1027100000D0FCE700BFFFF7C5FA9848416800BF4A
:1027200000BF491E00D0FCE700BFFFF7FBFA93484B
:10273000047E14E0FFF79EFA9048416800BF00BF96
:10274000491E00D0FCE700BFFFF7ACFA8B48416898
:1027500000BF00BF491E00D0FCE700BF641E002C74
:10276000E8D1FFF787FA8548416800BF00BF491EDE
:1027700000D0FCE700BFFFF7A9FA0546FFF792FA81
:102780007E48416800BF00BF491E00D0FCE700BF83
:102790002F46FFF76FFA7948416800BF00BF491E16
:1027A00000D0FCE700BFFFF791FA0546FFF77AFA81
:1027B0007248416800BF00BF491E00D0FCE700BF5F
:1027C00047EA4507FFF756FA6C48416800BF00BF6B
:1027D000491E00D0FCE700BFFFF778FA0546FFF777
:1027E00061FA6648416800BF00BF491E00D0FCE79F
:1027F00000BF47EA8507012F73D106F002000028C9
:1028000063D04FF000094FF0000820241CE0FFF7D0
:1028100031FA5A48416800BF00BF491E00D0FCE7AA
:1028200000BFFFF753FA0546FFF73CFA53484168EB
:1028300000BF00BF491E00D0FCE700BFA8444FEA1C
:10284000590949EAC579641E002CE0D1FFF712FA54
:102850004A48416800BF00BF491E00D0FCE700BFE6
:10286000FFF734FA0546FFF71DFA4448416800BFF8
:1028700000BF491E00D0FCE700BF88EA050000F059
:10288000010000B10827BAF1000F01D0CAF800908A
:102890003A48047E14E0FFF7EDF93848416800BF7C
:1028A00000BF491E00D0FCE700BFFFF7FBF933482B
:1028B000416800BF00BF491E00D0FCE700BF641E96
:1028C000002CE8D1FFF764FA5BE02C48047E15E0A9
:1028D000FFF7D0F92948416800BF00BF491E01D069
:1028E000FCE77AE000BFFFF7DDF92448416800BF4C
:1028F00000BF491E00D0FCE700BF641E002CE7D1DA
:10290000FFF746FADAF80090A04620241BE009F011
:10291000FF00FFF7F7F9FFF7ADF91848416800BF6E
:1029200000BF491E00D0FCE700BFFFF7BBF913480A
:10293000416800BF00BF491E00D0FCE700BFC8448B
:102940004FEA5909641E002CE1D108F0FF00FFF79F
:10295000D9F9FFF78FF90948416800BF00BF491E48
:1029600000D0FCE700BFFFF79DF90448416800BFB5
:1029700000BF491E04D0FCE701000020441A0020DB
:1029800000BF06F0800020B100BF5B4840685B4993
:1029900088605A48047BD4B10020FFF7B3F914E0F3
:1029A000FFF768F95548416800BF00BF491E00D0D5
:1029B000FCE700BFFFF776F95048416800BF00BF51
:1029C000491E00D0FCE700BF641E002CE8D10120A6
:1029D000FFF798F9F8B2BDE8F087022F01D0042F75
:1029E00061D14648407ED8B106F00200C0B1212432
:1029F00014E0FFF73FF94148416800BF00BF491E9E
:102A000000D0FCE700BFFFF74DF93C48416800BF2C
:102A100000BF491E00D0FCE700BF641E002CE8D1B7
:102A20003648047E14E0FFF725F93448416800BFBA
:102A300000BF491E00D0FCE700BFFFF733F92F4865
:102A4000416800BF00BF491E00D0FCE700BF641E04
:102A5000002CE8D1FFF79CF92848407EF0B106F041
:102A60000200D8B90020FFF74DF9212414E0FFF748
:102A700001F92248416800BF00BF491E00D0FCE7B1
:102A800000BFFFF70FF91D48416800BF00BF491E96
:102A900000D0FCE700BF641E002CE8D10120FFF746
:102AA00031F9F8B297E71548007E00F1210414E0EF
:102AB000FFF7E0F81148416800BF00BF491E00D091
:102AC000FCE700BFFFF7EEF80C48416800BF00BF0D
:102AD000491E00D0FCE700BF641E002CE8D1FFF7C0
:102AE00057F90120FFF70EF90548007800F0FE00C5
:102AF00003490870F8B26EE7001000E0441A0020A5
:102B0000010000202DE9F04105460C460026002773
:102B10002BE017B914F8016B082706F0010030B15B
:102B200000BF4FF400501449086000BF07E000BF29
:102B30004FF400501049091D086000BF00BFFFF7A7
:102B400099F80E49486800BF00BF401E00D0FCE75E
:102B500000BFFFF7A7F80949486800BF00BF401E43
:102B600000D0FCE700BF76087F1E281EA5F10105F6
:102B7000CFD1BDE8F081000010080140441A0020C8
:102B800010B500F001F810BD0CB5002001900090C8
:102B90003348006840F480303149086000BF304855
:102BA000006800F4003000900198401C01900098EB
:102BB00018B90198B0F5A06FF1D12948006800F468
:102BC000003010B10120009001E00020009000983A
:102BD000012843D12348006840F0100021490860D3
:102BE0000846006820F0030008600846006840F0CE
:102BF000020008601A484068194948600846406861
:102C000048600846406840F4806048600846406874
:102C100020F47C1048600846406840F4E8104860A2
:102C20000846006840F08070086000BF0C480068EB
:102C300000F000700028F9D00948406820F0030037
:102C4000074948600846406840F00200486000BFFD
:102C50000348406800F00C000828F9D10CBD0000C2
:102C60000010024000200240042808D14FF0E0216B
:102C7000096941F004014FF0E022116107E04FF0D3
:102C8000E021096921F004014FF0E0221161704751
:102C900000B51A480078401E184908701848007896
:102CA00000F0020080B11648007820F002001449BC
:102CB00008701248007800F0010010B1FEF77EFFA6
:102CC0000CE0FEF773FF09E00C48007800F0070005
:102CD00010B9FEF773FF01E0FEF768FF08480078BF
:102CE00000F0010048B10548007800F0010010B97B
:102CF000FEF78AFF01E0FEF77FFF00BD0000002025
:102D00000100002070B51749481EB0F1807F00D344
:102D10001BE0481E4FF0E022506150170F220028A0
:102D200004DB13071C0E104B1C5406E013071D0E8A
:102D30000E4B00F00F04241F1D5500BF00204FF064
:102D4000E02290610720106100BF6FF00400FFF7E0
:102D50008BFF4FF0E020006920F001004FF0E021F0
:102D6000086170BD40771B0000E400E018ED00E052
:102D700010B5002100200022214B5B6803F00C01FC
:102D800021B1042906D0082928D107E01D4B1E4C8B
:102D9000236027E01B4B1C4C236023E0184B5B682F
:102DA00003F47010164B5B6803F48032022303EBCC
:102DB000904022B9154B4343134C23600DE0104B58
:102DC0005B6803F4003323B1104B43430E4C236084
:102DD00003E00C4B43430C4C236003E0094B0A4CCB
:102DE000236000BF00BF064B5B68C3F30313084CAE
:102DF000E15C054B1B68CB40034C236010BD000019
:102E00000010024000127A004C00002000093D0032
:102E10005000002010B51348006840F0010011492F
:102E2000086008464068104908400E494860084656
:102E300000680E4908400B4908600846006820F405
:102E4000802008600846406820F4FE0048604FF487
:102E50001F008860FFF794FE4FF00060044908608F
:102E600010BD0000001002400000FFF8FFFFF6FE5A
:102E700008ED00E070B505461248007840F0020009
:102E80001049087005F0020058B10F48006800F5BD
:102E900080600D4908600D484FF4806182690C48DC
:102EA000904705F0010060B14FF48061094801F0DE
:102EB00097FA0446002C04DD04482146426905487F
:102EC000904770BD010000202000002068640008C9
:102ED000440200204406002070B504460D46034A13
:102EE0002946204600F014F970BD0000D8630008A0
:102EF00008B5024800F01CFD009008BDD86300082A
:102F000008B5024800F017FD009008BDD86300081E
:102F100010B5024800F03AFD10BD0000D86300086B
:102F200008B5024800F03FFD009008BDD8630008D6
:102F300010B5024800F072FD10BD0000D863000813
:102F400010B5024800F077FD10BD0000D8630008FE
:102F500010B504460249204600F0A5FE10BD000051
:102F6000D863000810B504460249204600F01CFF53
:102F700010BD0000D863000870B504460D46034A32
:102F80002946204601F037F870BD0000D8630008DC
:102F900070B504460D46034A2946204601F0BCF8A8
:102FA00070BD0000D863000810B5044602492046F1
:102FB00001F02DF910BD0000D863000870B504467B
:102FC0000D461646034B32462946204601F092F93B
:102FD00070BD0000D863000810B5024801F0BFF9C9
:102FE00010BD0000D863000870B504460D46034AC2
:102FF0002946204600F08CF870BD000030640008BF
:1030000008B5024800F094FC009008BD3064000848
:1030100008B5024800F08FFC009008BD306400083D
:1030200010B5024800F0B2FC10BD0000306400088A
:1030300008B5024800F0B7FC009008BD30640008F5
:1030400010B5024800F0EAFC10BD00003064000832
:1030500010B5024800F0EFFC10BD0000306400081D
:1030600010B504460249204600F01DFE10BD0000C8
:103070003064000810B504460249204600F094FE72
:1030800010BD00003064000870B504460D46034AC8
:103090002946204600F0AFFF70BD000030640008F4
:1030A00070B504460D46034A2946204601F034F81F
:1030B00070BD00003064000810B504460249204687
:1030C00001F0A5F810BD00003064000870B504469A
:1030D0000D461646034B32462946204601F00AF9B2
:1030E00070BD00003064000810B5024801F037F9E7
:1030F00010BD00003064000821B1828942F4005202
:10310000828104E082894DF6FF731A408281704704
:103110002DE9FE4F07460D461446206BC07A00F09D
:10312000020018B94FF0FF30BDE8FE8F002000907C
:1031300080468346F8B2153806287CD2DFE800F0D6
:10314000A3DC032C4E6CA5B1606B90F8210010B18C
:103150006FF00100E8E70120616B81F82100616BED
:1031600081F820006068808940F081006168888172
:1031700010E0606B90F8200060B16068808920F0FA
:103180008000616888810020616B81F82000616B9C
:1031900081F821000020C7E76068808920F0C00026
:1031A00061688881A06A88B1606B90F8210068B17D
:1031B0006068808A20F0800061688882A16A08685F
:1031C000016821F00101016000BF00BF0020616BB8
:1031D00081F82000616B81F82100A5E76068808993
:1031E00020F0200061688881E06A80B1206B40791E
:1031F00068B16068808A20F0400061688882E16A76
:103200000868016821F00101016000BF00BF0021D2
:10321000206B4171002087E76068808920F0E00022
:1032200061688881A06A98B1606B90F8210078B1DC
:103230006068808A00E0C2E020F0800061688882D7
:10324000A16A0868016821F00101016000BF00BFA8
:10325000E06A80B1206B407968B16068808A20F0B4
:10326000400061688882E16A0868016821F0010114
:10327000016000BF00BF0021206B41710020616B25
:1032800081F8210050E7E06810B94FF0FF304BE7BC
:10329000BDB1206BC068062806D0E2689188032380
:1032A00010680222FEF779FA206BC07A40F008001D
:1032B000216BC8726068808940F00800616888816D
:1032C00018E06068808920F0080061688881206BC0
:1032D000C07A20F00800216BC872206BC0680628F5
:1032E00008D0E06830B1E2689188002310681A467F
:1032F000FEF753FA002017E7206910B94FF0FF30AE
:1033000012E7E5B3206BC06806280AD0206BC068BE
:10331000042806D022699188002310680122FEF754
:103320003CFA206BC07A40F01000216BC8726068D4
:10333000808A40F00100616888826068008A40F0FD
:103340004000616808826068808940F01000616810
:103350008881206B407918B1E06A08B1012000E053
:10336000002028B96068808940F020006168888169
:103370006068808940F00400616888811DE0FFE793
:103380006068808920F0040061688881206BC07AC1
:1033900020F01000216BC872206BC06806280CD08A
:1033A000206BC068042808D0206930B12269918858
:1033B000002310681A46FEF7F0F90020B4E600BFBB
:1033C00000BF206B407918B9606B90F8210010B1F4
:1033D0006FF00100A8E66068808900F0080038B14D
:1033E0006068008800F0400010B96FF001009BE6B3
:1033F000F8B2152872D2DFE800F0C90B0E1D2025A7
:103400002AC9C9C9C9C9C9C9C9C9373B697EB80070
:1034100001200290BDE02078C0F3400020B148F4C4
:10342000006848F4807802E06FF006007CE6022035
:103430000290AEE06FF0060076E64BF0080B042039
:103440000290A6E04BF0020B05200290A1E020784C
:10345000C0F3401010B14BF0200B02E06FF00600FB
:1034600062E60620029094E0616B4D8300205BE6EB
:10347000206BC068052824D015B36068808A40F0AE
:10348000040061688882D4F808A0FE48B0FBFAFA0C
:10349000012605E00AFB06F0A84200D902E0761CEE
:1034A000FF2EF7D900BFB6F5807F02D14FF0FF3075
:1034B0003AE66068008B20F0FF00304361680883C3
:1034C00002E04FF0FF302FE600202DE6206BC068B1
:1034D00006280BD1FF2D02D9C01F25E656E06068F3
:1034E000008BC0B228436168088302E04FF0FF30D0
:1034F0001AE6002018E6206BC068062830D1D4F800
:1035000008A0E048B0FBFAFA012619E00AFB06F031
:1035100040006421484305EB051101EB4101B0EB8C
:10352000410F0CD20AFB06F040006421484305EB32
:10353000051101EB4511B0EB410F00D902E0761CFB
:10354000402EE3D300BF402E02D14FF0FF30EBE519
:103550006068008B20F0FF0030436168088302E060
:103560004FF0FF30E0E50020DEE5206BC068062864
:1035700007D14DB16068808A40F010006168888290
:1035800002E04FF0FF30CFE50020CDE56FF0030003
:10359000CAE500BF07F4E06060B1B0F5807F13D0EA
:1035A000B0F5E06F1DD107F4405010B96FF008007E
:1035B000BAE519E007F4405028B148F02008009817
:1035C00040F4805000900FE007F4405010B16FF0CD
:1035D0000800A9E548F02008009840F480500090C9
:1035E00002E06FF008009FE500BF07F4405030B1E3
:1035F000B0F5805F04D0B0F5005F0BD105E00CE0C2
:10360000009840F48060009007E0009840F4C060AB
:10361000009002E06FF0090086E500BF07F440402B
:1036200048B1B0F5804F07D0B0F5004F07D0B0F5E6
:10363000404F0AD106E00BE048F4005808E048F497
:10364000405805E048F4805802E06FF00A006BE54E
:1036500000BF07F4403048B1B0F5803F09D0B0F565
:10366000003F13D0B0F5403F2ED11CE04FF00009D1
:103670002DE02078C0F3C01020B14FF480394BF416
:10368000807B02E06FF00B004EE520E02088C0F365
:10369000002020B14FF400394BF4C06B02E06FF012
:1036A0000B0041E513E02078C0F3C01040B1208842
:1036B000C0F3002020B14FF440394BF4E06B02E03E
:1036C0006FF00B0030E502E06FF00B002CE500BF5F
:1036D000029802281DD107F4802018B1B0F5802F80
:1036E00004D100E005E048F4806802E06FF00C00CF
:1036F0001AE500BF07F4002018B1B0F5002F04D17F
:1037000000E005E048F4007802E06FF00D000BE502
:1037100000BFA06800EBC00101EB0010A900B0FBE6
:10372000F1F06421B0FBF1F1A06800EBC00202EB04
:103730000010AA00B0FBF2F0A26802EBC20303EB98
:103740000212AB00B2FBF3F26423B2FBF3F202EB22
:10375000C20303EB0212A0EB8200322202EB001044
:103760006422B0FBF2FA61F31F1AA06800011FFA8D
:103770008AF1B0FBF1F000090190642101984843FF
:1037800005EB051101EB4101B0EB410F09D26421BA
:103790000198484305EB051101EB4511B0EB410FD2
:1037A00002D86FF00700BFE46068808920F4005001
:1037B000616888816168A1F808A00298216BC860DF
:1037C000206BC0F81090206BC068062809D1E06813
:1037D00030B1E2689188032310680222FDF7DDFF13
:1037E00017E0206BC07A00F0080048B1E06880B1B3
:1037F000E2689188032310680222FDF7CEFF08E0FB
:10380000E06830B1E2689188002310681A46FDF73D
:10381000C4FF00BF206BC068042802D006280BD16B
:1038200000E000BF206930B1226991880023106850
:103830001A46FDF7B2FF18E0206BC07A00F01000C6
:1038400048B1206980B12269918800231068012263
:10385000FDF7A3FF08E0206930B1226991880023B9
:1038600010681A46FDF799FF00BF00BF6069D0B12C
:10387000206BC068022802D006280BD100BF626905
:10388000918801E000CA9A3B032310680222FDF7E9
:1038900084FF07E062699188002310681A46FDF7EB
:1038A0007CFF00BF00BFA069A0B1B9F5803F02D086
:1038B000B9F5403F07D1A26991880323106802221D
:1038C000FDF76BFF06E0A2699188002310681A4695
:1038D000FDF763FFE069A0B1B9F5003F02D0B9F58B
:1038E000403F07D1E2699188002310680122FDF76B
:1038F00054FF06E0E2699188002310680122FDF779
:103900004CFF0098616888816168A1F81080616847
:10391000A1F814B06068808940F400506168888123
:10392000206BC07A40F00400216BC872002011E4C3
:1039300001460868704708B50146009820F001006C
:103940000090086B006920B1086B0069B0F5803FFA
:103950000ED1C86960B1CB6998881A689368C34072
:1039600003F0010323B9009820F00100401C0090EF
:10397000009820F002000090009820F008000090CD
:10398000009820F004000090009808BD0146C86A25
:1039900030B1CA6A10684268486B0068801A704784
:1039A000486B0069FBE708B50146486B90F82100B9
:1039B00028B1009820F00100401C009008E0486801
:1039C0000088012222EA9012009862F30000009021
:1039D000086B4279009862F341000090086B82798D
:1039E000009862F382000090086BC279009862F33D
:1039F000C3000090086B027A009862F304100090F4
:103A0000086B427A009862F345100090086B827A46
:103A1000009862F386100090009808BD0146886AFD
:103A200030B18A6A10684268486B4068801A7047F3
:103A3000486B4069FBE72DE9F04104466068068861
:103A400000270025A84606F0200061688989084003
:103A5000002860D0206B407938B9606880880121E7
:103A6000206BC17145F0200555E0206BC06802282D
:103A700006D1606BC069012802D16068808802E0CD
:103A80006068B0F80480606B8268501C636B98605B
:103A900082F800806068878907F4806050B907F475
:103AA000805038B14FEA2821606B8268501C636BEC
:103AB00098601170606B0069401C616B0861606BFD
:103AC0000069616B0968884225D16068808920F0AF
:103AD0001000616888810021206B4171206BC068F3
:103AE000022816D1606BC7690020616BC861012F85
:103AF00004D0022F05D0032F09D105E045F00105C0
:103B000006E045F0020503E045F0040500E000BFD3
:103B100001E045F0020506F010006168898908405F
:103B200018B16068808845F0400506F08000616843
:103B300089890840002863D0606B90F8200030B17C
:103B40006068808940F001006168888158E0606B9E
:103B50004068616B4969884222D0206BC0680228A6
:103B600007D1606BC069022803D1606BB0F81A807E
:103B700016E0606BC168481C626BD06091F80080F1
:103B80006068878907F4806050B907F4805038B1C5
:103B9000606BC168481C626BD060087848EA0028F6
:103BA000606B4069401C616B48616068A0F80480EC
:103BB000606B4068616B4969884221D16068808987
:103BC00020F08000616888816068808940F0400052
:103BD000616888810020616B81F82100206BC068DA
:103BE00002280BD1606BC069012809D1206BC07A13
:103BF00000F0100020B945F0010501E045F0010595
:103C000006F0400061688989084038B160688089A1
:103C100020F040006168888145F0080506F0080042
:103C200030B1606880880121206BC17145F02005AA
:103C300006F0020030B1606880880121206B41727B
:103C400045F4807506F0010030B16068808801217C
:103C5000206B817245F4007506F4807050B1606885
:103C6000008820F48070616808800121206B017257
:103C700045F0800506F4007038B16068008820F4D3
:103C800000706168088045F4806525B1206B00688C
:103C900008B1012000E0002018B1206B016828461F
:103CA0008847BDE8F08170B505460C46206BC07AA8
:103CB00000F0010008B1002070BD206B05600020FD
:103CC000216B08710021206B4171206B8171206B89
:103CD000C171206B0172206B4172206B81720020D8
:103CE000216BC860616B81F821002421606BFCF7B7
:103CF000B0FA608CFDF72CFCE06820B1E168086840
:103D00000121FDF787FD206920B1216908680121A3
:103D1000FDF780FD606920B1616908680121FDF748
:103D200079FDA06920B1A16908680121FDF772FD44
:103D3000E06920B1E16908680121FDF76BFD012010
:103D4000216BC8720020B7E71449884205D1144995
:103D5000C96841F48041124AD1601249884205D1B4
:103D60000F49096941F400310D4A116100BF00BFDC
:103D700000BF00BF0949884205D10949C96821F43B
:103D80008041074AD1600749884205D10449096941
:103D900021F40031024A11617047000000380140EF
:103DA000001002400044004070B505460C4625B1A5
:103DB000012D53D0022D7DD153E06068FFF7C4FF81
:103DC00094F9240000280BDB00F01F020121914030
:103DD000634A430942F82310BFF34F8FBFF36F8F3D
:103DE00000BFE06A20B1E26A51791079FDF776FAF6
:103DF000A06A20B1A26A51791079FDF76FFA59498A
:103E00006068884205D15848806920F4804056494E
:103E1000886156496068884205D15348C06920F4DA
:103E200000305149C8610020216B08710021206BCE
:103E30004171206B8171206BC171206B0172206B0D
:103E40004172206B81720020616B81F82100206B30
:103E5000C07A20F00200216BC8727EE06FF0030090
:103E600070BD206BC07A00F0010010B94FF0FF3038
:103E7000F6E7206BC07A00F0020008B10020EFE7FF
:103E80000020216B08710021206B4171206B817132
:103E9000206BC171206B0172206B4172206B8172AB
:103EA0000020616B81F82100616B4883616BC86100
:103EB000616B00E04EE081F82000216BC860216B4F
:103EC00008610320216BC87226496068884205D1C9
:103ED0002548806940F4804023498861234960680F
:103EE000884205D12048C06940F400301E49C861AD
:103EF00094F92400002807DB00F01F0101228A400A
:103F00001B49430941F8232000BF94F924000028ED
:103F10000DDB00BF00BF00F01F02012191404209EC
:103F2000920002F1E022C2F8001100BF00BF00BF02
:103F3000E06A20B1E26A51791079FDF74FF9A06A81
:103F400020B1A26A51791079FDF748F96068FFF74E
:103F5000FBFE02E06FF0030082E700BF00207FE776
:103F600080E100E0003801400010024000440040C1
:103F700080E200E070B50446E16A0868416819B162
:103F8000606B006800B170BD6068808920F010002F
:103F9000616888810025206BC068022813D1606B9E
:103FA000C6690020616BC861012E04D0022E04D0C6
:103FB000032E06D103E0012504E0022502E00425DA
:103FC00000E000BF00E00225606B0068616B0861E3
:103FD0000021206B41716068808940F02000616899
:103FE0008881206B006820B11DB1206B01682846D4
:103FF000884700BFC7E72DE9F04706460F4614463D
:1040000006B11FB96FF00400BDE8F087206BC07ADD
:1040100000F0040010B94FF0FF30F5E7206B407955
:10402000012801D1C01EEFE76068808920F02000E0
:1040300061688881606B07600021206B0172206BD2
:104040004172206BC171206B8172606B86600020B1
:10405000616B08610121206B41718025206BC06874
:10406000022804D1606BC069012800D10025E06AF4
:1040700088B3E06A80794FF4405101EA0030801C37
:1040800005436068B0F80C9009F4805028B109F439
:10409000806010B945F4A06500E000BFE26A1068D6
:1040A0006268111D05608160C660476000BFE16AFB
:1040B0000868016841F00101016000BF6068808A02
:1040C00040F04000616888826068808940F010009C
:1040D0006168888106E0FFE76068808940F0300011
:1040E00061688881206BC068022813D1606BC06949
:1040F00080B90220616BC861616B01F11A00224630
:10410000394600F009F8804608F1020010B96FF056
:10411000010079E7002077E72DE9F04706460F46D2
:10412000144606B11FB96FF00400BDE8F087206B9C
:10413000C07A00F0040010B94FF0FF30F5E7606B73
:1041400090F8210010B16FF00100EEE70120616BE3
:1041500081F82100606BC660606B47600020616B76
:1041600048618025206BC068022818D1606BC06947
:1041700080B90120616BC861616B01F118002246B2
:104180003946FFF738FF804608F1020038B96FF072
:104190000100CAE7606BC069022800D10025A06A4F
:1041A00068B3A06A80794FF4405101EA003040F0D2
:1041B0001000801C05436068B0F80C9009F4805032
:1041C00028B109F4806010B945F4A06500E000BF93
:1041D000A26A10686268111D05608160C660476050
:1041E00000BFA16A0868016841F00101016000BFD9
:1041F0006068808A40F080006168888205E06068BD
:10420000808940F080006168888100208DE770B56A
:10421000044634B1012C22D0022C3FD0032C3CD1D7
:104220003DE0086B006920B1086B0069B0F5003F04
:1042300011D1886990B18D69AA88012328681BB1C2
:1042400001259540056104E002F110050126AE400C
:10425000066100BF02E04FF0FF3070BD22E0086B46
:10426000006920B1086B0069B0F5003F11D1886981
:1042700090B18D69AA88002328681BB1012595405B
:10428000056104E002F110050126AE40066100BFA1
:1042900002E04FF0FF30E0E704E000BF00BF4FF066
:1042A000FF30DAE700BF0020D7E710B50446A16A67
:1042B0000868416819B1606B406800B110BD606B5F
:1042C0004068616B48610020616B81F82100606883
:1042D000808940F0400061688881206BC0680228B6
:1042E00006D0206B006818B1206B01680120884758
:1042F00000BFE3E72DE9F04180460E4617461C4615
:10430000B8F1000F01D006B11FB96FF00400BDE88D
:10431000F081206BC07A00F0040010B94FF0FF303C
:10432000F5E7206BC068022814D10320616BC861D7
:10433000224639463046FFF75EFE05460DB1284657
:10434000E5E7224639464046FFF7E6FE054625B139
:104350002846DCE74FF0FF30D9E70020D7E710B55B
:104360000446E06830B1E2689188002310681A467C
:10437000FDF713FA206930B1226991880023106893
:104380001A46FDF70AFA606930B162699188002324
:1043900010681A46FDF701FAA06930B1A269918848
:1043A000002310681A46FDF7F8F9E06930B1E269B8
:1043B0009188002310681A46FDF7EFF9208CFDF76D
:1043C000C7F80020216BC87210BD000008B5024874
:1043D0000068009008BD0000B4630008002070472A
:1043E00070B50B4D0C460346D5E90C0188420BD93C
:1043F000401A844200DD044622461846FBF7E4FEDC
:10440000686B2044686300E00024204670BD000013
:104410008800002038B505460A49C86A80470090E0
:1044200000F0010060B94FF480610748FFF7D8FF42
:104430000446002C04DD03482146426902489047A7
:1044400038BD000068640008440600202DE9F041F2
:10445000194C0D460746D4E90401401A17490A8849
:10446000101A002802DC0020BDE8F081854200DD42
:104470000546D4E906020026904210D3104A098866
:10448000431911448B420AD30E1A904632463946DC
:10449000FBF79AFE3744AD1B4046C4F8188035B18F
:1044A0002A463946FBF790FEA0692844A06121699D
:1044B000A81901442161D7E788000020D8610008CD
:1044C000BA01002010B5054C6068002805D1012014
:1044D000606000F005F80020606010BD88000020DA
:1044E0002DE9F047224CA06800283BD0D4E9040114
:1044F000421AE0684FF00006104335D01D481E4FA9
:10450000DFF878800088DFF878903D182046C16990
:104510006AB1A069814203D38818A84200D36A1AFD
:1045200099F8003038F81300904200DA0246154836
:10453000E660007840F0800001F0E6FAE1690144AD
:10454000E16162698D420244626100D1E7612169E3
:1045500091420BD199F8002038F81210814205D110
:104560000120E060BDE8F087A660FBE7E660F9E7C0
:1045700088000020D8610008BA010020E06100082E
:1045800063000020D561000810B50B4C206A18B1FB
:10459000A06A401CA06210BD01202062606200F091
:1045A0000DF8002060622062D4E90C018842F2D04C
:1045B000401AFFF72FFF10BD8800002010B5134CE4
:1045C000144A1348216B1288144B081A101A124A05
:1045D0001B7832F8132090420EDB1148007800F06F
:1045E000EDFE216B08442063A06A00280CD0616AAC
:1045F000002909D1401E06E00120E062606A00281F
:1046000002D0A06A401CA06210BD000088000020FB
:10461000FA010020DA610008E06100086300002070
:10462000D661000810B50446400702D52046FFF7C2
:10463000ABFF200704D52046BDE81040FFF742BF7E
:1046400010BD7047002070470020704710B50B4820
:1046500000F01CF8002810D0084A094811680170C1
:104660000B0A43700B0C8370090EC1701179017134
:104670005179417191798171012010BDC0000020F4
:10468000F800002010B500F00DF810BD01460448F8
:1046900002680A6082888A80807988710120704768
:1046A0002800002010B50548816805488847034860
:1046B000016902208847012010BD000068640008DD
:1046C000752E000810B506480021826A1820904710
:1046D00003480021826A19209047012010BD000084
:1046E0006864000801460120704700002DE9F04190
:1046F000044600260027B0463D480021826A182063
:1047000090473B480021826A192090473848002191
:10471000826A1520904736480021826A1620904709
:10472000207920B1012805D0022809D105E04FF0F9
:10473000000805E04FF4004802E04FF4804800BF55
:1047400000BF607920B1012804D0022808D104E01C
:10475000002708E04FF4005705E04FF4805702E0CF
:104760000020BDE8F08100BFA079052806D006280A
:1047700007D0072808D008280BD108E04FF4A0661E
:1047800009E04FF4C06606E04FF4E06603E000265F
:1047900001E00020E5E700BF216846F001033B434C
:1047A00043EA0800124B9A6A904705460DB1002073
:1047B000D7E7104821680160A1888180A1798171C3
:1047C00000200D4908600D49086009480121826AEE
:1047D0001520904706480121826A16209047044818
:1047E0004FF480618269064890470120B9E70000D4
:1047F0006864000828000020200000202400002019
:104800004402002010B51048002410494460846020
:10481000C4600461C0E90541C0E9071444620C4961
:104820008462C0E90B4141630480FFF74BFF0648F7
:104830004FF41651383001600471447108218171C0
:10484000FFF754FF10BD000088000020BA010020CF
:10485000FA01002010B5FFF7D5FF10BD70B5174C59
:1048600000250126206A50B9D4E90C10814206D1F6
:104870001348814203D02063E56225626063A06A29
:1048800070B1206A60B9E06A50B92662FFF796FEFF
:104890002562D4E90C01884202D0401AFFF7BAFD24
:1048A000D4E90101084308D1D4E90401884204D0C5
:1048B0006660A660FFF714FE656070BD880000208A
:1048C000FA01002000207047002070470020704748
:1048D000024910B50880FFF705FF10BD88000020D1
:1048E000084810B5C178026861F31F6206490A6082
:1048F00002790A7142794A71807988710846FFF716
:10490000F5FE10BDF8000020C000002010B50446E0
:104910002046FCF74DFD43F230012046FCF768FDD0
:1049200010BD000010B50246937803F00F01908887
:10493000937803F0800353B1294B1B88294C2468DA
:1049400004EB01142360431C23F0010020E0244BFE
:104950001B88244C246804EB0114A3603E280ED964
:1049600000F11F0323F01F000123C3EB401343F4A6
:1049700000431C4C246804EB0114E36008E0431C72
:1049800023F001004302174C246804EB0114E36098
:10499000134B1B880344124C2380D37803F003038A
:1049A00033B1012B07D0022B08D0032B0FD10BE022
:1049B0004FF400700BE04FF4806008E0002000230B
:1049C0000BB140F4807002E04FF4C06000BF00BF44
:1049D0000843054C04EB8103C3F8000C10BD000034
:1049E0001C000020180000200050004030B9402179
:1049F000034A1180114609888031118070470000F8
:104A00001C00002000F07EBA58B10121074A116055
:104A100000211160121D11604FF4E051121F11604E
:104A200002E00321014A116070470000405C004031
:104A300010B50B4C0B48A28801788A4200D9CAB243
:104A40001AB907490020183908718020216801F03F
:104A50005BF8216801442160A188081AA08010BD7C
:104A600078000020BD61000810B5064C00202168C8
:104A700000F0A4FC216801442160A188081AA080EC
:104A800010BD000078000020704710B504460021DA
:104A90002046FCF7ADFC10BD10B5044643F22001E2
:104AA0002046FCF7A5FC10BD2DE9F047DFF8448255
:104AB0000646A8F1080580074FF0000AA5F1180482
:104AC00024D500F0F5FF98F800004746C009FFF72D
:104AD000DBFFF888A8803978C1F3411010B10128B4
:104AE00077D17DE098F80120834FDFF810920C2AEF
:104AF0006FD2DFE802F0060C951C952B3B953F45E5
:104B0000526100F067FD33E0FFF792FF96E000206E
:104B100000F09EFD00285CD000F0D0FF386820B186
:104B20006169002921D0082050E0484653E0012067
:104B300000F08EFD002873D000F0C0FF3868002818
:104B4000F3D06169002979D004203FE011F01F0FF4
:104B500066D198F80200012140F08000207000F03A
:104B60007F0000F093FF00F0A9FF67E000F058FC21
:104B700078B3C9E711F01F0F52D15E481F3819E012
:104B800000F0BCFD28B300F099FF386818B16169E6
:104B900029B301201AE05A481DE001F01F01012944
:104BA0003ED16178A9B198F80400A178884237D243
:104BB000544908442860A7E700F068FE48B100F0B7
:104BC0007DFF386830B1616949B1022001F09EFA79
:104BD00034E025E04C48016809B1084680472DE0E3
:104BE00011F01F0004D0012805D0022818D111E0CF
:104BF00000F02AF913E000F02DF9F8B900F080F97F
:104C0000E0B900F0CFF8C8B900F0CEF8B0B900F0C4
:104C10001FF904E000F0C4F880B900F017F968B992
:104C200098F80010090604D4B8F8060008B100206E
:104C300000E0802000F034FFA5F804A0700735D50F
:104C400098F80000474600062ED4A88858B3FFF70E
:104C50000BFFA88838BB3878C0F34111F1B10129A6
:104C60001CD110F01F0004D0012805D0022815D156
:104C70000EE000F077F810E000F07AF898B900F054
:104C800047F880B900F046F868B900F06FF804E022
:104C900000F03CF838B900F067F820B9802000F047
:104CA000FFFEA5F804A001E000F00EFF300713D5C9
:104CB00098F80000000606D5A888217908430BD093
:104CC000FFF7B6FE08E02078010605D500F07F006A
:104CD0002070002100F0DAFE700602D50020FFF7F8
:104CE00015FE300604D5BDE8F0478020FFF70EBE64
:104CF000BDE8F087800000204C6200084862000890
:104D0000406200080C000020446200080020704748
:104D10000020704710B51048104A0179127891426E
:104D200003D00F4A1278914214D1417821B102295F
:104D300005D020290ED10AE0FFF7C6FD02E0408829
:104D4000FFF7C4FD30B100F0B9FE012010BDFFF740
:104D5000C7FDF7E7002010BD80000020D2610008E9
:104D6000D361000800207047002070470020704782
:104D700010B50948094A01791278914209D1407861
:104D8000092806D100F0D8FA18B100F097FE0120EA
:104D900010BD002010BD000080000020BE61000892
:104DA000002070470020704770B52249224A0879D8
:104DB0001278904203D0214A1278904238D11D488F
:104DC00049781F4C1F4D408804291FD007DC79B15A
:104DD00001290FD002290BD0032929D111E0202964
:104DE00006D021291AD022291BD0232920D11BE04B
:104DF0002C6011E0FFF728FC05E02C60FFF718FE9F
:104E00000AE0FFF71FFC0028F7D111E0FFF7E6FAF0
:104E10000CE000BF00F052FE012070BDFFF716FC51
:104E2000F1E7FFF755FD01E0FFF74CFD0028F1D158
:104E3000002070BD80000020D2610008D36100080E
:104E4000F800002078000020002070470020704704
:104E5000002070472DE9F041224C23492079097840
:104E600088423DD16078214D214E224F0C2837D207
:104E7000DFE800F03606212D363636363616243277
:104E800000F070F960B3E078012802D0032803D065
:104E900003E01948286000E02E60FFF7C9FD13E029
:104EA000E078022802D0032803D00DE013482860E0
:104EB0000AE02E6008E000F03DF90AE000F014FA84
:104EC0000CE000BF00F0FAFD0120BDE8F08100F029
:104ED0003FF928B12F60E0E700F024FA0028F1D173
:104EE0000020F2E780000020BE610008780000206A
:104EF00016000020F8000020390100207A0100206F
:104F000000207047084800214170C1600161416183
:104F10008161C16141808180016241628162C180A1
:104F2000C162018170470000C80000202DE9F05FD8
:104F3000DFF84081DFF840A1DFF840B10127504C95
:104F400008F101090025A561606910B1A761BDE8FC
:104F5000F09F6761A088618888421AD3206AC0B92F
:104F6000E561A580012398F8001008F101021846B8
:104F700000F050FF0004000C60800CD04149C4F8E0
:104F80001C800978012902D8C4F81C903BE0401C21
:104F900060806088B8BBE068A8BB216999B33948D4
:104FA0004246007801280FD81570A5800223521CB4
:104FB0000021012000F02EFF0004000C608001D0D1
:104FC000C4F81C9025611EE01678202E00D3002620
:104FD00007FA06F0084240D0701CC1B21170A580DB
:104FE000022308F10102012000F014FF0104090C62
:104FF000618003D0491CC4F81C806180216907FAD4
:1050000006F0814321616088216A01432AD0A1888A
:10501000401A9BF8001086B23AF81100B04200D254
:105020000646676218483246E169007840F0800021
:1050300000F06AFDE06915493044E061A088304421
:1050400080B2A080098888420AD29BF800103AF802
:105050001100B04204D1276205E0761CF6B2B4E735
:10506000256200E065626561A06900287FF46BAF8E
:105070006DE7000038010020C661000863000020D1
:10508000C8000020CA610008BF610008CC610008A8
:10509000F8B5194C194D0026E08800B9A5621848EA
:1050A000A16A007800F08AF90004A16A000C0144AA
:1050B000A162E18801448BB2E3800AD011490988DA
:1050C0008B4206D2114A1049127831F812108142EF
:1050D00010D90F48017801200129009003D8002140
:1050E000064A022003E029786A1C02205B1E00F0B9
:1050F000AFFFE680F8BD0000C80000207901002065
:10510000C0610008CE610008C6610008630000208D
:10511000CB61000810B50446000702D52046FFF712
:1051200005FF600704D52046BDE81040FFF7B0BF7B
:1051300010BD0000034804498078085C03490870EA
:10514000012070478000002014000020F80000209B
:1051500010B500F05DFE02490870012010BD00008E
:10516000F80000200B4910B5C8780022012804D0AF
:10517000022804D0032806D103E0074A02E00020F9
:1051800010BD064A521C8978002300F043FE01201E
:1051900010BD000080000020380100201500002014
:1051A0002DE9F05F4648007800287DD0454800276B
:1051B0003D4601784A1C0270434A1478042204EBED
:1051C000440A02FA0AF2521E914201DB05700127DD
:1051D0003E4900230A88FF2A01D2521C0A803C4A19
:1051E0008E46098832F81490894500D10123834600
:1051F000002100699BF8006043E000BF4FF0000C05
:105200006FB1344A545CFF2C01D2641C5454324CAC
:10521000645C24B1525CA24201D34FF0010C2E4ACF
:105220004FF0020808FA0AF8525C02FA08F44C45FA
:1052300002DA0AB1012400E0002433B12CB14FF0AE
:10524000010808FA01F848EA0000DFF8908018F831
:10525000018042450AD01F4A525C424503D30122D5
:105260008A40104300261C4A02F80180BCF1000F5E
:1052700005D014B901228A401043164A5554491CDE
:10528000C9B2174A12789142B8D3CBF810005946E8
:105290008BF800600BB1AEF8005008B1CA6852B18B
:1052A000104A1378012200E003E09A409043CBF8C3
:1052B0001000BDE8F09FBDE8F05F0020FFF736BEAC
:1052C00061000020C80000206300002010000020C2
:1052D000C26100081200002013000020140000200A
:1052E000CA6100083801002010B50A4809498078D1
:1052F000C97810B1084A815409E00020074B084AD8
:1053000002E01954401CC0B21478A042F9D3012025
:1053100010BD0000800000201300002014000020B9
:10532000CA610008034810B5807800F08FFE0120A4
:1053300010BD0000800000200C4908B5C87800228C
:10534000012804D0022804D0032806D103E000205D
:1053500008BD074A00E0074A521C00230093CB888F
:10536000897800F075FE012008BD00008000002053
:10537000790100201500002010B50548C06940F4EF
:1053800000000349C86100F005F8FCF74DFD10BDB1
:1053900000100240142000280DDB00BF00BF00F009
:1053A0001F02012191404209920002F1E022C2F85D
:1053B000001100BF00BF00BF704770472DE9F043E8
:1053C00005460C4605F00F061248006800EB061073
:1053D00080681149022202FB00190E48006800EBA8
:1053E00006108089C0F309074FF0000805E039F87E
:1053F000041B2180A41C08F10108781CB8EB500F95
:10540000F5D34FF440512846FBF7F2FF3846BDE88C
:10541000F08300001800002000600040704700008A
:105420007CB54048A0F120050178A0F1080411F0F6
:105430001F0102D0012973D15CE0C3783948394992
:105440002038394AC0788978082B69D2DFE803F020
:105450006804123F6868082C34482060122047E036
:10546000117800295CD018B1314820600A203FE053
:105470003048FAE712780AB9012851D018B12E48FD
:105480000090002008E02D48FAE7009A137813B145
:1054900053881A440092401C8142F6D1009801784A
:1054A000E9B32060408823E01278C2B318B12448E1
:1054B0000090002008E02348FAE7009A137813B11F
:1054C00053881A440092401C8142F6D1E6E71E48F8
:1054D0000090002005E0009B1A780AB11A4400925F
:1054E000401C8142F7D100980178C1B1206000785A
:1054F000019005E001A9684600F02AF800280DD0C7
:10550000A1880198814208D9104980B2A080097809
:10551000491E084201D10120287101207CBDFFE70E
:105520000020FBE780000020B961000876620008D7
:105530008962000888620008F66200088A62000832
:10554000F8620008F7620008FA620008BD6100080E
:1055500030B5164A164C174BD5781279212D02D04A
:10556000222D20D115E02478A2421CD1124A1478B1
:10557000124A12780CB9012A15D042B1104A0260C1
:105580001046104A128810441860092008E00E4A9C
:10559000F5E72078824206D10C4818600C48008854
:1055A0000860012030BD002030BD000080000020D8
:1055B000BE61000878000020B96100086300002087
:1055C000F6620008746200088A62000850620008EF
:1055D0007262000870B51C481B4D0078A5F10805E3
:1055E00010F01F040AD01848A5F11801174B4A788B
:1055F0000079012C06D0022C24D109E012481A3877
:1056000028601DE0F2B1897888421BD2002015E0A5
:1056100000F08F04200605D504F00F064FF480300B
:10562000B04001E00120A0400AB922070AD18A68EF
:10563000024207D0C9680142E8D0012018802B60DF
:10564000012070BD002070BD80000020F800002007
:1056500070B5294A0146A2F12004107810F01F030A
:105660001046408804D0012B28D0022B26D110E010
:10567000012823D129B100F045FAE08840F002006A
:1056800005E0002000F03EFAE08820F00200E08013
:1056900030E0127902F08F06320605D506F00F02CF
:1056A0004FF48035954001E00125B54062782AB17C
:1056B000320703D0A2682A4200D008B1002070BD92
:1056C0000D482038C06800EA050031B190B9304675
:1056D00000F0E6F9E06828430BE058B12069284261
:1056E00008D13046FFF712F93046FFF797FEE06821
:1056F000A843E060012070BD800000202DE9F84F34
:105700005C4F00200090387810F01F0F6FD1B878F0
:105710004FF000094FF0010B4FF4803AA7F120063B
:1057200000287AD0544801783046C07809B9012859
:105730005DD008B1514C6BE0514C69E060780228B3
:1057400004D0042844D0052860D144E06179B878B9
:1057500081423BD170702079B0700020494A4A499B
:1057600003E000BF02F80090401C0B889842F9D378
:105770000125B0460BFA05F0D8F80810084202D00F
:105780002846FFF782F9D8F808100AFA05F008420F
:1057900003D045F08000FFF778F96D1C102DE9D398
:1057A0004FF00110C8E902090120C8F81090FFF776
:1057B0001DF9E0794006B8F8060002D540F0010076
:1057C00001E020F00100A8F806001FE060881EE05C
:1057D000E07800901AE00098C0B9A07800F08F053A
:1057E000280605D505F00F010AFA01F002E03CE0B9
:1057F0000BFA05F0B16801432046B160FFF792F85B
:105800002846FFF749F9284600F030F9207804448B
:105810002078002892D124E0FFE7C84686F801905E
:1058200001245D464FEA0A09B16805FA04F008420E
:1058300002D02046FFF729F9B16809FA04F00842BE
:1058400003D044F08000FFF720F9641C102CEBD348
:105850004FF00110C6E902080020C6F81080FFF7DB
:10586000C5F8B8787178884202D00020BDE8F88F7A
:105870000120FBE780000020B9610008F662000803
:105880008A6200080C000020BA6100082DE9FC5F64
:10589000444E00273D463078BB4600F01F00B84616
:1058A00001287DD1A6F120014878002875D03E4816
:1058B000BA4602780846C0780AB9012870D08946ED
:1058C00008B13A4C65E03A4C63E06078022804D0B5
:1058D000042809D005285AD117E0617999F8010008
:1058E000814254D0608853E0A7783079E5784FF052
:1058F0000008B8424BD1B078A84248D12D484FF0AB
:10590000010A10F807B0C55541E03079B8423ED1E0
:10591000A07800F08F000190000605D5019800F0F6
:105920000F014FF4803001E0019901208840009080
:10593000B078A84217D1D9F80810009A2046114330
:10594000C9F80810D9F80C109143C9F80C10FEF7EB
:10595000E9FF0198FFF7A0F8019800F087F8009997
:1059600048EA010813E05D4511D1009918EA010FDA
:105970000DD1D9F80810009A9143C9F80810D9F848
:105980000C109143C9F80C100198FFF77EF82078AD
:1059900004442078002898D15046BDE8FC9FFFE7DA
:1059A0000020FAE780000020B9610008F6620008D4
:1059B0008A6200080C000020002027490860274860
:1059C000006808B1481400E0002040F41C4023495E
:1059D000096811B14FF4804100E0002108432049DB
:1059E000096811B14FF4007100E0002108431C491F
:1059F000096811B14FF4807100E000210843164995
:105A0000091F0860402017490880002012490C3106
:105A10000860144800881449096808601148008823
:105A2000403010490880084600880F49096888609E
:105A30000C48008840300B49088048F2FF700A4942
:105A40000968C8604FF44850034944390860802011
:105A50000149083108607047445C0040FC6100085F
:105A6000F86100081C0000201800002010B5044652
:105A70002046FBF79DFC10BDFEF7ECBE10B5FFF70E
:105A80008FFBBDE81040FEF7E9BE000001B1704792
:105A900040F08002014B1A6000BFF8E74C5C004008
:105AA00010B5044641F210012046FBF7A1FC10BDE1
:105AB00001490020FFF782BC80000020002211462F
:105AC000802000F021B8000001490020FFF776BCDB
:105AD000F80000200548006840F00800034908600D
:105AE0000846006840F0040008607047405C0040D1
:105AF0000348006820F00800014908607047000072
:105B0000405C0040704700002DE9F04707460D4615
:105B1000144607F00F061648006800EB06100068F0
:105B20001449022202FB001A4FF0000805E0288801
:105B30004AF8040BAD1C08F10108601CB8EB500FCB
:105B4000F5D30B48006800EB061044600A4901EBEE
:105B50008600D0F8000C1FFA80F909F030001028F8
:105B600003D030213846FBF743FC2046BDE8F087E0
:105B700018000020006000400050004070B5504800
:105B8000056805F4806068B1FFF716FF00F0C0FA01
:105B90004C48006810B14B48006880476FF4806043
:105BA0004749086005F4006058B1FFF793FF464885
:105BB000006810B14448006880476FF400604049B5
:105BC000086005F4805058B1FFF792FF3F48006825
:105BD00010B13E48006880476FF480503849086033
:105BE00005F4007048B13A48006810B138480068C0
:105BF00080476FF400703249086005F4804050B16E
:105C00003448006818B102203249096888476FF4A7
:105C100080402B49086005F4005050B12D480068C1
:105C200018B101202B49096888476FF400502449B6
:105C300008603CE06FF400402149086005F00F0463
:105C4000254901EB8400D0F8006C06F40040C0B197
:105C500026F4004048F68F7108401F4A02EB840189
:105C6000C1F8000C1D4850F8240050B106F4006241
:105C70000AB1022200E004221046184A52F8241009
:105C8000884706F0800090B126F0800048F68F71BA
:105C90000840114A02EB8401C1F8000C0F4850F88B
:105CA000240020B10D4850F82410082088470448EB
:105CB0000068054600F400400028BBD170BD00001C
:105CC000445C0040E8610008EC610008F0610008F5
:105CD000F8610008FC610008005000400062000804
:105CE00001200149087070474800002010B50446A3
:105CF00002480460FBF760F910BD000004000020BA
:105D0000002807DB00F01F0201219140024A4309ED
:105D100042F823107047000080E200E000280BDB0F
:105D200000F01F0201219140044A430942F8231068
:105D3000BFF34F8FBFF36F8F7047000080E100E02B
:105D400000280DDB00BF00BF00F01F0201219140C1
:105D50004209920002F1E022C2F8001100BF00BF28
:105D600070470000FDF704F8FAF70AFBFCF7CAFFDA
:105D7000FBF724FFFBF748FF1948006838B11848C3
:105D800018490860084600680168174888474FF4BA
:105D9000FA70FBF701FB00F0ABF9012000F036F8D8
:105DA00006E0FBF703FFFBF727FF0A20FBF7F4FAF7
:105DB00000F024F80028F4D04FF0E020006940F013
:105DC00001004FF0E02108616420FBF7E5FAFEF7DF
:105DD00069FC03E000F0DCF8FAF704FBFAE70000E6
:105DE00098610008080000209061000810B500F0DC
:105DF000AFF8BDE81040FEF745BC0000024840780F
:105E0000002800D00120704760000020FEF7FCBD94
:105E1000002070472DE9F04104460F4615461E4606
:105E2000012C02D0032C38D136E026B1012E04D04B
:105E3000022E2FD100E000BF2CE01948006819495C
:105E40000968884202D118480078F8B11748144A06
:105E5000126800EB821140222846FAF7B5F9104883
:105E60000068401C0E49086008460068202801D1DF
:105E7000002008600A4800680A490968884202D17F
:105E80000020094908704020BDE8F0810120084940
:105E9000087000BF00BF00E000BF00BF0020F3E7B4
:105EA00044000020400000203D000020441200205B
:105EB0003C0000202DE9F04107461F4816460088A7
:105EC000824202DD0020BDE8F0811C4800780028F5
:105ED000F9D01B4C01224FF00008E26000E0B0B1A5
:105EE000626A12B1A269002AF9D1164D3246681CC5
:105EF0002F70FAF769F9E5611349A4F80480B0B28C
:105F00006080097801290BD86D1CE5610AE0C4F8AE
:105F10000C80C4F81C80A4F80480A4F80280D1E7A7
:105F2000401C60800020FFF701F8084800F8078057
:105F30000120C4F80C80C6E7CC6100086100002095
:105F4000C800002038010020CA61000812000020AB
:105F500000200849087008490860084908600120C5
:105F60000749087000200749087007490860074979
:105F70000860704730000020340000203800002006
:105F80003C0000203D000020400000204400002094
:105F900010B52548006825490968884203D124487E
:105FA000007800283DD0234A234B1B6802EB831165
:105FB000224A1D4B1B6802EB8310FBF7C9FC1A48F1
:105FC0000068441C202C00D100241748046000689D
:105FD00016490968884202D10020154908701848FE
:105FE000007860B10020164908701248124A126801
:105FF00000EB821140220020FFF75CFF0FE00E480B
:106000000068441C202C00D100240B480460006868
:106010000C490968884202D101200B49087001200F
:1060200010BD0020FCE700003800002034000020F4
:10603000300000204412002040000020440A0020CC
:106040003C000020440000203D000020704700007C
:106050002DE9F0410646884614461D46069F022E4D
:1060600002D0032E36D134E005B933E0207807287A
:1060700007D11A48006818B118490968886880472C
:1060800028E01748007830B11648006816490968BA
:10609000884200D11EE01549124A126801EB8210B5
:1060A0002A462146FAF790F80E480068401C0D4930
:1060B000086008460068202801D1002008600948CF
:1060C000006809490968884202D101200449087022
:1060D00000E000BF00BFBDE8F08100000800002024
:1060E000300000203400002038000020440A002046
:1060F000054910B50020C870FFF778FEFFF75DF97D
:10610000BDE81040FFF738B960000020704700007C
:1061100006484FF0011201780548C1800021017046
:106120004170C0E90221016170470000B8610008B8
:106130006000002070B50546114940F6C540FBF7E8
:1061400075FE002400E0641C642CFCD30D4940F66D
:10615000DD40FBF76BFE002400E0641C642CFCD3E4
:10616000074940F6C540FBF761FE002400E0641CCF
:10617000642CFCD3034940F6DD40FBF757FE70BDAD
:106180000CED00E00700FA050010031000400310BA
:10619000CD1B0008191C0008ED5C00085F06000814
:1061A000E15C00080060031000600004FF8700004D
:1061B000FFFF000000E000000000030003400203B6
:1061C00003000100400040000400010140004000C5
:1061D00001000001010202004000400040001000E8
:1061E0004000400000000000795A00080000000054
:1061F00000000000000000007D5A000800000000C0
:10620000A94A000843460008254600081551000821
:10621000000000000000000000000000000000007E
:10622000000000000000000000000000000000006E
:10623000000000000000000000000000000000005E
:10624000054A0008000000000000000000000000F7
:106250000600FF0901A101150026FF007508954001
:106260000901810295400901910295010901B102DC
:10627000C0002100540012010002EF02014083041B
:106280002A57000101020301000009026B0003010B
:106290000080FA080B000202020104090400000158
:1062A0000202000405240010010524010101042458
:1062B00002020524060001070581034000020904CB
:1062C0000100020A00000507050202400000070560
:1062D00082024000000904020002030000060921B6
:1062E000000100012221000705830340000107058A
:1062F000030340000100000000000403090422031E
:1063000043004D005300490053002D00440041005C
:1063100050002000420059002000410052004D0072
:106320001E034600310030003300200043004D00C2
:106330005300490053002D004400410050001A034F
:1063400030003000300031004100300030003000BB
:1063500030003000310036001C0343004D00530074
:10636000490053002D00440041005000200043002C
:10637000440043001C0343004D00530049005300F8
:106380002D0044004100500020004400430049001B
:106390001E034600310030003300200043004D0052
:1063A0005300490053002D00440041005000322E9C
:1063B000302E3000040202020008014009000000F3
:1063C000000801400A0000004400024001040000EF
:1063D0005800024001050000390600000038014065
:1063E00000A24A04B8630008C0630008000000006F
:1063F0000000000000000000220022002500000034
:10640000C8630008D0630008601A0020741A0020D6
:1064100000080140020000000008014003000000E5
:1064200080000240010700006C00024001060000ED
:1064300039060000004400400051250210640008A5
:1064400018640008000000000000000000000000C8
:1064500023002300260000002064000828640008B0
:10646000981A0020AC1A0020CD430008F12E000835
:10647000512F0008D92F0008652F0008912F000820
:10648000792F0008BD2F0008312F0008112F0008B8
:10649000D92E0008212F0008A92F0008012F00087D
:1064A000CD4300080130000861300008E9300008E1
:1064B00075300008A130000889300008CD30000890
:1064C0004130000821300008E92F00083130000871
:1064D000B930000811300008F864000800000020FE
:1064E000F800000028010008F0650008F80000200E
:1064F00038200000440100080300000000000000F4
:10650000000000000000000000000000000000008B
:1065100000600040000000000000000000000000DB
:1065200000C20100000000000000000000000000A8
:10653000000000000000000000000000000000005B
:106540000000000000A24A0400000000000000005B
:106550000102030406070809000000000000000013
:10656000000000000000000000000000000000002B
:10657000000000000000000000000000000000001B
:10658000000000000000000000000000000000000B
:1065900000000000000000000000000000000000FB
:1065A00000000000000000000000000000000000EB
:1065B00000000000000000000000000000000000DB
:1065C00000000000000000000000000000000000CB
:1065D00000000000000000000000000000000000BB
:1065E00000000000000000000000000000000000AB
:04000005080000ED02
:00000001FF
