Component: ARM Compiler 5.06 update 7 (build 960) Tool: armlink [4d3601]

==============================================================================

Section Cross References

    main.o(i.BoardInit) refers to stm32f10x_gpio.o(i.GPIO_Init) for GPIO_Init
    main.o(i.BoardInit) refers to main.o(i.LEDS_SETUP) for LEDS_SETUP
    main.o(i.BoardInit) refers to main.o(.constdata) for INIT_PINS_A
    main.o(i.HardFault_Handler) refers to main.o(i.LEDS_SETUP) for LEDS_SETUP
    main.o(i.HardFault_Handler) refers to main.o(i.LedRunningOn) for LedRunningOn
    main.o(i.HardFault_Handler) refers to dap.o(i.Delayms) for Delayms
    main.o(i.HardFault_Handler) refers to main.o(i.LedRunningOff) for LedRunningOff
    main.o(i.HardFault_Handler) refers to main.o(i.LedConnectedOn) for LedConnectedOn
    main.o(i.HardFault_Handler) refers to main.o(i.LedConnectedOff) for LedConnectedOff
    main.o(i.HardFault_Handler) refers to startup_stm32f10x_ld.o(RESET) for __Vectors
    main.o(i.LEDS_SETUP) refers to stm32f10x_gpio.o(i.GPIO_Init) for GPIO_Init
    main.o(i.LEDS_SETUP) refers to main.o(i.LedRunningOff) for LedRunningOff
    main.o(i.LEDS_SETUP) refers to main.o(.constdata) for INIT_LED_CONNECTED
    main.o(i.LedConnectedOut) refers to main.o(i.LedRunningOff) for LedRunningOff
    main.o(i.LedConnectedOut) refers to main.o(.data) for u8LedMode
    main.o(i.LedRunningOut) refers to main.o(i.LedConnectedOn) for LedConnectedOn
    main.o(i.LedRunningOut) refers to main.o(i.LedRunningOn) for LedRunningOn
    main.o(i.LedRunningOut) refers to main.o(i.LedRunningOff) for LedRunningOff
==============================================================================

Removing Unused input sections from the image.

    Removing main.o(.rev16_text), (4 bytes).
    Removing main.o(.revsh_text), (4 bytes).
    Removing main.o(.rrx_text), (6 bytes).
    Removing main.o(i.LedConnectedToggle), (20 bytes).
    Removing main.o(i.LedRunningToggle), (20 bytes).
    Removing main.o(i.USBD_Error_Event), (22 bytes).
    Removing misc.o(.rev16_text), (4 bytes).
    Removing misc.o(.revsh_text), (4 bytes).
    Removing misc.o(.rrx_text), (6 bytes).
    Removing misc.o(i.NVIC_Init), (112 bytes).
    Removing misc.o(i.NVIC_PriorityGroupConfig), (20 bytes).
    Removing misc.o(i.NVIC_SetVectorTable), (20 bytes).
    Removing misc.o(i.NVIC_SystemLPConfig), (32 bytes).
    Removing stm32f10x_gpio.o(.rev16_text), (4 bytes).
    Removing stm32f10x_gpio.o(.revsh_text), (4 bytes).
    Removing stm32f10x_gpio.o(.rrx_text), (6 bytes).
    Removing stm32f10x_gpio.o(i.GPIO_AFIODeInit), (20 bytes).
    Removing stm32f10x_gpio.o(i.GPIO_DeInit), (200 bytes).
==============================================================================

Image Symbol Table

    Local Symbols

    Symbol Name                              Value     Ov Type        Size  Object(Section)

    ../clib/angel/boardlib.s                 0x00000000   Number         0  boardshut.o ABSOLUTE
    ../clib/angel/boardlib.s                 0x00000000   Number         0  boardinit1.o ABSOLUTE
    ../clib/angel/boardlib.s                 0x00000000   Number         0  boardinit2.o ABSOLUTE
    ../clib/angel/boardlib.s                 0x00000000   Number         0  boardinit3.o ABSOLUTE
    ../clib/angel/handlers.s                 0x00000000   Number         0  __scatter_copy.o ABSOLUTE
    ../clib/angel/handlers.s                 0x00000000   Number         0  __scatter_zi.o ABSOLUTE
    ../clib/angel/kernel.s                   0x00000000   Number         0  __rtentry4.o ABSOLUTE
    ../clib/angel/kernel.s                   0x00000000   Number         0  __rtentry2.o ABSOLUTE
    ../clib/angel/kernel.s                   0x00000000   Number         0  __rtentry.o ABSOLUTE
    ../clib/angel/kernel.s                   0x00000000   Number         0  rtexit2.o ABSOLUTE
    ../clib/angel/kernel.s                   0x00000000   Number         0  rtexit.o ABSOLUTE
    ../clib/angel/rt.s                       0x00000000   Number         0  rt_raise.o ABSOLUTE
    ../clib/angel/scatter.s                  0x00000000   Number         0  __scatter.o ABSOLUTE
    ../clib/angel/startup.s                  0x00000000   Number         0  __main.o ABSOLUTE
    ../clib/angel/sys.s                      0x00000000   Number         0  libspace.o ABSOLUTE
    ../clib/angel/sys.s                      0x00000000   Number         0  indicate_semi.o ABSOLUTE
    ../clib/angel/sys.s                      0x00000000   Number         0  use_no_semi.o ABSOLUTE
    ../clib/angel/sys.s                      0x00000000   Number         0  sys_stackheap_outer.o ABSOLUTE
    ../clib/angel/sysapp.c                   0x00000000   Number         0  sys_wrch.o ABSOLUTE
    ../clib/angel/sysapp.c                   0x00000000   Number         0  sys_exit.o ABSOLUTE
    ../clib/angel/sysapp.c                   0x00000000   Number         0  sys_command.o ABSOLUTE
    ../clib/armsys.c                         0x00000000   Number         0  argv_veneer.o ABSOLUTE
    ../clib/armsys.c                         0x00000000   Number         0  argv_veneer.o ABSOLUTE
    ../clib/armsys.c                         0x00000000   Number         0  _get_argv_nomalloc.o ABSOLUTE
    ../clib/armsys.c                         0x00000000   Number         0  no_argv.o ABSOLUTE
    ../clib/heapalloc.c                      0x00000000   Number         0  hrguard.o ABSOLUTE
    ../clib/heapaux.c                        0x00000000   Number         0  heapauxi.o ABSOLUTE
    ../clib/libinit.s                        0x00000000   Number         0  libshutdown2.o ABSOLUTE
    ../clib/libinit.s                        0x00000000   Number         0  libinit.o ABSOLUTE
    ../clib/libinit.s                        0x00000000   Number         0  libshutdown.o ABSOLUTE
    ../clib/libinit.s                        0x00000000   Number         0  libinit2.o ABSOLUTE
    ../clib/memcpset.s                       0x00000000   Number         0  rt_memcpy_w.o ABSOLUTE
    ../clib/memcpset.s                       0x00000000   Number         0  rt_memcpy_v6.o ABSOLUTE
    ../clib/memcpset.s                       0x00000000   Number         0  rt_memclr_w.o ABSOLUTE
    ../clib/signal.c                         0x00000000   Number         0  defsig_other.o ABSOLUTE
    ../clib/signal.c                         0x00000000   Number         0  defsig_segv_inner.o ABSOLUTE
    ../clib/signal.c                         0x00000000   Number         0  defsig_rtred_inner.o ABSOLUTE
    ../clib/signal.c                         0x00000000   Number         0  defsig_fpe_inner.o ABSOLUTE
    ../clib/signal.c                         0x00000000   Number         0  defsig_abrt_inner.o ABSOLUTE
    ../clib/signal.c                         0x00000000   Number         0  defsig_cppl_inner.o ABSOLUTE
    ../clib/signal.c                         0x00000000   Number         0  defsig_general.o ABSOLUTE
    ../clib/signal.c                         0x00000000   Number         0  __raise.o ABSOLUTE
    ../clib/signal.c                         0x00000000   Number         0  defsig_rtmem_inner.o ABSOLUTE
    ../clib/signal.c                         0x00000000   Number         0  defsig_pvfn_inner.o ABSOLUTE
    ../clib/signal.c                         0x00000000   Number         0  defsig_rtmem_formal.o ABSOLUTE
    ../clib/signal.c                         0x00000000   Number         0  defsig_rtmem_outer.o ABSOLUTE
    ../clib/signal.c                         0x00000000   Number         0  defsig_exit.o ABSOLUTE
    ../clib/signal.c                         0x00000000   Number         0  defsig_stak_inner.o ABSOLUTE
    ../clib/signal.s                         0x00000000   Number         0  defsig.o ABSOLUTE
    ../clib/stdlib.c                         0x00000000   Number         0  exit.o ABSOLUTE
    ../fplib/fpinit.s                        0x00000000   Number         0  fpinit.o ABSOLUTE
    C:\Keil_v5\Arm\Packs\Keil\STM32F1xx_DFP\2.3.0\RTE_Driver\GPIO_STM32F10x.c 0x00000000   Number         0  gpio_stm32f10x.o ABSOLUTE
    C:\\Keil_v5\\Arm\\Packs\\Keil\\STM32F1xx_DFP\\2.3.0\\RTE_Driver\\GPIO_STM32F10x.c 0x00000000   Number         0  gpio_stm32f10x.o ABSOLUTE
    CMSIS-DAP\DAP.c                          0x00000000   Number         0  dap.o ABSOLUTE
    CMSIS-DAP\SW_DP.c                        0x00000000   Number         0  sw_dp.o ABSOLUTE
    CMSIS-DAP\\DAP.c                         0x00000000   Number         0  dap.o ABSOLUTE
    CMSIS-DAP\\SW_DP.c                       0x00000000   Number         0  sw_dp.o ABSOLUTE
    Driver\STM32F10x_ARM_Driver\DMA_STM32F10x.c 0x00000000   Number         0  dma_stm32f10x.o ABSOLUTE
    Driver\STM32F10x_ARM_Driver\USART_STM32F10x.c 0x00000000   Number         0  usart_stm32f10x.o ABSOLUTE
    Driver\\STM32F10x_ARM_Driver\\DMA_STM32F10x.c 0x00000000   Number         0  dma_stm32f10x.o ABSOLUTE
    Driver\\STM32F10x_ARM_Driver\\USART_STM32F10x.c 0x00000000   Number         0  usart_stm32f10x.o ABSOLUTE
    Libraries\STM32F10x_StdPeriph_Driver\src\misc.c 0x00000000   Number         0  misc.o ABSOLUTE
    Libraries\STM32F10x_StdPeriph_Driver\src\stm32f10x_flash.c 0x00000000   Number         0  stm32f10x_flash.o ABSOLUTE
    Libraries\STM32F10x_StdPeriph_Driver\src\stm32f10x_gpio.c 0x00000000   Number         0  stm32f10x_gpio.o ABSOLUTE
    Libraries\STM32F10x_StdPeriph_Driver\src\stm32f10x_rcc.c 0x00000000   Number         0  stm32f10x_rcc.o ABSOLUTE
    Libraries\STM32F10x_StdPeriph_Driver\src\stm32f10x_usart.c 0x00000000   Number         0  stm32f10x_usart.o ABSOLUTE
    Libraries\\STM32F10x_StdPeriph_Driver\\src\\misc.c 0x00000000   Number         0  misc.o ABSOLUTE
    Libraries\\STM32F10x_StdPeriph_Driver\\src\\stm32f10x_flash.c 0x00000000   Number         0  stm32f10x_flash.o ABSOLUTE
    Libraries\\STM32F10x_StdPeriph_Driver\\src\\stm32f10x_gpio.c 0x00000000   Number         0  stm32f10x_gpio.o ABSOLUTE
    Libraries\\STM32F10x_StdPeriph_Driver\\src\\stm32f10x_rcc.c 0x00000000   Number         0  stm32f10x_rcc.o ABSOLUTE
    Libraries\\STM32F10x_StdPeriph_Driver\\src\\stm32f10x_usart.c 0x00000000   Number         0  stm32f10x_usart.o ABSOLUTE
    RL_ARM.s                                 0x00000000   Number         0  usbd_hid.o ABSOLUTE
    RL_ARM.s                                 0x00000000   Number         0  usbd_cdc_acm.o ABSOLUTE
    RL_ARM.s                                 0x00000000   Number         0  usbd_core.o ABSOLUTE
    RL_ARM.s                                 0x00000000   Number         0  usbd_core_hid.o ABSOLUTE
    RL_ARM.s                                 0x00000000   Number         0  usbd_core_cdc.o ABSOLUTE
    RTE\Device\STM32F103C6\startup_stm32f10x_ld.s 0x00000000   Number         0  startup_stm32f10x_ld.o ABSOLUTE
    RTE\Device\STM32F103C6\system_stm32f10x.c 0x00000000   Number         0  system_stm32f10x.o ABSOLUTE
    RTE\\Device\\STM32F103C6\\system_stm32f10x.c 0x00000000   Number         0  system_stm32f10x.o ABSOLUTE
    SRC\\usbd_core.c                         0x00000000   Number         0  usbd_core.o ABSOLUTE
    SRC\usbd_cdc_acm.c                       0x00000000   Number         0  usbd_cdc_acm.o ABSOLUTE
    SRC\usbd_core.c                          0x00000000   Number         0  usbd_core.o ABSOLUTE
    SRC\usbd_core_cdc.c                      0x00000000   Number         0  usbd_core_cdc.o ABSOLUTE
    SRC\usbd_core_hid.c                      0x00000000   Number         0  usbd_core_hid.o ABSOLUTE
    SRC\usbd_hid.c                           0x00000000   Number         0  usbd_hid.o ABSOLUTE
    USB\\usbd_STM32F103.c                    0x00000000   Number         0  usbd_stm32f103.o ABSOLUTE
    USB\\usbd_user_cdc_acm.c                 0x00000000   Number         0  usbd_user_cdc_acm.o ABSOLUTE
    USB\\usbd_user_hid.c                     0x00000000   Number         0  usbd_user_hid.o ABSOLUTE
    USB\usb_config.c                         0x00000000   Number         0  usb_config.o ABSOLUTE
    USB\usbd_STM32F103.c                     0x00000000   Number         0  usbd_stm32f103.o ABSOLUTE
    USB\usbd_user_cdc_acm.c                  0x00000000   Number         0  usbd_user_cdc_acm.o ABSOLUTE
    USB\usbd_user_hid.c                      0x00000000   Number         0  usbd_user_hid.o ABSOLUTE
    dc.s                                     0x00000000   Number         0  dc.o ABSOLUTE
    main.c                                   0x00000000   Number         0  main.o ABSOLUTE
    main.c                                   0x00000000   Number         0  main.o ABSOLUTE
    RESET                                    0x08000000   Section      236  startup_stm32f10x_ld.o(RESET)
    !!!main                                  0x080000ec   Section        8  __main.o(!!!main)
    !!!scatter                               0x080000f4   Section       52  __scatter.o(!!!scatter)
    !!handler_copy                           0x08000128   Section       26  __scatter_copy.o(!!handler_copy)
    !!handler_zi                             0x08000144   Section       28  __scatter_zi.o(!!handler_zi)
    .ARM.Collect$$libinit$$00000000          0x08000160   Section        2  libinit.o(.ARM.Collect$$libinit$$00000000)
    .ARM.Collect$$libinit$$00000002          0x08000162   Section        0  libinit2.o(.ARM.Collect$$libinit$$00000002)
    .ARM.Collect$$libinit$$00000004          0x08000162   Section        0  libinit2.o(.ARM.Collect$$libinit$$00000004)
    .ARM.Collect$$libinit$$0000000A          0x08000162   Section        0  libinit2.o(.ARM.Collect$$libinit$$0000000A)
    .ARM.Collect$$libinit$$0000000C          0x08000162   Section        0  libinit2.o(.ARM.Collect$$libinit$$0000000C)
    .ARM.Collect$$libinit$$0000000E          0x08000162   Section        0  libinit2.o(.ARM.Collect$$libinit$$0000000E)
    .ARM.Collect$$libinit$$00000011          0x08000162   Section        0  libinit2.o(.ARM.Collect$$libinit$$00000011)
    .ARM.Collect$$libinit$$00000013          0x08000162   Section        0  libinit2.o(.ARM.Collect$$libinit$$00000013)
    .ARM.Collect$$libinit$$00000015          0x08000162   Section        0  libinit2.o(.ARM.Collect$$libinit$$00000015)
    .ARM.Collect$$libinit$$00000017          0x08000162   Section        0  libinit2.o(.ARM.Collect$$libinit$$00000017)
    .ARM.Collect$$libinit$$00000019          0x08000162   Section        0  libinit2.o(.ARM.Collect$$libinit$$00000019)
    .ARM.Collect$$libinit$$0000001B          0x08000162   Section        0  libinit2.o(.ARM.Collect$$libinit$$0000001B)
    .ARM.Collect$$libinit$$0000001D          0x08000162   Section        0  libinit2.o(.ARM.Collect$$libinit$$0000001D)
    .ARM.Collect$$libinit$$0000001F          0x08000162   Section        0  libinit2.o(.ARM.Collect$$libinit$$0000001F)
    .ARM.Collect$$libinit$$00000021          0x08000162   Section        0  libinit2.o(.ARM.Collect$$libinit$$00000021)
    .ARM.Collect$$libinit$$00000023          0x08000162   Section        0  libinit2.o(.ARM.Collect$$libinit$$00000023)
    .ARM.Collect$$libinit$$00000025          0x08000162   Section        0  libinit2.o(.ARM.Collect$$libinit$$00000025)
    .ARM.Collect$$libinit$$0000002C          0x08000162   Section        0  libinit2.o(.ARM.Collect$$libinit$$0000002C)
    .ARM.Collect$$libinit$$0000002E          0x08000162   Section        0  libinit2.o(.ARM.Collect$$libinit$$0000002E)
    .ARM.Collect$$libinit$$00000030          0x08000162   Section        0  libinit2.o(.ARM.Collect$$libinit$$00000030)
    .ARM.Collect$$libinit$$00000032          0x08000162   Section        0  libinit2.o(.ARM.Collect$$libinit$$00000032)
    .ARM.Collect$$libinit$$00000033          0x08000162   Section        2  libinit2.o(.ARM.Collect$$libinit$$00000033)
    .ARM.Collect$$libshutdown$$00000000      0x08000164   Section        2  libshutdown.o(.ARM.Collect$$libshutdown$$00000000)
    .ARM.Collect$$libshutdown$$00000002      0x08000166   Section        0  libshutdown2.o(.ARM.Collect$$libshutdown$$00000002)
    .ARM.Collect$$libshutdown$$00000004      0x08000166   Section        0  libshutdown2.o(.ARM.Collect$$libshutdown$$00000004)
    .ARM.Collect$$libshutdown$$00000006      0x08000166   Section        0  libshutdown2.o(.ARM.Collect$$libshutdown$$00000006)
    .ARM.Collect$$libshutdown$$00000009      0x08000166   Section        0  libshutdown2.o(.ARM.Collect$$libshutdown$$00000009)
    .ARM.Collect$$libshutdown$$0000000C      0x08000166   Section        0  libshutdown2.o(.ARM.Collect$$libshutdown$$0000000C)
    .ARM.Collect$$libshutdown$$0000000E      0x08000166   Section        0  libshutdown2.o(.ARM.Collect$$libshutdown$$0000000E)
    .ARM.Collect$$libshutdown$$00000011      0x08000166   Section        0  libshutdown2.o(.ARM.Collect$$libshutdown$$00000011)
    .ARM.Collect$$libshutdown$$00000012      0x08000166   Section        2  libshutdown2.o(.ARM.Collect$$libshutdown$$00000012)
    .ARM.Collect$$rtentry$$00000000          0x08000168   Section        0  __rtentry.o(.ARM.Collect$$rtentry$$00000000)
    .ARM.Collect$$rtentry$$00000002          0x08000168   Section        0  __rtentry2.o(.ARM.Collect$$rtentry$$00000002)
    .ARM.Collect$$rtentry$$00000004          0x08000168   Section        6  __rtentry4.o(.ARM.Collect$$rtentry$$00000004)
    .ARM.Collect$$rtentry$$00000009          0x0800016e   Section        0  __rtentry2.o(.ARM.Collect$$rtentry$$00000009)
    .ARM.Collect$$rtentry$$0000000A          0x0800016e   Section        4  __rtentry2.o(.ARM.Collect$$rtentry$$0000000A)
    .ARM.Collect$$rtentry$$0000000C          0x08000172   Section        0  __rtentry2.o(.ARM.Collect$$rtentry$$0000000C)
    .ARM.Collect$$rtentry$$0000000D          0x08000172   Section        8  __rtentry2.o(.ARM.Collect$$rtentry$$0000000D)
    .ARM.Collect$$rtexit$$00000000           0x0800017a   Section        2  rtexit.o(.ARM.Collect$$rtexit$$00000000)
    .ARM.Collect$$rtexit$$00000002           0x0800017c   Section        0  rtexit2.o(.ARM.Collect$$rtexit$$00000002)
    .ARM.Collect$$rtexit$$00000003           0x0800017c   Section        4  rtexit2.o(.ARM.Collect$$rtexit$$00000003)
    .ARM.Collect$$rtexit$$00000004           0x08000180   Section        6  rtexit2.o(.ARM.Collect$$rtexit$$00000004)
    .text                                    0x08000188   Section       64  startup_stm32f10x_ld.o(.text)
    .text                                    0x080001c8   Section      138  rt_memcpy_v6.o(.text)
    .text                                    0x08000252   Section       78  rt_memclr_w.o(.text)
    .text                                    0x080002a0   Section        0  heapauxi.o(.text)
    .text                                    0x080002a6   Section      100  rt_memcpy_w.o(.text)
    .text                                    0x0800030a   Section       74  sys_stackheap_outer.o(.text)
    .text                                    0x08000354   Section        0  exit.o(.text)
    .text                                    0x08000368   Section        8  libspace.o(.text)
    .text                                    0x08000370   Section        0  sys_exit.o(.text)
    .text                                    0x0800037c   Section        2  use_no_semi.o(.text)
    .text                                    0x0800037e   Section        0  indicate_semi.o(.text)
    i.BoardInit                              0x08000380   Section        0  main.o(i.BoardInit)
    i.CDC_ACM_UART_to_USB                    0x080003e4   Section        0  usbd_user_cdc_acm.o(i.CDC_ACM_UART_to_USB)
    i.DAP_Connect                            0x08000464   Section        0  dap.o(i.DAP_Connect)
    DAP_Connect                              0x08000465   Thumb Code    54  dap.o(i.DAP_Connect)
    i.DAP_Delay                              0x080004a4   Section        0  dap.o(i.DAP_Delay)
    DAP_Delay                                0x080004a5   Thumb Code    40  dap.o(i.DAP_Delay)
    i.DAP_Disconnect                         0x080004d0   Section        0  dap.o(i.DAP_Disconnect)
    DAP_Disconnect                           0x080004d1   Thumb Code    30  dap.o(i.DAP_Disconnect)
    i.DAP_Dummy_Transfer                     0x080004f8   Section        0  dap.o(i.DAP_Dummy_Transfer)
    DAP_Dummy_Transfer                       0x080004f9   Thumb Code    56  dap.o(i.DAP_Dummy_Transfer)
    i.DAP_HostStatus                         0x08000530   Section        0  dap.o(i.DAP_HostStatus)
    DAP_HostStatus                           0x08000531   Thumb Code    66  dap.o(i.DAP_HostStatus)
    i.DAP_Info                               0x0800057c   Section        0  dap.o(i.DAP_Info)
    DAP_Info                                 0x0800057d   Thumb Code   132  dap.o(i.DAP_Info)
    i.DAP_JTAG_Configure                     0x08000608   Section        0  dap.o(i.DAP_JTAG_Configure)
    DAP_JTAG_Configure                       0x08000609   Thumb Code    16  dap.o(i.DAP_JTAG_Configure)
    i.DAP_JTAG_IDCode                        0x08000618   Section        0  dap.o(i.DAP_JTAG_IDCode)
    DAP_JTAG_IDCode                          0x08000619   Thumb Code    12  dap.o(i.DAP_JTAG_IDCode)
    i.DAP_JTAG_Sequence                      0x08000624   Section        0  dap.o(i.DAP_JTAG_Sequence)
    DAP_JTAG_Sequence                        0x08000625   Thumb Code    58  dap.o(i.DAP_JTAG_Sequence)
    i.DAP_ProcessCommand                     0x0800065e   Section        0  dap.o(i.DAP_ProcessCommand)
    i.DAP_ProcessVendorCommand               0x0800079a   Section        0  dap.o(i.DAP_ProcessVendorCommand)
    i.DAP_ResetTarget                        0x080007a6   Section        0  dap.o(i.DAP_ResetTarget)
    DAP_ResetTarget                          0x080007a7   Thumb Code    16  dap.o(i.DAP_ResetTarget)
    i.DAP_SWD_Configure                      0x080007b8   Section        0  dap.o(i.DAP_SWD_Configure)
    DAP_SWD_Configure                        0x080007b9   Thumb Code    34  dap.o(i.DAP_SWD_Configure)
    i.DAP_SWD_Sequence                       0x080007e0   Section        0  dap.o(i.DAP_SWD_Sequence)
    DAP_SWD_Sequence                         0x080007e1   Thumb Code   148  dap.o(i.DAP_SWD_Sequence)
    i.DAP_SWD_Transfer                       0x08000878   Section        0  dap.o(i.DAP_SWD_Transfer)
    DAP_SWD_Transfer                         0x08000879   Thumb Code   918  dap.o(i.DAP_SWD_Transfer)
    i.DAP_SWD_TransferBlock                  0x08000c18   Section        0  dap.o(i.DAP_SWD_TransferBlock)
    DAP_SWD_TransferBlock                    0x08000c19   Thumb Code   368  dap.o(i.DAP_SWD_TransferBlock)
    i.DAP_SWD_WriteAbort                     0x08000d90   Section        0  dap.o(i.DAP_SWD_WriteAbort)
    DAP_SWD_WriteAbort                       0x08000d91   Thumb Code    44  dap.o(i.DAP_SWD_WriteAbort)
    i.DAP_SWJ_Clock                          0x08000dbc   Section        0  dap.o(i.DAP_SWJ_Clock)
    DAP_SWJ_Clock                            0x08000dbd   Thumb Code   108  dap.o(i.DAP_SWJ_Clock)
    i.DAP_SWJ_Pins                           0x08000e38   Section        0  dap.o(i.DAP_SWJ_Pins)
    DAP_SWJ_Pins                             0x08000e39   Thumb Code   330  dap.o(i.DAP_SWJ_Pins)
    i.DAP_SWJ_Sequence                       0x08000f90   Section        0  dap.o(i.DAP_SWJ_Sequence)
    DAP_SWJ_Sequence                         0x08000f91   Thumb Code    40  dap.o(i.DAP_SWJ_Sequence)
    i.DAP_Setup                              0x08000fb8   Section        0  dap.o(i.DAP_Setup)
    i.DAP_Transfer                           0x08000fec   Section        0  dap.o(i.DAP_Transfer)
    DAP_Transfer                             0x08000fed   Thumb Code    44  dap.o(i.DAP_Transfer)
    i.DAP_TransferBlock                      0x0800101c   Section        0  dap.o(i.DAP_TransferBlock)
    DAP_TransferBlock                        0x0800101d   Thumb Code    76  dap.o(i.DAP_TransferBlock)
    i.DAP_TransferConfigure                  0x0800106c   Section        0  dap.o(i.DAP_TransferConfigure)
    DAP_TransferConfigure                    0x0800106d   Thumb Code    40  dap.o(i.DAP_TransferConfigure)
    i.DAP_WriteAbort                         0x0800109c   Section        0  dap.o(i.DAP_WriteAbort)
    DAP_WriteAbort                           0x0800109d   Thumb Code    42  dap.o(i.DAP_WriteAbort)
    i.DMA1_Channel1_Event                    0x080010cc   Section        0  dma_stm32f10x.o(i.DMA1_Channel1_Event)
    i.DMA1_Channel1_IRQHandler               0x080010d0   Section        0  dma_stm32f10x.o(i.DMA1_Channel1_IRQHandler)
    i.DMA1_Channel2_Event                    0x080010ec   Section        0  dma_stm32f10x.o(i.DMA1_Channel2_Event)
    i.DMA1_Channel2_IRQHandler               0x080010f0   Section        0  dma_stm32f10x.o(i.DMA1_Channel2_IRQHandler)
    i.DMA1_Channel3_Event                    0x0800110c   Section        0  dma_stm32f10x.o(i.DMA1_Channel3_Event)
    i.DMA1_Channel3_IRQHandler               0x08001110   Section        0  dma_stm32f10x.o(i.DMA1_Channel3_IRQHandler)
    i.DMA1_Channel4_Event                    0x0800112c   Section        0  usart_stm32f10x.o(i.DMA1_Channel4_Event)
    i.DMA1_Channel4_IRQHandler               0x0800113c   Section        0  dma_stm32f10x.o(i.DMA1_Channel4_IRQHandler)
    i.DMA1_Channel5_Event                    0x08001158   Section        0  usart_stm32f10x.o(i.DMA1_Channel5_Event)
    i.DMA1_Channel5_IRQHandler               0x08001168   Section        0  dma_stm32f10x.o(i.DMA1_Channel5_IRQHandler)
    i.DMA1_Channel6_Event                    0x08001184   Section        0  usart_stm32f10x.o(i.DMA1_Channel6_Event)
    i.DMA1_Channel6_IRQHandler               0x08001194   Section        0  dma_stm32f10x.o(i.DMA1_Channel6_IRQHandler)
    i.DMA1_Channel7_Event                    0x080011b0   Section        0  usart_stm32f10x.o(i.DMA1_Channel7_Event)
    i.DMA1_Channel7_IRQHandler               0x080011c0   Section        0  dma_stm32f10x.o(i.DMA1_Channel7_IRQHandler)
    i.DMA_ChannelInitialize                  0x080011dc   Section        0  dma_stm32f10x.o(i.DMA_ChannelInitialize)
    i.DMA_ChannelUninitialize                0x080012dc   Section        0  dma_stm32f10x.o(i.DMA_ChannelUninitialize)
    i.Delayms                                0x08001398   Section        0  dap.o(i.Delayms)
    i.EP_Reset                               0x080013b0   Section        0  usbd_stm32f103.o(i.EP_Reset)
    i.EP_Status                              0x080013f0   Section        0  usbd_stm32f103.o(i.EP_Status)
    i.FLASH_ErasePage                        0x0800143c   Section        0  stm32f10x_flash.o(i.FLASH_ErasePage)
    i.FLASH_GetBank1Status                   0x08001488   Section        0  stm32f10x_flash.o(i.FLASH_GetBank1Status)
    i.FLASH_Lock                             0x080014bc   Section        0  stm32f10x_flash.o(i.FLASH_Lock)
    i.FLASH_ProgramHalfWord                  0x080014d0   Section        0  stm32f10x_flash.o(i.FLASH_ProgramHalfWord)
    i.FLASH_Unlock                           0x08001510   Section        0  stm32f10x_flash.o(i.FLASH_Unlock)
    i.FLASH_WaitForLastOperation             0x08001528   Section        0  stm32f10x_flash.o(i.FLASH_WaitForLastOperation)
    i.GPIO_AFConfigure                       0x08001550   Section        0  gpio_stm32f10x.o(i.GPIO_AFConfigure)
    i.GPIO_GetPortClockState                 0x080015ec   Section        0  gpio_stm32f10x.o(i.GPIO_GetPortClockState)
    i.GPIO_Init                              0x08001684   Section        0  stm32f10x_gpio.o(i.GPIO_Init)
    i.GPIO_PinConfigure                      0x0800179a   Section        0  gpio_stm32f10x.o(i.GPIO_PinConfigure)
    i.GPIO_PortClock                         0x08001814   Section        0  gpio_stm32f10x.o(i.GPIO_PortClock)
    i.HID_ProcessCommand                     0x08001950   Section        0  usbd_user_hid.o(i.HID_ProcessCommand)
    i.HardFault_Handler                      0x08001ae8   Section        0  main.o(i.HardFault_Handler)
    i.LEDS_SETUP                             0x08001b58   Section        0  main.o(i.LEDS_SETUP)
    i.LedConnectedOff                        0x08001bac   Section        0  main.o(i.LedConnectedOff)
    i.LedConnectedOn                         0x08001bbc   Section        0  main.o(i.LedConnectedOn)
    i.LedConnectedOut                        0x08001bcc   Section        0  main.o(i.LedConnectedOut)
    i.LedRunningOff                          0x08001bf8   Section        0  main.o(i.LedRunningOff)
    i.LedRunningOn                           0x08001c08   Section        0  main.o(i.LedRunningOn)
    i.LedRunningOut                          0x08001c18   Section        0  main.o(i.LedRunningOut)
    i.PIN_SWCLK_TCK_CLR                      0x08001c64   Section        0  main.o(i.PIN_SWCLK_TCK_CLR)
    PIN_SWCLK_TCK_CLR                        0x08001c65   Thumb Code    10  main.o(i.PIN_SWCLK_TCK_CLR)
    i.PIN_SWCLK_TCK_CLR                      0x08001c74   Section        0  sw_dp.o(i.PIN_SWCLK_TCK_CLR)
    PIN_SWCLK_TCK_CLR                        0x08001c75   Thumb Code    10  sw_dp.o(i.PIN_SWCLK_TCK_CLR)
    i.PIN_SWCLK_TCK_IN                       0x08001c84   Section        0  dap.o(i.PIN_SWCLK_TCK_IN)
    PIN_SWCLK_TCK_IN                         0x08001c85   Thumb Code    10  dap.o(i.PIN_SWCLK_TCK_IN)
    i.PIN_SWCLK_TCK_SET                      0x08001c94   Section        0  main.o(i.PIN_SWCLK_TCK_SET)
    PIN_SWCLK_TCK_SET                        0x08001c95   Thumb Code    10  main.o(i.PIN_SWCLK_TCK_SET)
    i.PIN_SWCLK_TCK_SET                      0x08001ca4   Section        0  sw_dp.o(i.PIN_SWCLK_TCK_SET)
    PIN_SWCLK_TCK_SET                        0x08001ca5   Thumb Code    10  sw_dp.o(i.PIN_SWCLK_TCK_SET)
    i.PIN_SWDIO_IN                           0x08001cb4   Section        0  main.o(i.PIN_SWDIO_IN)
    PIN_SWDIO_IN                             0x08001cb5   Thumb Code    18  main.o(i.PIN_SWDIO_IN)
    i.PIN_SWDIO_IN                           0x08001ccc   Section        0  sw_dp.o(i.PIN_SWDIO_IN)
    PIN_SWDIO_IN                             0x08001ccd   Thumb Code    18  sw_dp.o(i.PIN_SWDIO_IN)
    i.PIN_SWDIO_OUT                          0x08001ce4   Section        0  main.o(i.PIN_SWDIO_OUT)
    PIN_SWDIO_OUT                            0x08001ce5   Thumb Code    28  main.o(i.PIN_SWDIO_OUT)
    i.PIN_SWDIO_OUT                          0x08001d04   Section        0  sw_dp.o(i.PIN_SWDIO_OUT)
    PIN_SWDIO_OUT                            0x08001d05   Thumb Code    28  sw_dp.o(i.PIN_SWDIO_OUT)
    i.PIN_SWDIO_OUT_DISABLE                  0x08001d24   Section        0  sw_dp.o(i.PIN_SWDIO_OUT_DISABLE)
    PIN_SWDIO_OUT_DISABLE                    0x08001d25   Thumb Code    30  sw_dp.o(i.PIN_SWDIO_OUT_DISABLE)
    i.PIN_SWDIO_OUT_ENABLE                   0x08001d48   Section        0  main.o(i.PIN_SWDIO_OUT_ENABLE)
    PIN_SWDIO_OUT_ENABLE                     0x08001d49   Thumb Code    30  main.o(i.PIN_SWDIO_OUT_ENABLE)
    i.PIN_SWDIO_OUT_ENABLE                   0x08001d6c   Section        0  dap.o(i.PIN_SWDIO_OUT_ENABLE)
    PIN_SWDIO_OUT_ENABLE                     0x08001d6d   Thumb Code    30  dap.o(i.PIN_SWDIO_OUT_ENABLE)
    i.PIN_SWDIO_OUT_ENABLE                   0x08001d90   Section        0  sw_dp.o(i.PIN_SWDIO_OUT_ENABLE)
    PIN_SWDIO_OUT_ENABLE                     0x08001d91   Thumb Code    30  sw_dp.o(i.PIN_SWDIO_OUT_ENABLE)
    i.PIN_SWDIO_TMS_IN                       0x08001db4   Section        0  dap.o(i.PIN_SWDIO_TMS_IN)
    PIN_SWDIO_TMS_IN                         0x08001db5   Thumb Code    10  dap.o(i.PIN_SWDIO_TMS_IN)
    i.PORT_OFF                               0x08001dc4   Section        0  main.o(i.PORT_OFF)
    i.PORT_SWD_SETUP                         0x08001de8   Section        0  main.o(i.PORT_SWD_SETUP)
    i.PORT_USB_CONNECT_SETUP                 0x08001e28   Section        0  main.o(i.PORT_USB_CONNECT_SETUP)
    i.RST_Transfer                           0x08001e2c   Section        0  main.o(i.RST_Transfer)
    i.SWD_Sequence                           0x08002164   Section        0  sw_dp.o(i.SWD_Sequence)
    i.SWD_Transfer                           0x08002220   Section        0  sw_dp.o(i.SWD_Transfer)
    i.SWD_TransferFast                       0x08002244   Section        0  sw_dp.o(i.SWD_TransferFast)
    SWD_TransferFast                         0x08002245   Thumb Code   832  sw_dp.o(i.SWD_TransferFast)
    i.SWD_TransferSlow                       0x08002590   Section        0  sw_dp.o(i.SWD_TransferSlow)
    SWD_TransferSlow                         0x08002591   Thumb Code  1384  sw_dp.o(i.SWD_TransferSlow)
    i.SWJ_Sequence                           0x08002b04   Section        0  sw_dp.o(i.SWJ_Sequence)
    i.SetSysClock                            0x08002b80   Section        0  system_stm32f10x.o(i.SetSysClock)
    SetSysClock                              0x08002b81   Thumb Code     8  system_stm32f10x.o(i.SetSysClock)
    i.SetSysClockTo72                        0x08002b88   Section        0  system_stm32f10x.o(i.SetSysClockTo72)
    SetSysClockTo72                          0x08002b89   Thumb Code   214  system_stm32f10x.o(i.SetSysClockTo72)
    i.SysTick_CLKSourceConfig                0x08002c68   Section        0  misc.o(i.SysTick_CLKSourceConfig)
    i.SysTick_Handler                        0x08002c90   Section        0  main.o(i.SysTick_Handler)
    i.SysTick_Init                           0x08002d04   Section        0  main.o(i.SysTick_Init)
    i.SystemCoreClockUpdate                  0x08002d70   Section        0  system_stm32f10x.o(i.SystemCoreClockUpdate)
    i.SystemInit                             0x08002e14   Section        0  system_stm32f10x.o(i.SystemInit)
    i.UART_Callback                          0x08002e74   Section        0  usbd_user_cdc_acm.o(i.UART_Callback)
    UART_Callback                            0x08002e75   Thumb Code    80  usbd_user_cdc_acm.o(i.UART_Callback)
    i.USART1_Control                         0x08002ed8   Section        0  usart_stm32f10x.o(i.USART1_Control)
    USART1_Control                           0x08002ed9   Thumb Code    18  usart_stm32f10x.o(i.USART1_Control)
    i.USART1_GetCapabilities                 0x08002ef0   Section        0  usart_stm32f10x.o(i.USART1_GetCapabilities)
    USART1_GetCapabilities                   0x08002ef1   Thumb Code    12  usart_stm32f10x.o(i.USART1_GetCapabilities)
    i.USART1_GetModemStatus                  0x08002f00   Section        0  usart_stm32f10x.o(i.USART1_GetModemStatus)
    USART1_GetModemStatus                    0x08002f01   Thumb Code    12  usart_stm32f10x.o(i.USART1_GetModemStatus)
    i.USART1_GetRxCount                      0x08002f10   Section        0  usart_stm32f10x.o(i.USART1_GetRxCount)
    USART1_GetRxCount                        0x08002f11   Thumb Code    10  usart_stm32f10x.o(i.USART1_GetRxCount)
    i.USART1_GetStatus                       0x08002f20   Section        0  usart_stm32f10x.o(i.USART1_GetStatus)
    USART1_GetStatus                         0x08002f21   Thumb Code    12  usart_stm32f10x.o(i.USART1_GetStatus)
    i.USART1_GetTxCount                      0x08002f30   Section        0  usart_stm32f10x.o(i.USART1_GetTxCount)
    USART1_GetTxCount                        0x08002f31   Thumb Code    10  usart_stm32f10x.o(i.USART1_GetTxCount)
    i.USART1_IRQHandler                      0x08002f40   Section        0  usart_stm32f10x.o(i.USART1_IRQHandler)
    i.USART1_Initialize                      0x08002f50   Section        0  usart_stm32f10x.o(i.USART1_Initialize)
    USART1_Initialize                        0x08002f51   Thumb Code    14  usart_stm32f10x.o(i.USART1_Initialize)
    i.USART1_PowerControl                    0x08002f64   Section        0  usart_stm32f10x.o(i.USART1_PowerControl)
    USART1_PowerControl                      0x08002f65   Thumb Code    14  usart_stm32f10x.o(i.USART1_PowerControl)
    i.USART1_Receive                         0x08002f78   Section        0  usart_stm32f10x.o(i.USART1_Receive)
    USART1_Receive                           0x08002f79   Thumb Code    18  usart_stm32f10x.o(i.USART1_Receive)
    i.USART1_Send                            0x08002f90   Section        0  usart_stm32f10x.o(i.USART1_Send)
    USART1_Send                              0x08002f91   Thumb Code    18  usart_stm32f10x.o(i.USART1_Send)
    i.USART1_SetModemControl                 0x08002fa8   Section        0  usart_stm32f10x.o(i.USART1_SetModemControl)
    USART1_SetModemControl                   0x08002fa9   Thumb Code    14  usart_stm32f10x.o(i.USART1_SetModemControl)
    i.USART1_Transfer                        0x08002fbc   Section        0  usart_stm32f10x.o(i.USART1_Transfer)
    USART1_Transfer                          0x08002fbd   Thumb Code    22  usart_stm32f10x.o(i.USART1_Transfer)
    i.USART1_Uninitialize                    0x08002fd8   Section        0  usart_stm32f10x.o(i.USART1_Uninitialize)
    USART1_Uninitialize                      0x08002fd9   Thumb Code    10  usart_stm32f10x.o(i.USART1_Uninitialize)
    i.USART2_Control                         0x08002fe8   Section        0  usart_stm32f10x.o(i.USART2_Control)
    USART2_Control                           0x08002fe9   Thumb Code    18  usart_stm32f10x.o(i.USART2_Control)
    i.USART2_GetCapabilities                 0x08003000   Section        0  usart_stm32f10x.o(i.USART2_GetCapabilities)
    USART2_GetCapabilities                   0x08003001   Thumb Code    12  usart_stm32f10x.o(i.USART2_GetCapabilities)
    i.USART2_GetModemStatus                  0x08003010   Section        0  usart_stm32f10x.o(i.USART2_GetModemStatus)
    USART2_GetModemStatus                    0x08003011   Thumb Code    12  usart_stm32f10x.o(i.USART2_GetModemStatus)
    i.USART2_GetRxCount                      0x08003020   Section        0  usart_stm32f10x.o(i.USART2_GetRxCount)
    USART2_GetRxCount                        0x08003021   Thumb Code    10  usart_stm32f10x.o(i.USART2_GetRxCount)
    i.USART2_GetStatus                       0x08003030   Section        0  usart_stm32f10x.o(i.USART2_GetStatus)
    USART2_GetStatus                         0x08003031   Thumb Code    12  usart_stm32f10x.o(i.USART2_GetStatus)
    i.USART2_GetTxCount                      0x08003040   Section        0  usart_stm32f10x.o(i.USART2_GetTxCount)
    USART2_GetTxCount                        0x08003041   Thumb Code    10  usart_stm32f10x.o(i.USART2_GetTxCount)
    i.USART2_IRQHandler                      0x08003050   Section        0  usart_stm32f10x.o(i.USART2_IRQHandler)
    i.USART2_Initialize                      0x08003060   Section        0  usart_stm32f10x.o(i.USART2_Initialize)
    USART2_Initialize                        0x08003061   Thumb Code    14  usart_stm32f10x.o(i.USART2_Initialize)
    i.USART2_PowerControl                    0x08003074   Section        0  usart_stm32f10x.o(i.USART2_PowerControl)
    USART2_PowerControl                      0x08003075   Thumb Code    14  usart_stm32f10x.o(i.USART2_PowerControl)
    i.USART2_Receive                         0x08003088   Section        0  usart_stm32f10x.o(i.USART2_Receive)
    USART2_Receive                           0x08003089   Thumb Code    18  usart_stm32f10x.o(i.USART2_Receive)
    i.USART2_Send                            0x080030a0   Section        0  usart_stm32f10x.o(i.USART2_Send)
    USART2_Send                              0x080030a1   Thumb Code    18  usart_stm32f10x.o(i.USART2_Send)
    i.USART2_SetModemControl                 0x080030b8   Section        0  usart_stm32f10x.o(i.USART2_SetModemControl)
    USART2_SetModemControl                   0x080030b9   Thumb Code    14  usart_stm32f10x.o(i.USART2_SetModemControl)
    i.USART2_Transfer                        0x080030cc   Section        0  usart_stm32f10x.o(i.USART2_Transfer)
    USART2_Transfer                          0x080030cd   Thumb Code    22  usart_stm32f10x.o(i.USART2_Transfer)
    i.USART2_Uninitialize                    0x080030e8   Section        0  usart_stm32f10x.o(i.USART2_Uninitialize)
    USART2_Uninitialize                      0x080030e9   Thumb Code    10  usart_stm32f10x.o(i.USART2_Uninitialize)
    i.USART_Cmd                              0x080030f8   Section        0  stm32f10x_usart.o(i.USART_Cmd)
    i.USART_Control                          0x08003110   Section        0  usart_stm32f10x.o(i.USART_Control)
    USART_Control                            0x08003111   Thumb Code  2080  usart_stm32f10x.o(i.USART_Control)
    i.USART_GetCapabilities                  0x08003930   Section        0  usart_stm32f10x.o(i.USART_GetCapabilities)
    USART_GetCapabilities                    0x08003931   Thumb Code     6  usart_stm32f10x.o(i.USART_GetCapabilities)
    i.USART_GetModemStatus                   0x08003936   Section        0  usart_stm32f10x.o(i.USART_GetModemStatus)
    USART_GetModemStatus                     0x08003937   Thumb Code    86  usart_stm32f10x.o(i.USART_GetModemStatus)
    i.USART_GetRxCount                       0x0800398c   Section        0  usart_stm32f10x.o(i.USART_GetRxCount)
    USART_GetRxCount                         0x0800398d   Thumb Code    26  usart_stm32f10x.o(i.USART_GetRxCount)
    i.USART_GetStatus                        0x080039a6   Section        0  usart_stm32f10x.o(i.USART_GetStatus)
    USART_GetStatus                          0x080039a7   Thumb Code   118  usart_stm32f10x.o(i.USART_GetStatus)
    i.USART_GetTxCount                       0x08003a1c   Section        0  usart_stm32f10x.o(i.USART_GetTxCount)
    USART_GetTxCount                         0x08003a1d   Thumb Code    26  usart_stm32f10x.o(i.USART_GetTxCount)
    i.USART_IRQHandler                       0x08003a36   Section        0  usart_stm32f10x.o(i.USART_IRQHandler)
    i.USART_Initialize                       0x08003ca6   Section        0  usart_stm32f10x.o(i.USART_Initialize)
    USART_Initialize                         0x08003ca7   Thumb Code   162  usart_stm32f10x.o(i.USART_Initialize)
    i.USART_PeripheralReset                  0x08003d48   Section        0  usart_stm32f10x.o(i.USART_PeripheralReset)
    USART_PeripheralReset                    0x08003d49   Thumb Code    82  usart_stm32f10x.o(i.USART_PeripheralReset)
    i.USART_PowerControl                     0x08003da8   Section        0  usart_stm32f10x.o(i.USART_PowerControl)
    USART_PowerControl                       0x08003da9   Thumb Code   440  usart_stm32f10x.o(i.USART_PowerControl)
    i.USART_RX_DMA_Complete                  0x08003f74   Section        0  usart_stm32f10x.o(i.USART_RX_DMA_Complete)
    i.USART_Receive                          0x08003ff6   Section        0  usart_stm32f10x.o(i.USART_Receive)
    USART_Receive                            0x08003ff7   Thumb Code   290  usart_stm32f10x.o(i.USART_Receive)
    i.USART_Send                             0x08004118   Section        0  usart_stm32f10x.o(i.USART_Send)
    USART_Send                               0x08004119   Thumb Code   246  usart_stm32f10x.o(i.USART_Send)
    i.USART_SetModemControl                  0x0800420e   Section        0  usart_stm32f10x.o(i.USART_SetModemControl)
    USART_SetModemControl                    0x0800420f   Thumb Code   156  usart_stm32f10x.o(i.USART_SetModemControl)
    i.USART_TX_DMA_Complete                  0x080042aa   Section        0  usart_stm32f10x.o(i.USART_TX_DMA_Complete)
    i.USART_Transfer                         0x080042f4   Section        0  usart_stm32f10x.o(i.USART_Transfer)
    USART_Transfer                           0x080042f5   Thumb Code   106  usart_stm32f10x.o(i.USART_Transfer)
    i.USART_Uninitialize                     0x0800435e   Section        0  usart_stm32f10x.o(i.USART_Uninitialize)
    USART_Uninitialize                       0x0800435f   Thumb Code   108  usart_stm32f10x.o(i.USART_Uninitialize)
    i.USARTx_GetVersion                      0x080043cc   Section        0  usart_stm32f10x.o(i.USARTx_GetVersion)
    USARTx_GetVersion                        0x080043cd   Thumb Code    10  usart_stm32f10x.o(i.USARTx_GetVersion)
    i.USBD_CDC_ACM_ClearCommFeature          0x080043dc   Section        0  usbd_cdc_acm.o(i.USBD_CDC_ACM_ClearCommFeature)
    i.USBD_CDC_ACM_DataRead                  0x080043e0   Section        0  usbd_cdc_acm.o(i.USBD_CDC_ACM_DataRead)
    i.USBD_CDC_ACM_DataReceived              0x08004414   Section        0  usbd_user_cdc_acm.o(i.USBD_CDC_ACM_DataReceived)
    i.USBD_CDC_ACM_DataSend                  0x0800444c   Section        0  usbd_cdc_acm.o(i.USBD_CDC_ACM_DataSend)
    i.USBD_CDC_ACM_EP_BULKIN_Event           0x080044c4   Section        0  usbd_cdc_acm.o(i.USBD_CDC_ACM_EP_BULKIN_Event)
    i.USBD_CDC_ACM_EP_BULKIN_HandleData      0x080044e0   Section        0  usbd_cdc_acm.o(i.USBD_CDC_ACM_EP_BULKIN_HandleData)
    USBD_CDC_ACM_EP_BULKIN_HandleData        0x080044e1   Thumb Code   144  usbd_cdc_acm.o(i.USBD_CDC_ACM_EP_BULKIN_HandleData)
    i.USBD_CDC_ACM_EP_BULKOUT_Event          0x08004588   Section        0  usbd_cdc_acm.o(i.USBD_CDC_ACM_EP_BULKOUT_Event)
    i.USBD_CDC_ACM_EP_BULKOUT_HandleData     0x080045bc   Section        0  usbd_cdc_acm.o(i.USBD_CDC_ACM_EP_BULKOUT_HandleData)
    USBD_CDC_ACM_EP_BULKOUT_HandleData       0x080045bd   Thumb Code    78  usbd_cdc_acm.o(i.USBD_CDC_ACM_EP_BULKOUT_HandleData)
    i.USBD_CDC_ACM_EP_BULK_Event             0x08004624   Section        0  usbd_cdc_acm.o(i.USBD_CDC_ACM_EP_BULK_Event)
    i.USBD_CDC_ACM_EP_INTIN_Event            0x08004642   Section        0  usbd_cdc_acm.o(i.USBD_CDC_ACM_EP_INTIN_Event)
    i.USBD_CDC_ACM_GetCommFeature            0x08004644   Section        0  usbd_cdc_acm.o(i.USBD_CDC_ACM_GetCommFeature)
    i.USBD_CDC_ACM_GetEncapsulatedResponse   0x08004648   Section        0  usbd_cdc_acm.o(i.USBD_CDC_ACM_GetEncapsulatedResponse)
    i.USBD_CDC_ACM_GetLineCoding             0x0800464c   Section        0  usbd_cdc_acm.o(i.USBD_CDC_ACM_GetLineCoding)
    i.USBD_CDC_ACM_Initialize                0x08004684   Section        0  usbd_cdc_acm.o(i.USBD_CDC_ACM_Initialize)
    i.USBD_CDC_ACM_PortGetLineCoding         0x0800468c   Section        0  usbd_user_cdc_acm.o(i.USBD_CDC_ACM_PortGetLineCoding)
    i.USBD_CDC_ACM_PortInitialize            0x080046a4   Section        0  usbd_user_cdc_acm.o(i.USBD_CDC_ACM_PortInitialize)
    i.USBD_CDC_ACM_PortReset                 0x080046c4   Section        0  usbd_user_cdc_acm.o(i.USBD_CDC_ACM_PortReset)
    i.USBD_CDC_ACM_PortSetControlLineState   0x080046e4   Section        0  usbd_user_cdc_acm.o(i.USBD_CDC_ACM_PortSetControlLineState)
    i.USBD_CDC_ACM_PortSetLineCoding         0x080046ec   Section        0  usbd_user_cdc_acm.o(i.USBD_CDC_ACM_PortSetLineCoding)
    i.USBD_CDC_ACM_Reset                     0x08004804   Section        0  usbd_cdc_acm.o(i.USBD_CDC_ACM_Reset)
    i.USBD_CDC_ACM_Reset_Event               0x08004854   Section        0  usbd_cdc_acm.o(i.USBD_CDC_ACM_Reset_Event)
    i.USBD_CDC_ACM_SOF_Event                 0x0800485c   Section        0  usbd_cdc_acm.o(i.USBD_CDC_ACM_SOF_Event)
    i.USBD_CDC_ACM_SendBreak                 0x080048c4   Section        0  usbd_cdc_acm.o(i.USBD_CDC_ACM_SendBreak)
    i.USBD_CDC_ACM_SendEncapsulatedCommand   0x080048c8   Section        0  usbd_cdc_acm.o(i.USBD_CDC_ACM_SendEncapsulatedCommand)
    i.USBD_CDC_ACM_SetCommFeature            0x080048cc   Section        0  usbd_cdc_acm.o(i.USBD_CDC_ACM_SetCommFeature)
    i.USBD_CDC_ACM_SetControlLineState       0x080048d0   Section        0  usbd_cdc_acm.o(i.USBD_CDC_ACM_SetControlLineState)
    i.USBD_CDC_ACM_SetLineCoding             0x080048e0   Section        0  usbd_cdc_acm.o(i.USBD_CDC_ACM_SetLineCoding)
    i.USBD_ClrStallEP                        0x0800490c   Section        0  usbd_stm32f103.o(i.USBD_ClrStallEP)
    i.USBD_ConfigEP                          0x08004924   Section        0  usbd_stm32f103.o(i.USBD_ConfigEP)
    i.USBD_Configure                         0x080049ec   Section        0  usbd_stm32f103.o(i.USBD_Configure)
    i.USBD_Configure_Event                   0x08004a04   Section        0  usb_config.o(i.USBD_Configure_Event)
    i.USBD_Connect                           0x08004a08   Section        0  usbd_stm32f103.o(i.USBD_Connect)
    i.USBD_DataInStage                       0x08004a30   Section        0  usbd_core.o(i.USBD_DataInStage)
    i.USBD_DataOutStage                      0x08004a68   Section        0  usbd_core.o(i.USBD_DataOutStage)
    i.USBD_DirCtrlEP                         0x08004a88   Section        0  usbd_stm32f103.o(i.USBD_DirCtrlEP)
    i.USBD_DisableEP                         0x08004a8a   Section        0  usbd_stm32f103.o(i.USBD_DisableEP)
    i.USBD_EnableEP                          0x08004a98   Section        0  usbd_stm32f103.o(i.USBD_EnableEP)
    i.USBD_EndPoint0                         0x08004aa8   Section        0  usbd_core.o(i.USBD_EndPoint0)
    i.USBD_EndPoint0_Out_ADC_ReqToEP         0x08004d0c   Section        0  usb_config.o(i.USBD_EndPoint0_Out_ADC_ReqToEP)
    i.USBD_EndPoint0_Out_ADC_ReqToIF         0x08004d10   Section        0  usb_config.o(i.USBD_EndPoint0_Out_ADC_ReqToIF)
    i.USBD_EndPoint0_Out_CDC_ReqToIF         0x08004d14   Section        0  usbd_core_cdc.o(i.USBD_EndPoint0_Out_CDC_ReqToIF)
    i.USBD_EndPoint0_Out_CLS_ReqToDEV        0x08004d64   Section        0  usb_config.o(i.USBD_EndPoint0_Out_CLS_ReqToDEV)
    i.USBD_EndPoint0_Out_CLS_ReqToEP         0x08004d68   Section        0  usb_config.o(i.USBD_EndPoint0_Out_CLS_ReqToEP)
    i.USBD_EndPoint0_Out_CLS_ReqToIF         0x08004d6c   Section        0  usb_config.o(i.USBD_EndPoint0_Out_CLS_ReqToIF)
    i.USBD_EndPoint0_Out_HID_ReqToIF         0x08004d70   Section        0  usbd_core_hid.o(i.USBD_EndPoint0_Out_HID_ReqToIF)
    i.USBD_EndPoint0_Setup_ADC_ReqToEP       0x08004da0   Section        0  usb_config.o(i.USBD_EndPoint0_Setup_ADC_ReqToEP)
    i.USBD_EndPoint0_Setup_ADC_ReqToIF       0x08004da4   Section        0  usb_config.o(i.USBD_EndPoint0_Setup_ADC_ReqToIF)
    i.USBD_EndPoint0_Setup_CDC_ReqToIF       0x08004da8   Section        0  usbd_core_cdc.o(i.USBD_EndPoint0_Setup_CDC_ReqToIF)
    i.USBD_EndPoint0_Setup_CLS_ReqToDEV      0x08004e48   Section        0  usb_config.o(i.USBD_EndPoint0_Setup_CLS_ReqToDEV)
    i.USBD_EndPoint0_Setup_CLS_ReqToEP       0x08004e4c   Section        0  usb_config.o(i.USBD_EndPoint0_Setup_CLS_ReqToEP)
    i.USBD_EndPoint0_Setup_CLS_ReqToIF       0x08004e50   Section        0  usb_config.o(i.USBD_EndPoint0_Setup_CLS_ReqToIF)
    i.USBD_EndPoint0_Setup_HID_ReqToIF       0x08004e54   Section        0  usbd_core_hid.o(i.USBD_EndPoint0_Setup_HID_ReqToIF)
    i.USBD_EndPoint0_Setup_MSC_ReqToIF       0x08004f00   Section        0  usb_config.o(i.USBD_EndPoint0_Setup_MSC_ReqToIF)
    i.USBD_HID_Configure_Event               0x08004f04   Section        0  usbd_hid.o(i.USBD_HID_Configure_Event)
    i.USBD_HID_EP_INTIN_Event                0x08004f2c   Section        0  usbd_hid.o(i.USBD_HID_EP_INTIN_Event)
    i.USBD_HID_EP_INTOUT_Event               0x08005090   Section        0  usbd_hid.o(i.USBD_HID_EP_INTOUT_Event)
    i.USBD_HID_EP_INT_Event                  0x08005114   Section        0  usbd_hid.o(i.USBD_HID_EP_INT_Event)
    i.USBD_HID_GetIdle                       0x08005134   Section        0  usbd_hid.o(i.USBD_HID_GetIdle)
    i.USBD_HID_GetProtocol                   0x08005150   Section        0  usbd_hid.o(i.USBD_HID_GetProtocol)
    i.USBD_HID_GetReport                     0x08005164   Section        0  usbd_hid.o(i.USBD_HID_GetReport)
    i.USBD_HID_SOF_Event                     0x080051a0   Section        0  usbd_hid.o(i.USBD_HID_SOF_Event)
    i.USBD_HID_SetIdle                       0x080052e8   Section        0  usbd_hid.o(i.USBD_HID_SetIdle)
    i.USBD_HID_SetProtocol                   0x08005324   Section        0  usbd_hid.o(i.USBD_HID_SetProtocol)
    i.USBD_HID_SetReport                     0x08005338   Section        0  usbd_hid.o(i.USBD_HID_SetReport)
    i.USBD_Init                              0x08005378   Section        0  usbd_stm32f103.o(i.USBD_Init)
    i.USBD_IntrEna                           0x08005394   Section        0  usbd_stm32f103.o(i.USBD_IntrEna)
    i.USBD_RTX_TaskInit                      0x080053ba   Section        0  usb_config.o(i.USBD_RTX_TaskInit)
    i.USBD_ReadEP                            0x080053bc   Section        0  usbd_stm32f103.o(i.USBD_ReadEP)
    i.USBD_ReqClrFeature_MSC                 0x0800541c   Section        0  usb_config.o(i.USBD_ReqClrFeature_MSC)
    i.USBD_ReqGetDescriptor                  0x08005420   Section        0  usbd_core.o(i.USBD_ReqGetDescriptor)
    i.USBD_ReqGetDescriptor_HID              0x08005550   Section        0  usbd_core_hid.o(i.USBD_ReqGetDescriptor_HID)
    i.USBD_ReqGetStatus                      0x080055d4   Section        0  usbd_core.o(i.USBD_ReqGetStatus)
    i.USBD_ReqSetClrFeature                  0x08005650   Section        0  usbd_core.o(i.USBD_ReqSetClrFeature)
    i.USBD_ReqSetConfiguration               0x080056fc   Section        0  usbd_core.o(i.USBD_ReqSetConfiguration)
    i.USBD_ReqSetInterface                   0x0800588c   Section        0  usbd_core.o(i.USBD_ReqSetInterface)
    i.USBD_Reset                             0x080059b8   Section        0  usbd_stm32f103.o(i.USBD_Reset)
    i.USBD_ResetEP                           0x08005a6c   Section        0  usbd_stm32f103.o(i.USBD_ResetEP)
    i.USBD_Reset_Event                       0x08005a78   Section        0  usb_config.o(i.USBD_Reset_Event)
    i.USBD_SOF_Event                         0x08005a7c   Section        0  usb_config.o(i.USBD_SOF_Event)
    i.USBD_SetAddress                        0x08005a8c   Section        0  usbd_stm32f103.o(i.USBD_SetAddress)
    i.USBD_SetStallEP                        0x08005aa0   Section        0  usbd_stm32f103.o(i.USBD_SetStallEP)
    i.USBD_SetupStage                        0x08005ab0   Section        0  usbd_core.o(i.USBD_SetupStage)
    i.USBD_StatusInStage                     0x08005abc   Section        0  usbd_core.o(i.USBD_StatusInStage)
    i.USBD_StatusOutStage                    0x08005ac8   Section        0  usbd_core.o(i.USBD_StatusOutStage)
    i.USBD_Suspend                           0x08005ad4   Section        0  usbd_stm32f103.o(i.USBD_Suspend)
    i.USBD_WakeUp                            0x08005af0   Section        0  usbd_stm32f103.o(i.USBD_WakeUp)
    i.USBD_WakeUpCfg                         0x08005b04   Section        0  usbd_stm32f103.o(i.USBD_WakeUpCfg)
    i.USBD_WriteEP                           0x08005b08   Section        0  usbd_stm32f103.o(i.USBD_WriteEP)
    i.USB_LP_CAN1_RX0_IRQHandler             0x08005b7c   Section        0  usbd_stm32f103.o(i.USB_LP_CAN1_RX0_IRQHandler)
    i.UserAppAbort                           0x08005ce0   Section        0  main.o(i.UserAppAbort)
    i.UserAppInit                            0x08005cec   Section        0  main.o(i.UserAppInit)
    i.__NVIC_ClearPendingIRQ                 0x08005d00   Section        0  dma_stm32f10x.o(i.__NVIC_ClearPendingIRQ)
    __NVIC_ClearPendingIRQ                   0x08005d01   Thumb Code    22  dma_stm32f10x.o(i.__NVIC_ClearPendingIRQ)
    i.__NVIC_DisableIRQ                      0x08005d1c   Section        0  dma_stm32f10x.o(i.__NVIC_DisableIRQ)
    __NVIC_DisableIRQ                        0x08005d1d   Thumb Code    30  dma_stm32f10x.o(i.__NVIC_DisableIRQ)
    i.__NVIC_EnableIRQ                       0x08005d40   Section        0  dma_stm32f10x.o(i.__NVIC_EnableIRQ)
    __NVIC_EnableIRQ                         0x08005d41   Thumb Code    34  dma_stm32f10x.o(i.__NVIC_EnableIRQ)
    i.main                                   0x08005d64   Section        0  main.o(i.main)
    i.usbd_class_init                        0x08005dec   Section        0  usb_config.o(i.usbd_class_init)
    i.usbd_configured                        0x08005dfc   Section        0  usbd_core.o(i.usbd_configured)
    i.usbd_connect                           0x08005e0c   Section        0  usbd_core.o(i.usbd_connect)
    i.usbd_hid_get_protocol                  0x08005e10   Section        0  usbd_hid.o(i.usbd_hid_get_protocol)
    i.usbd_hid_get_report                    0x08005e14   Section        0  usbd_user_hid.o(i.usbd_hid_get_report)
    i.usbd_hid_get_report_trigger            0x08005eb4   Section        0  usbd_hid.o(i.usbd_hid_get_report_trigger)
    i.usbd_hid_init                          0x08005f50   Section        0  usbd_user_hid.o(i.usbd_hid_init)
    i.usbd_hid_process                       0x08005f90   Section        0  usbd_user_hid.o(i.usbd_hid_process)
    i.usbd_hid_set_protocol                  0x0800604c   Section        0  usbd_hid.o(i.usbd_hid_set_protocol)
    i.usbd_hid_set_report                    0x08006050   Section        0  usbd_user_hid.o(i.usbd_hid_set_report)
    i.usbd_init                              0x080060f0   Section        0  usbd_core.o(i.usbd_init)
    i.usbd_os_evt_set                        0x0800610c   Section        0  usb_config.o(i.usbd_os_evt_set)
    i.usbd_reset_core                        0x08006110   Section        0  usbd_core.o(i.usbd_reset_core)
    i.vResetTarget                           0x08006134   Section        0  main.o(i.vResetTarget)
    .constdata                               0x08006188   Section       48  main.o(.constdata)
    .constdata                               0x080061b8   Section      502  usb_config.o(.constdata)
    .constdata                               0x080063ae   Section        6  dap.o(.constdata)
    DAP_FW_Ver                               0x080063ae   Data           6  dap.o(.constdata)
    .constdata                               0x080063b4   Section      292  usart_stm32f10x.o(.constdata)
    usart_driver_version                     0x080063b4   Data           4  usart_stm32f10x.o(.constdata)
    USART1_tx                                0x080063b8   Data           8  usart_stm32f10x.o(.constdata)
    USART1_rx                                0x080063c0   Data           8  usart_stm32f10x.o(.constdata)
    USART1_DMA_Tx                            0x080063c8   Data           8  usart_stm32f10x.o(.constdata)
    USART1_DMA_Rx                            0x080063d0   Data           8  usart_stm32f10x.o(.constdata)
    USART1_Resources                         0x080063d8   Data          56  usart_stm32f10x.o(.constdata)
    USART2_tx                                0x08006410   Data           8  usart_stm32f10x.o(.constdata)
    USART2_rx                                0x08006418   Data           8  usart_stm32f10x.o(.constdata)
    USART2_DMA_Tx                            0x08006420   Data           8  usart_stm32f10x.o(.constdata)
    USART2_DMA_Rx                            0x08006428   Data           8  usart_stm32f10x.o(.constdata)
    USART2_Resources                         0x08006430   Data          56  usart_stm32f10x.o(.constdata)
    .data                                    0x20000000   Section       12  main.o(.data)
    .data                                    0x2000000c   Section       11  usb_config.o(.data)
    .data                                    0x20000018   Section        6  usbd_stm32f103.o(.data)
    .data                                    0x20000020   Section       15  usbd_user_cdc_acm.o(.data)
    uart_rx_cnt                              0x20000020   Data           4  usbd_user_cdc_acm.o(.data)
    usb_tx_cnt                               0x20000024   Data           4  usbd_user_cdc_acm.o(.data)
    cdc_acm_line_coding                      0x20000028   Data           7  usbd_user_cdc_acm.o(.data)
    .data                                    0x20000030   Section       24  usbd_user_hid.o(.data)
    USB_RequestFlag                          0x20000030   Data           1  usbd_user_hid.o(.data)
    USB_RequestIn                            0x20000034   Data           4  usbd_user_hid.o(.data)
    USB_RequestOut                           0x20000038   Data           4  usbd_user_hid.o(.data)
    USB_ResponseIdle                         0x2000003c   Data           1  usbd_user_hid.o(.data)
    USB_ResponseFlag                         0x2000003d   Data           1  usbd_user_hid.o(.data)
    USB_ResponseIn                           0x20000040   Data           4  usbd_user_hid.o(.data)
    USB_ResponseOut                          0x20000044   Data           4  usbd_user_hid.o(.data)
    .data                                    0x20000048   Section        1  dap.o(.data)
    .data                                    0x20000049   Section        1  dma_stm32f10x.o(.data)
    DMA1_Channel                             0x20000049   Data           1  dma_stm32f10x.o(.data)
    .data                                    0x2000004c   Section       20  system_stm32f10x.o(.data)
    .data                                    0x20000060   Section       40  usbd_core.o(.data)
    .data                                    0x20000088   Section       63  usbd_cdc_acm.o(.data)
    .data                                    0x200000c8   Section       48  usbd_hid.o(.data)
    cnt_for_4ms                              0x200000c8   Data           1  usbd_hid.o(.data)
    .bss                                     0x200000f8   Section      332  usb_config.o(.bss)
    .bss                                     0x20000244   Section     2048  usbd_user_cdc_acm.o(.bss)
    uart_rx_buf                              0x20000244   Data        1024  usbd_user_cdc_acm.o(.bss)
    uart_tx_buf                              0x20000644   Data        1024  usbd_user_cdc_acm.o(.bss)
    .bss                                     0x20000a44   Section     4096  usbd_user_hid.o(.bss)
    USB_Request                              0x20000a44   Data        2048  usbd_user_hid.o(.bss)
    USB_Response                             0x20001244   Data        2048  usbd_user_hid.o(.bss)
    .bss                                     0x20001a44   Section       28  dap.o(.bss)
    .bss                                     0x20001a60   Section      112  usart_stm32f10x.o(.bss)
    USART1_Info                              0x20001a60   Data          20  usart_stm32f10x.o(.bss)
    USART1_TransferInfo                      0x20001a74   Data          36  usart_stm32f10x.o(.bss)
    USART2_Info                              0x20001a98   Data          20  usart_stm32f10x.o(.bss)
    USART2_TransferInfo                      0x20001aac   Data          36  usart_stm32f10x.o(.bss)
    .bss                                     0x20001ad0   Section       96  libspace.o(.bss)
    HEAP                                     0x20001b30   Section      512  startup_stm32f10x_ld.o(HEAP)
    Heap_Mem                                 0x20001b30   Data         512  startup_stm32f10x_ld.o(HEAP)
    STACK                                    0x20001d30   Section     1024  startup_stm32f10x_ld.o(STACK)
    Stack_Mem                                0x20001d30   Data        1024  startup_stm32f10x_ld.o(STACK)
    __initial_sp                             0x20002130   Data           0  startup_stm32f10x_ld.o(STACK)

    Global Symbols

    Symbol Name                              Value     Ov Type        Size  Object(Section)

    BuildAttributes$$THM_ISAv4$P$D$K$B$S$PE$A:L22UL41UL21$X:L11$S22US41US21$IEEE1$IW$~IW$USESV6$~STKCKD$USESV7$~SHL$OSPACE$ROPI$EBA8$UX$STANDARDLIB$REQ8$PRES8$EABIv2 0x00000000   Number         0  anon$$obj.o ABSOLUTE
    __ARM_use_no_argv                        0x00000000   Number         0  main.o ABSOLUTE
    USBD_EndPoint10                           - Undefined Weak Reference
    USBD_EndPoint11                           - Undefined Weak Reference
    USBD_EndPoint12                           - Undefined Weak Reference
    USBD_EndPoint13                           - Undefined Weak Reference
    USBD_EndPoint14                           - Undefined Weak Reference
    USBD_EndPoint15                           - Undefined Weak Reference
    USBD_EndPoint4                            - Undefined Weak Reference
    USBD_EndPoint5                            - Undefined Weak Reference
    USBD_EndPoint6                            - Undefined Weak Reference
    USBD_EndPoint7                            - Undefined Weak Reference
    USBD_EndPoint8                            - Undefined Weak Reference
    USBD_EndPoint9                            - Undefined Weak Reference
    USBD_Feature_Event                        - Undefined Weak Reference
    USBD_Interface_Event                      - Undefined Weak Reference
    USBD_Power_Event                          - Undefined Weak Reference
    USBD_Resume_Event                         - Undefined Weak Reference
    USBD_Suspend_Event                        - Undefined Weak Reference
    USBD_WakeUp_Event                         - Undefined Weak Reference
    __ARM_exceptions_init                     - Undefined Weak Reference
    __alloca_initialize                       - Undefined Weak Reference
    __arm_fini_                               - Undefined Weak Reference
    __arm_preinit_                            - Undefined Weak Reference
    __cpp_initialize__aeabi_                  - Undefined Weak Reference
    __cxa_finalize                            - Undefined Weak Reference
    __rt_locale                               - Undefined Weak Reference
    __sigvec_lookup                           - Undefined Weak Reference
    _atexit_init                              - Undefined Weak Reference
    _call_atexit_fns                          - Undefined Weak Reference
    _clock_init                               - Undefined Weak Reference
    _fp_trap_init                             - Undefined Weak Reference
    _fp_trap_shutdown                         - Undefined Weak Reference
    _get_lc_collate                           - Undefined Weak Reference
    _get_lc_ctype                             - Undefined Weak Reference
    _get_lc_monetary                          - Undefined Weak Reference
    _get_lc_numeric                           - Undefined Weak Reference
    _get_lc_time                              - Undefined Weak Reference
    _getenv_init                              - Undefined Weak Reference
    _handle_redirection                       - Undefined Weak Reference
    _init_alloc                               - Undefined Weak Reference
    _init_user_alloc                          - Undefined Weak Reference
    _initio                                   - Undefined Weak Reference
    _rand_init                                - Undefined Weak Reference
    _signal_finish                            - Undefined Weak Reference
    _signal_init                              - Undefined Weak Reference
    _terminate_alloc                          - Undefined Weak Reference
    _terminate_user_alloc                     - Undefined Weak Reference
    _terminateio                              - Undefined Weak Reference
    __Vectors_Size                           0x000000ec   Number         0  startup_stm32f10x_ld.o ABSOLUTE
    __RL_USBD_VER                            0x00000475   Number         0  usbd_core.o ABSOLUTE
    __Vectors                                0x08000000   Data           4  startup_stm32f10x_ld.o(RESET)
    __Vectors_End                            0x080000ec   Data           0  startup_stm32f10x_ld.o(RESET)
    __main                                   0x080000ed   Thumb Code     8  __main.o(!!!main)
    __scatterload                            0x080000f5   Thumb Code     0  __scatter.o(!!!scatter)
    __scatterload_rt2                        0x080000f5   Thumb Code    44  __scatter.o(!!!scatter)
    __scatterload_rt2_thumb_only             0x080000f5   Thumb Code     0  __scatter.o(!!!scatter)
    __scatterload_null                       0x08000103   Thumb Code     0  __scatter.o(!!!scatter)
    __scatterload_copy                       0x08000129   Thumb Code    26  __scatter_copy.o(!!handler_copy)
    __scatterload_zeroinit                   0x08000145   Thumb Code    28  __scatter_zi.o(!!handler_zi)
    __rt_lib_init                            0x08000161   Thumb Code     0  libinit.o(.ARM.Collect$$libinit$$00000000)
    __rt_lib_init_alloca_1                   0x08000163   Thumb Code     0  libinit2.o(.ARM.Collect$$libinit$$0000002E)
    __rt_lib_init_argv_1                     0x08000163   Thumb Code     0  libinit2.o(.ARM.Collect$$libinit$$0000002C)
    __rt_lib_init_atexit_1                   0x08000163   Thumb Code     0  libinit2.o(.ARM.Collect$$libinit$$0000001B)
    __rt_lib_init_clock_1                    0x08000163   Thumb Code     0  libinit2.o(.ARM.Collect$$libinit$$00000021)
    __rt_lib_init_cpp_1                      0x08000163   Thumb Code     0  libinit2.o(.ARM.Collect$$libinit$$00000032)
    __rt_lib_init_exceptions_1               0x08000163   Thumb Code     0  libinit2.o(.ARM.Collect$$libinit$$00000030)
    __rt_lib_init_fp_1                       0x08000163   Thumb Code     0  libinit2.o(.ARM.Collect$$libinit$$00000002)
    __rt_lib_init_fp_trap_1                  0x08000163   Thumb Code     0  libinit2.o(.ARM.Collect$$libinit$$0000001F)
    __rt_lib_init_getenv_1                   0x08000163   Thumb Code     0  libinit2.o(.ARM.Collect$$libinit$$00000023)
    __rt_lib_init_heap_1                     0x08000163   Thumb Code     0  libinit2.o(.ARM.Collect$$libinit$$0000000A)
    __rt_lib_init_lc_collate_1               0x08000163   Thumb Code     0  libinit2.o(.ARM.Collect$$libinit$$00000011)
    __rt_lib_init_lc_ctype_1                 0x08000163   Thumb Code     0  libinit2.o(.ARM.Collect$$libinit$$00000013)
    __rt_lib_init_lc_monetary_1              0x08000163   Thumb Code     0  libinit2.o(.ARM.Collect$$libinit$$00000015)
    __rt_lib_init_lc_numeric_1               0x08000163   Thumb Code     0  libinit2.o(.ARM.Collect$$libinit$$00000017)
    __rt_lib_init_lc_time_1                  0x08000163   Thumb Code     0  libinit2.o(.ARM.Collect$$libinit$$00000019)
    __rt_lib_init_preinit_1                  0x08000163   Thumb Code     0  libinit2.o(.ARM.Collect$$libinit$$00000004)
    __rt_lib_init_rand_1                     0x08000163   Thumb Code     0  libinit2.o(.ARM.Collect$$libinit$$0000000E)
    __rt_lib_init_return                     0x08000163   Thumb Code     0  libinit2.o(.ARM.Collect$$libinit$$00000033)
    __rt_lib_init_signal_1                   0x08000163   Thumb Code     0  libinit2.o(.ARM.Collect$$libinit$$0000001D)
    __rt_lib_init_stdio_1                    0x08000163   Thumb Code     0  libinit2.o(.ARM.Collect$$libinit$$00000025)
    __rt_lib_init_user_alloc_1               0x08000163   Thumb Code     0  libinit2.o(.ARM.Collect$$libinit$$0000000C)
    __rt_lib_shutdown                        0x08000165   Thumb Code     0  libshutdown.o(.ARM.Collect$$libshutdown$$00000000)
    __rt_lib_shutdown_cpp_1                  0x08000167   Thumb Code     0  libshutdown2.o(.ARM.Collect$$libshutdown$$00000004)
    __rt_lib_shutdown_fini_1                 0x08000167   Thumb Code     0  libshutdown2.o(.ARM.Collect$$libshutdown$$00000002)
    __rt_lib_shutdown_fp_trap_1              0x08000167   Thumb Code     0  libshutdown2.o(.ARM.Collect$$libshutdown$$00000009)
    __rt_lib_shutdown_heap_1                 0x08000167   Thumb Code     0  libshutdown2.o(.ARM.Collect$$libshutdown$$00000011)
    __rt_lib_shutdown_return                 0x08000167   Thumb Code     0  libshutdown2.o(.ARM.Collect$$libshutdown$$00000012)
    __rt_lib_shutdown_signal_1               0x08000167   Thumb Code     0  libshutdown2.o(.ARM.Collect$$libshutdown$$0000000C)
    __rt_lib_shutdown_stdio_1                0x08000167   Thumb Code     0  libshutdown2.o(.ARM.Collect$$libshutdown$$00000006)
    __rt_lib_shutdown_user_alloc_1           0x08000167   Thumb Code     0  libshutdown2.o(.ARM.Collect$$libshutdown$$0000000E)
    __rt_entry                               0x08000169   Thumb Code     0  __rtentry.o(.ARM.Collect$$rtentry$$00000000)
    __rt_entry_presh_1                       0x08000169   Thumb Code     0  __rtentry2.o(.ARM.Collect$$rtentry$$00000002)
    __rt_entry_sh                            0x08000169   Thumb Code     0  __rtentry4.o(.ARM.Collect$$rtentry$$00000004)
    __rt_entry_li                            0x0800016f   Thumb Code     0  __rtentry2.o(.ARM.Collect$$rtentry$$0000000A)
    __rt_entry_postsh_1                      0x0800016f   Thumb Code     0  __rtentry2.o(.ARM.Collect$$rtentry$$00000009)
    __rt_entry_main                          0x08000173   Thumb Code     0  __rtentry2.o(.ARM.Collect$$rtentry$$0000000D)
    __rt_entry_postli_1                      0x08000173   Thumb Code     0  __rtentry2.o(.ARM.Collect$$rtentry$$0000000C)
    __rt_exit                                0x0800017b   Thumb Code     0  rtexit.o(.ARM.Collect$$rtexit$$00000000)
    __rt_exit_ls                             0x0800017d   Thumb Code     0  rtexit2.o(.ARM.Collect$$rtexit$$00000003)
    __rt_exit_prels_1                        0x0800017d   Thumb Code     0  rtexit2.o(.ARM.Collect$$rtexit$$00000002)
    __rt_exit_exit                           0x08000181   Thumb Code     0  rtexit2.o(.ARM.Collect$$rtexit$$00000004)
    Reset_Handler                            0x08000189   Thumb Code     8  startup_stm32f10x_ld.o(.text)
    ADC1_2_IRQHandler                        0x080001a3   Thumb Code     0  startup_stm32f10x_ld.o(.text)
    CAN1_RX1_IRQHandler                      0x080001a3   Thumb Code     0  startup_stm32f10x_ld.o(.text)
    CAN1_SCE_IRQHandler                      0x080001a3   Thumb Code     0  startup_stm32f10x_ld.o(.text)
    EXTI0_IRQHandler                         0x080001a3   Thumb Code     0  startup_stm32f10x_ld.o(.text)
    EXTI15_10_IRQHandler                     0x080001a3   Thumb Code     0  startup_stm32f10x_ld.o(.text)
    EXTI1_IRQHandler                         0x080001a3   Thumb Code     0  startup_stm32f10x_ld.o(.text)
    EXTI2_IRQHandler                         0x080001a3   Thumb Code     0  startup_stm32f10x_ld.o(.text)
    EXTI3_IRQHandler                         0x080001a3   Thumb Code     0  startup_stm32f10x_ld.o(.text)
    EXTI4_IRQHandler                         0x080001a3   Thumb Code     0  startup_stm32f10x_ld.o(.text)
    EXTI9_5_IRQHandler                       0x080001a3   Thumb Code     0  startup_stm32f10x_ld.o(.text)
    FLASH_IRQHandler                         0x080001a3   Thumb Code     0  startup_stm32f10x_ld.o(.text)
    I2C1_ER_IRQHandler                       0x080001a3   Thumb Code     0  startup_stm32f10x_ld.o(.text)
    I2C1_EV_IRQHandler                       0x080001a3   Thumb Code     0  startup_stm32f10x_ld.o(.text)
    PVD_IRQHandler                           0x080001a3   Thumb Code     0  startup_stm32f10x_ld.o(.text)
    RCC_IRQHandler                           0x080001a3   Thumb Code     0  startup_stm32f10x_ld.o(.text)
    RTCAlarm_IRQHandler                      0x080001a3   Thumb Code     0  startup_stm32f10x_ld.o(.text)
    RTC_IRQHandler                           0x080001a3   Thumb Code     0  startup_stm32f10x_ld.o(.text)
    SPI1_IRQHandler                          0x080001a3   Thumb Code     0  startup_stm32f10x_ld.o(.text)
    TAMPER_IRQHandler                        0x080001a3   Thumb Code     0  startup_stm32f10x_ld.o(.text)
    TIM1_BRK_IRQHandler                      0x080001a3   Thumb Code     0  startup_stm32f10x_ld.o(.text)
    TIM1_CC_IRQHandler                       0x080001a3   Thumb Code     0  startup_stm32f10x_ld.o(.text)
    TIM1_TRG_COM_IRQHandler                  0x080001a3   Thumb Code     0  startup_stm32f10x_ld.o(.text)
    TIM1_UP_IRQHandler                       0x080001a3   Thumb Code     0  startup_stm32f10x_ld.o(.text)
    TIM2_IRQHandler                          0x080001a3   Thumb Code     0  startup_stm32f10x_ld.o(.text)
    TIM3_IRQHandler                          0x080001a3   Thumb Code     0  startup_stm32f10x_ld.o(.text)
    USBWakeUp_IRQHandler                     0x080001a3   Thumb Code     0  startup_stm32f10x_ld.o(.text)
    USB_HP_CAN1_TX_IRQHandler                0x080001a3   Thumb Code     0  startup_stm32f10x_ld.o(.text)
    WWDG_IRQHandler                          0x080001a3   Thumb Code     0  startup_stm32f10x_ld.o(.text)
    __user_initial_stackheap                 0x080001a5   Thumb Code     0  startup_stm32f10x_ld.o(.text)
    __aeabi_memcpy                           0x080001c9   Thumb Code     0  rt_memcpy_v6.o(.text)
    __rt_memcpy                              0x080001c9   Thumb Code   138  rt_memcpy_v6.o(.text)
    _memcpy_lastbytes                        0x0800022f   Thumb Code     0  rt_memcpy_v6.o(.text)
    __aeabi_memclr4                          0x08000253   Thumb Code     0  rt_memclr_w.o(.text)
    __aeabi_memclr8                          0x08000253   Thumb Code     0  rt_memclr_w.o(.text)
    __rt_memclr_w                            0x08000253   Thumb Code    78  rt_memclr_w.o(.text)
    _memset_w                                0x08000257   Thumb Code     0  rt_memclr_w.o(.text)
    __use_two_region_memory                  0x080002a1   Thumb Code     2  heapauxi.o(.text)
    __rt_heap_escrow$2region                 0x080002a3   Thumb Code     2  heapauxi.o(.text)
    __rt_heap_expand$2region                 0x080002a5   Thumb Code     2  heapauxi.o(.text)
    __aeabi_memcpy4                          0x080002a7   Thumb Code     0  rt_memcpy_w.o(.text)
    __aeabi_memcpy8                          0x080002a7   Thumb Code     0  rt_memcpy_w.o(.text)
    __rt_memcpy_w                            0x080002a7   Thumb Code   100  rt_memcpy_w.o(.text)
    _memcpy_lastbytes_aligned                0x080002ef   Thumb Code     0  rt_memcpy_w.o(.text)
    __user_setup_stackheap                   0x0800030b   Thumb Code    74  sys_stackheap_outer.o(.text)
    exit                                     0x08000355   Thumb Code    18  exit.o(.text)
    __user_libspace                          0x08000369   Thumb Code     8  libspace.o(.text)
    __user_perproc_libspace                  0x08000369   Thumb Code     0  libspace.o(.text)
    __user_perthread_libspace                0x08000369   Thumb Code     0  libspace.o(.text)
    _sys_exit                                0x08000371   Thumb Code     8  sys_exit.o(.text)
    __I$use$semihosting                      0x0800037d   Thumb Code     0  use_no_semi.o(.text)
    __use_no_semihosting_swi                 0x0800037d   Thumb Code     2  use_no_semi.o(.text)
    __semihosting_library_function           0x0800037f   Thumb Code     0  indicate_semi.o(.text)
    BoardInit                                0x08000381   Thumb Code    68  main.o(i.BoardInit)
    CDC_ACM_UART_to_USB                      0x080003e5   Thumb Code   110  usbd_user_cdc_acm.o(i.CDC_ACM_UART_to_USB)
    DAP_ProcessCommand                       0x0800065f   Thumb Code   316  dap.o(i.DAP_ProcessCommand)
    DAP_ProcessVendorCommand                 0x0800079b   Thumb Code    12  dap.o(i.DAP_ProcessVendorCommand)
    DAP_Setup                                0x08000fb9   Thumb Code    48  dap.o(i.DAP_Setup)
    DMA1_Channel1_Event                      0x080010cd   Thumb Code     2  dma_stm32f10x.o(i.DMA1_Channel1_Event)
    DMA1_Channel1_IRQHandler                 0x080010d1   Thumb Code    22  dma_stm32f10x.o(i.DMA1_Channel1_IRQHandler)
    DMA1_Channel2_Event                      0x080010ed   Thumb Code     2  dma_stm32f10x.o(i.DMA1_Channel2_Event)
    DMA1_Channel2_IRQHandler                 0x080010f1   Thumb Code    24  dma_stm32f10x.o(i.DMA1_Channel2_IRQHandler)
    DMA1_Channel3_Event                      0x0800110d   Thumb Code     2  dma_stm32f10x.o(i.DMA1_Channel3_Event)
    DMA1_Channel3_IRQHandler                 0x08001111   Thumb Code    24  dma_stm32f10x.o(i.DMA1_Channel3_IRQHandler)
    DMA1_Channel4_Event                      0x0800112d   Thumb Code    12  usart_stm32f10x.o(i.DMA1_Channel4_Event)
    DMA1_Channel4_IRQHandler                 0x0800113d   Thumb Code    24  dma_stm32f10x.o(i.DMA1_Channel4_IRQHandler)
    DMA1_Channel5_Event                      0x08001159   Thumb Code    12  usart_stm32f10x.o(i.DMA1_Channel5_Event)
    DMA1_Channel5_IRQHandler                 0x08001169   Thumb Code    24  dma_stm32f10x.o(i.DMA1_Channel5_IRQHandler)
    DMA1_Channel6_Event                      0x08001185   Thumb Code    12  usart_stm32f10x.o(i.DMA1_Channel6_Event)
    DMA1_Channel6_IRQHandler                 0x08001195   Thumb Code    24  dma_stm32f10x.o(i.DMA1_Channel6_IRQHandler)
    DMA1_Channel7_Event                      0x080011b1   Thumb Code    12  usart_stm32f10x.o(i.DMA1_Channel7_Event)
    DMA1_Channel7_IRQHandler                 0x080011c1   Thumb Code    24  dma_stm32f10x.o(i.DMA1_Channel7_IRQHandler)
    DMA_ChannelInitialize                    0x080011dd   Thumb Code   242  dma_stm32f10x.o(i.DMA_ChannelInitialize)
    DMA_ChannelUninitialize                  0x080012dd   Thumb Code   174  dma_stm32f10x.o(i.DMA_ChannelUninitialize)
    Delayms                                  0x08001399   Thumb Code    22  dap.o(i.Delayms)
    EP_Reset                                 0x080013b1   Thumb Code    58  usbd_stm32f103.o(i.EP_Reset)
    EP_Status                                0x080013f1   Thumb Code    70  usbd_stm32f103.o(i.EP_Status)
    FLASH_ErasePage                          0x0800143d   Thumb Code    72  stm32f10x_flash.o(i.FLASH_ErasePage)
    FLASH_GetBank1Status                     0x08001489   Thumb Code    48  stm32f10x_flash.o(i.FLASH_GetBank1Status)
    FLASH_Lock                               0x080014bd   Thumb Code    14  stm32f10x_flash.o(i.FLASH_Lock)
    FLASH_ProgramHalfWord                    0x080014d1   Thumb Code    60  stm32f10x_flash.o(i.FLASH_ProgramHalfWord)
    FLASH_Unlock                             0x08001511   Thumb Code    12  stm32f10x_flash.o(i.FLASH_Unlock)
    FLASH_WaitForLastOperation               0x08001529   Thumb Code    38  stm32f10x_flash.o(i.FLASH_WaitForLastOperation)
    GPIO_AFConfigure                         0x08001551   Thumb Code   146  gpio_stm32f10x.o(i.GPIO_AFConfigure)
    GPIO_GetPortClockState                   0x080015ed   Thumb Code   118  gpio_stm32f10x.o(i.GPIO_GetPortClockState)
    GPIO_Init                                0x08001685   Thumb Code   278  stm32f10x_gpio.o(i.GPIO_Init)
    GPIO_PinConfigure                        0x0800179b   Thumb Code   120  gpio_stm32f10x.o(i.GPIO_PinConfigure)
    GPIO_PortClock                           0x08001815   Thumb Code   284  gpio_stm32f10x.o(i.GPIO_PortClock)
    HID_ProcessCommand                       0x08001951   Thumb Code   376  usbd_user_hid.o(i.HID_ProcessCommand)
    BusFault_Handler                         0x08001ae9   Thumb Code     0  main.o(i.HardFault_Handler)
    DebugMon_Handler                         0x08001ae9   Thumb Code     0  main.o(i.HardFault_Handler)
    HardFault_Handler                        0x08001ae9   Thumb Code    98  main.o(i.HardFault_Handler)
    MemManage_Handler                        0x08001ae9   Thumb Code     0  main.o(i.HardFault_Handler)
    NMI_Handler                              0x08001ae9   Thumb Code     0  main.o(i.HardFault_Handler)
    PendSV_Handler                           0x08001ae9   Thumb Code     0  main.o(i.HardFault_Handler)
    SVC_Handler                              0x08001ae9   Thumb Code     0  main.o(i.HardFault_Handler)
    UsageFault_Handler                       0x08001ae9   Thumb Code     0  main.o(i.HardFault_Handler)
    LEDS_SETUP                               0x08001b59   Thumb Code    66  main.o(i.LEDS_SETUP)
    LedConnectedOff                          0x08001bad   Thumb Code    10  main.o(i.LedConnectedOff)
    LedConnectedOn                           0x08001bbd   Thumb Code    10  main.o(i.LedConnectedOn)
    LedConnectedOut                          0x08001bcd   Thumb Code    38  main.o(i.LedConnectedOut)
    LedRunningOff                            0x08001bf9   Thumb Code    10  main.o(i.LedRunningOff)
    LedRunningOn                             0x08001c09   Thumb Code    10  main.o(i.LedRunningOn)
    LedRunningOut                            0x08001c19   Thumb Code    70  main.o(i.LedRunningOut)
    PORT_OFF                                 0x08001dc5   Thumb Code    24  main.o(i.PORT_OFF)
    PORT_SWD_SETUP                           0x08001de9   Thumb Code    52  main.o(i.PORT_SWD_SETUP)
    PORT_USB_CONNECT_SETUP                   0x08001e29   Thumb Code     2  main.o(i.PORT_USB_CONNECT_SETUP)
    RST_Transfer                             0x08001e2d   Thumb Code   816  main.o(i.RST_Transfer)
    SWD_Sequence                             0x08002165   Thumb Code   184  sw_dp.o(i.SWD_Sequence)
    SWD_Transfer                             0x08002221   Thumb Code    32  sw_dp.o(i.SWD_Transfer)
    SWJ_Sequence                             0x08002b05   Thumb Code   114  sw_dp.o(i.SWJ_Sequence)
    SysTick_CLKSourceConfig                  0x08002c69   Thumb Code    40  misc.o(i.SysTick_CLKSourceConfig)
    SysTick_Handler                          0x08002c91   Thumb Code   108  main.o(i.SysTick_Handler)
    SysTick_Init                             0x08002d05   Thumb Code    96  main.o(i.SysTick_Init)
    SystemCoreClockUpdate                    0x08002d71   Thumb Code   142  system_stm32f10x.o(i.SystemCoreClockUpdate)
    SystemInit                               0x08002e15   Thumb Code    78  system_stm32f10x.o(i.SystemInit)
    USART1_IRQHandler                        0x08002f41   Thumb Code    10  usart_stm32f10x.o(i.USART1_IRQHandler)
    USART2_IRQHandler                        0x08003051   Thumb Code    10  usart_stm32f10x.o(i.USART2_IRQHandler)
    USART_Cmd                                0x080030f9   Thumb Code    24  stm32f10x_usart.o(i.USART_Cmd)
    USART_IRQHandler                         0x08003a37   Thumb Code   624  usart_stm32f10x.o(i.USART_IRQHandler)
    USART_RX_DMA_Complete                    0x08003f75   Thumb Code   130  usart_stm32f10x.o(i.USART_RX_DMA_Complete)
    USART_TX_DMA_Complete                    0x080042ab   Thumb Code    74  usart_stm32f10x.o(i.USART_TX_DMA_Complete)
    USBD_CDC_ACM_ClearCommFeature            0x080043dd   Thumb Code     4  usbd_cdc_acm.o(i.USBD_CDC_ACM_ClearCommFeature)
    USBD_CDC_ACM_DataRead                    0x080043e1   Thumb Code    46  usbd_cdc_acm.o(i.USBD_CDC_ACM_DataRead)
    USBD_CDC_ACM_DataReceived                0x08004415   Thumb Code    46  usbd_user_cdc_acm.o(i.USBD_CDC_ACM_DataReceived)
    USBD_CDC_ACM_DataSend                    0x0800444d   Thumb Code   108  usbd_cdc_acm.o(i.USBD_CDC_ACM_DataSend)
    USBD_CDC_ACM_EP_BULKIN_Event             0x080044c5   Thumb Code    24  usbd_cdc_acm.o(i.USBD_CDC_ACM_EP_BULKIN_Event)
    USBD_CDC_ACM_EP_BULKOUT_Event            0x08004589   Thumb Code    48  usbd_cdc_acm.o(i.USBD_CDC_ACM_EP_BULKOUT_Event)
    USBD_CDC_ACM_EP_BULK_Event               0x08004625   Thumb Code    30  usbd_cdc_acm.o(i.USBD_CDC_ACM_EP_BULK_Event)
    USBD_CDC_ACM_EP_INTIN_Event              0x08004643   Thumb Code     2  usbd_cdc_acm.o(i.USBD_CDC_ACM_EP_INTIN_Event)
    USBD_CDC_ACM_GetCommFeature              0x08004645   Thumb Code     4  usbd_cdc_acm.o(i.USBD_CDC_ACM_GetCommFeature)
    USBD_CDC_ACM_GetEncapsulatedResponse     0x08004649   Thumb Code     4  usbd_cdc_acm.o(i.USBD_CDC_ACM_GetEncapsulatedResponse)
    USBD_CDC_ACM_GetLineCoding               0x0800464d   Thumb Code    48  usbd_cdc_acm.o(i.USBD_CDC_ACM_GetLineCoding)
    USBD_CDC_ACM_Initialize                  0x08004685   Thumb Code     8  usbd_cdc_acm.o(i.USBD_CDC_ACM_Initialize)
    USBD_CDC_ACM_PortGetLineCoding           0x0800468d   Thumb Code    20  usbd_user_cdc_acm.o(i.USBD_CDC_ACM_PortGetLineCoding)
    USBD_CDC_ACM_PortInitialize              0x080046a5   Thumb Code    22  usbd_user_cdc_acm.o(i.USBD_CDC_ACM_PortInitialize)
    USBD_CDC_ACM_PortReset                   0x080046c5   Thumb Code    26  usbd_user_cdc_acm.o(i.USBD_CDC_ACM_PortReset)
    USBD_CDC_ACM_PortSetControlLineState     0x080046e5   Thumb Code     6  usbd_user_cdc_acm.o(i.USBD_CDC_ACM_PortSetControlLineState)
    USBD_CDC_ACM_PortSetLineCoding           0x080046ed   Thumb Code   258  usbd_user_cdc_acm.o(i.USBD_CDC_ACM_PortSetLineCoding)
    USBD_CDC_ACM_Reset                       0x08004805   Thumb Code    66  usbd_cdc_acm.o(i.USBD_CDC_ACM_Reset)
    USBD_CDC_ACM_Reset_Event                 0x08004855   Thumb Code     8  usbd_cdc_acm.o(i.USBD_CDC_ACM_Reset_Event)
    USBD_CDC_ACM_SOF_Event                   0x0800485d   Thumb Code    96  usbd_cdc_acm.o(i.USBD_CDC_ACM_SOF_Event)
    USBD_CDC_ACM_SendBreak                   0x080048c5   Thumb Code     4  usbd_cdc_acm.o(i.USBD_CDC_ACM_SendBreak)
    USBD_CDC_ACM_SendEncapsulatedCommand     0x080048c9   Thumb Code     4  usbd_cdc_acm.o(i.USBD_CDC_ACM_SendEncapsulatedCommand)
    USBD_CDC_ACM_SetCommFeature              0x080048cd   Thumb Code     4  usbd_cdc_acm.o(i.USBD_CDC_ACM_SetCommFeature)
    USBD_CDC_ACM_SetControlLineState         0x080048d1   Thumb Code    12  usbd_cdc_acm.o(i.USBD_CDC_ACM_SetControlLineState)
    USBD_CDC_ACM_SetLineCoding               0x080048e1   Thumb Code    36  usbd_cdc_acm.o(i.USBD_CDC_ACM_SetLineCoding)
    USBD_ClrStallEP                          0x0800490d   Thumb Code    22  usbd_stm32f103.o(i.USBD_ClrStallEP)
    USBD_ConfigEP                            0x08004925   Thumb Code   186  usbd_stm32f103.o(i.USBD_ConfigEP)
    USBD_Configure                           0x080049ed   Thumb Code    18  usbd_stm32f103.o(i.USBD_Configure)
    USBD_Configure_Event                     0x08004a05   Thumb Code     4  usb_config.o(i.USBD_Configure_Event)
    USBD_Connect                             0x08004a09   Thumb Code    34  usbd_stm32f103.o(i.USBD_Connect)
    USBD_DataInStage                         0x08004a31   Thumb Code    48  usbd_core.o(i.USBD_DataInStage)
    USBD_DataOutStage                        0x08004a69   Thumb Code    26  usbd_core.o(i.USBD_DataOutStage)
    USBD_DirCtrlEP                           0x08004a89   Thumb Code     2  usbd_stm32f103.o(i.USBD_DirCtrlEP)
    USBD_DisableEP                           0x08004a8b   Thumb Code    14  usbd_stm32f103.o(i.USBD_DisableEP)
    USBD_EnableEP                            0x08004a99   Thumb Code    16  usbd_stm32f103.o(i.USBD_EnableEP)
    USBD_EndPoint0                           0x08004aa9   Thumb Code   588  usbd_core.o(i.USBD_EndPoint0)
    USBD_EndPoint0_Out_ADC_ReqToEP           0x08004d0d   Thumb Code     4  usb_config.o(i.USBD_EndPoint0_Out_ADC_ReqToEP)
    USBD_EndPoint0_Out_ADC_ReqToIF           0x08004d11   Thumb Code     4  usb_config.o(i.USBD_EndPoint0_Out_ADC_ReqToIF)
    USBD_EndPoint0_Out_CDC_ReqToIF           0x08004d15   Thumb Code    68  usbd_core_cdc.o(i.USBD_EndPoint0_Out_CDC_ReqToIF)
    USBD_EndPoint0_Out_CLS_ReqToDEV          0x08004d65   Thumb Code     4  usb_config.o(i.USBD_EndPoint0_Out_CLS_ReqToDEV)
    USBD_EndPoint0_Out_CLS_ReqToEP           0x08004d69   Thumb Code     4  usb_config.o(i.USBD_EndPoint0_Out_CLS_ReqToEP)
    USBD_EndPoint0_Out_CLS_ReqToIF           0x08004d6d   Thumb Code     4  usb_config.o(i.USBD_EndPoint0_Out_CLS_ReqToIF)
    USBD_EndPoint0_Out_HID_ReqToIF           0x08004d71   Thumb Code    38  usbd_core_hid.o(i.USBD_EndPoint0_Out_HID_ReqToIF)
    USBD_EndPoint0_Setup_ADC_ReqToEP         0x08004da1   Thumb Code     4  usb_config.o(i.USBD_EndPoint0_Setup_ADC_ReqToEP)
    USBD_EndPoint0_Setup_ADC_ReqToIF         0x08004da5   Thumb Code     4  usb_config.o(i.USBD_EndPoint0_Setup_ADC_ReqToIF)
    USBD_EndPoint0_Setup_CDC_ReqToIF         0x08004da9   Thumb Code   140  usbd_core_cdc.o(i.USBD_EndPoint0_Setup_CDC_ReqToIF)
    USBD_EndPoint0_Setup_CLS_ReqToDEV        0x08004e49   Thumb Code     4  usb_config.o(i.USBD_EndPoint0_Setup_CLS_ReqToDEV)
    USBD_EndPoint0_Setup_CLS_ReqToEP         0x08004e4d   Thumb Code     4  usb_config.o(i.USBD_EndPoint0_Setup_CLS_ReqToEP)
    USBD_EndPoint0_Setup_CLS_ReqToIF         0x08004e51   Thumb Code     4  usb_config.o(i.USBD_EndPoint0_Setup_CLS_ReqToIF)
    USBD_EndPoint0_Setup_HID_ReqToIF         0x08004e55   Thumb Code   144  usbd_core_hid.o(i.USBD_EndPoint0_Setup_HID_ReqToIF)
    USBD_EndPoint0_Setup_MSC_ReqToIF         0x08004f01   Thumb Code     4  usb_config.o(i.USBD_EndPoint0_Setup_MSC_ReqToIF)
    USBD_HID_Configure_Event                 0x08004f05   Thumb Code    34  usbd_hid.o(i.USBD_HID_Configure_Event)
    USBD_HID_EP_INTIN_Event                  0x08004f2d   Thumb Code   326  usbd_hid.o(i.USBD_HID_EP_INTIN_Event)
    USBD_HID_EP_INTOUT_Event                 0x08005091   Thumb Code   102  usbd_hid.o(i.USBD_HID_EP_INTOUT_Event)
    USBD_HID_EP_INT_Event                    0x08005115   Thumb Code    30  usbd_hid.o(i.USBD_HID_EP_INT_Event)
    USBD_HID_GetIdle                         0x08005135   Thumb Code    16  usbd_hid.o(i.USBD_HID_GetIdle)
    USBD_HID_GetProtocol                     0x08005151   Thumb Code    14  usbd_hid.o(i.USBD_HID_GetProtocol)
    USBD_HID_GetReport                       0x08005165   Thumb Code    46  usbd_hid.o(i.USBD_HID_GetReport)
    USBD_HID_SOF_Event                       0x080051a1   Thumb Code   288  usbd_hid.o(i.USBD_HID_SOF_Event)
    USBD_HID_SetIdle                         0x080052e9   Thumb Code    42  usbd_hid.o(i.USBD_HID_SetIdle)
    USBD_HID_SetProtocol                     0x08005325   Thumb Code    14  usbd_hid.o(i.USBD_HID_SetProtocol)
    USBD_HID_SetReport                       0x08005339   Thumb Code    50  usbd_hid.o(i.USBD_HID_SetReport)
    USBD_Init                                0x08005379   Thumb Code    24  usbd_stm32f103.o(i.USBD_Init)
    USBD_IntrEna                             0x08005395   Thumb Code    38  usbd_stm32f103.o(i.USBD_IntrEna)
    USBD_RTX_TaskInit                        0x080053bb   Thumb Code     2  usb_config.o(i.USBD_RTX_TaskInit)
    USBD_ReadEP                              0x080053bd   Thumb Code    86  usbd_stm32f103.o(i.USBD_ReadEP)
    USBD_ReqClrFeature_MSC                   0x0800541d   Thumb Code     2  usb_config.o(i.USBD_ReqClrFeature_MSC)
    USBD_ReqGetDescriptor                    0x08005421   Thumb Code   260  usbd_core.o(i.USBD_ReqGetDescriptor)
    USBD_ReqGetDescriptor_HID                0x08005551   Thumb Code    90  usbd_core_hid.o(i.USBD_ReqGetDescriptor_HID)
    USBD_ReqGetStatus                        0x080055d5   Thumb Code   116  usbd_core.o(i.USBD_ReqGetStatus)
    USBD_ReqSetClrFeature                    0x08005651   Thumb Code   168  usbd_core.o(i.USBD_ReqSetClrFeature)
    USBD_ReqSetConfiguration                 0x080056fd   Thumb Code   376  usbd_core.o(i.USBD_ReqSetConfiguration)
    USBD_ReqSetInterface                     0x0800588d   Thumb Code   280  usbd_core.o(i.USBD_ReqSetInterface)
    USBD_Reset                               0x080059b9   Thumb Code   160  usbd_stm32f103.o(i.USBD_Reset)
    USBD_ResetEP                             0x08005a6d   Thumb Code    12  usbd_stm32f103.o(i.USBD_ResetEP)
    USBD_Reset_Event                         0x08005a79   Thumb Code     4  usb_config.o(i.USBD_Reset_Event)
    USBD_SOF_Event                           0x08005a7d   Thumb Code    14  usb_config.o(i.USBD_SOF_Event)
    USBD_SetAddress                          0x08005a8d   Thumb Code    16  usbd_stm32f103.o(i.USBD_SetAddress)
    USBD_SetStallEP                          0x08005aa1   Thumb Code    16  usbd_stm32f103.o(i.USBD_SetStallEP)
    USBD_SetupStage                          0x08005ab1   Thumb Code     8  usbd_core.o(i.USBD_SetupStage)
    USBD_StatusInStage                       0x08005abd   Thumb Code    10  usbd_core.o(i.USBD_StatusInStage)
    USBD_StatusOutStage                      0x08005ac9   Thumb Code     8  usbd_core.o(i.USBD_StatusOutStage)
    USBD_Suspend                             0x08005ad5   Thumb Code    24  usbd_stm32f103.o(i.USBD_Suspend)
    USBD_WakeUp                              0x08005af1   Thumb Code    14  usbd_stm32f103.o(i.USBD_WakeUp)
    USBD_WakeUpCfg                           0x08005b05   Thumb Code     2  usbd_stm32f103.o(i.USBD_WakeUpCfg)
    USBD_WriteEP                             0x08005b09   Thumb Code   104  usbd_stm32f103.o(i.USBD_WriteEP)
    USB_LP_CAN1_RX0_IRQHandler               0x08005b7d   Thumb Code   322  usbd_stm32f103.o(i.USB_LP_CAN1_RX0_IRQHandler)
    UserAppAbort                             0x08005ce1   Thumb Code     8  main.o(i.UserAppAbort)
    UserAppInit                              0x08005ced   Thumb Code    14  main.o(i.UserAppInit)
    main                                     0x08005d65   Thumb Code   122  main.o(i.main)
    usbd_class_init                          0x08005ded   Thumb Code    14  usb_config.o(i.usbd_class_init)
    usbd_configured                          0x08005dfd   Thumb Code    12  usbd_core.o(i.usbd_configured)
    usbd_connect                             0x08005e0d   Thumb Code     4  usbd_core.o(i.usbd_connect)
    usbd_hid_get_protocol                    0x08005e11   Thumb Code     4  usbd_hid.o(i.usbd_hid_get_protocol)
    usbd_hid_get_report                      0x08005e15   Thumb Code   140  usbd_user_hid.o(i.usbd_hid_get_report)
    usbd_hid_get_report_trigger              0x08005eb5   Thumb Code   132  usbd_hid.o(i.usbd_hid_get_report_trigger)
    usbd_hid_init                            0x08005f51   Thumb Code    36  usbd_user_hid.o(i.usbd_hid_init)
    usbd_hid_process                         0x08005f91   Thumb Code   150  usbd_user_hid.o(i.usbd_hid_process)
    usbd_hid_set_protocol                    0x0800604d   Thumb Code     2  usbd_hid.o(i.usbd_hid_set_protocol)
    usbd_hid_set_report                      0x08006051   Thumb Code   138  usbd_user_hid.o(i.usbd_hid_set_report)
    usbd_init                                0x080060f1   Thumb Code    24  usbd_core.o(i.usbd_init)
    usbd_os_evt_set                          0x0800610d   Thumb Code     2  usb_config.o(i.usbd_os_evt_set)
    usbd_reset_core                          0x08006111   Thumb Code    26  usbd_core.o(i.usbd_reset_core)
    vResetTarget                             0x08006135   Thumb Code    76  main.o(i.vResetTarget)
    INIT_LED_CONNECTED                       0x08006188   Data           4  main.o(.constdata)
    INIT_LED_RUNNING                         0x0800618c   Data           4  main.o(.constdata)
    CoreDescriptor                           0x08006190   Data           8  main.o(.constdata)
    UserAppDescriptor                        0x08006198   Data          12  main.o(.constdata)
    INIT_SWD_SWCLK_SWDIO                     0x080061a4   Data           4  main.o(.constdata)
    INIT_OFF_TCK_TMS                         0x080061a8   Data           4  main.o(.constdata)
    INIT_PINS_A                              0x080061ac   Data           4  main.o(.constdata)
    INIT_PINS_B                              0x080061b0   Data           4  main.o(.constdata)
    INIT_PINS_C                              0x080061b4   Data           4  main.o(.constdata)
    usbd_power                               0x080061b8   Data           1  usb_config.o(.constdata)
    usbd_hs_enable                           0x080061b9   Data           1  usb_config.o(.constdata)
    usbd_if_num                              0x080061ba   Data           2  usb_config.o(.constdata)
    usbd_ep_num                              0x080061bc   Data           1  usb_config.o(.constdata)
    usbd_max_packet0                         0x080061bd   Data           1  usb_config.o(.constdata)
    usbd_hid_if_num                          0x080061be   Data           1  usb_config.o(.constdata)
    usbd_hid_ep_intin                        0x080061bf   Data           1  usb_config.o(.constdata)
    usbd_hid_ep_intout                       0x080061c0   Data           1  usb_config.o(.constdata)
    usbd_hid_interval                        0x080061c2   Data           4  usb_config.o(.constdata)
    usbd_hid_maxpacketsize                   0x080061c6   Data           4  usb_config.o(.constdata)
    usbd_hid_inreport_num                    0x080061ca   Data           1  usb_config.o(.constdata)
    usbd_hid_outreport_num                   0x080061cb   Data           1  usb_config.o(.constdata)
    usbd_hid_inreport_max_sz                 0x080061cc   Data           2  usb_config.o(.constdata)
    usbd_hid_outreport_max_sz                0x080061ce   Data           2  usb_config.o(.constdata)
    usbd_hid_featreport_max_sz               0x080061d0   Data           2  usb_config.o(.constdata)
    usbd_cdc_acm_cif_num                     0x080061d2   Data           1  usb_config.o(.constdata)
    usbd_cdc_acm_dif_num                     0x080061d3   Data           1  usb_config.o(.constdata)
    usbd_cdc_acm_ep_intin                    0x080061d4   Data           1  usb_config.o(.constdata)
    usbd_cdc_acm_ep_bulkin                   0x080061d5   Data           1  usb_config.o(.constdata)
    usbd_cdc_acm_ep_bulkout                  0x080061d6   Data           1  usb_config.o(.constdata)
    usbd_cdc_acm_sendbuf_sz                  0x080061d8   Data           2  usb_config.o(.constdata)
    usbd_cdc_acm_receivebuf_sz               0x080061da   Data           2  usb_config.o(.constdata)
    usbd_cdc_acm_maxpacketsize               0x080061dc   Data           4  usb_config.o(.constdata)
    usbd_cdc_acm_maxpacketsize1              0x080061e0   Data           4  usb_config.o(.constdata)
    USBD_P_Power_Event                       0x080061e4   Data           4  usb_config.o(.constdata)
    USBD_P_Reset_Event                       0x080061e8   Data           4  usb_config.o(.constdata)
    USBD_P_Suspend_Event                     0x080061ec   Data           4  usb_config.o(.constdata)
    USBD_P_Resume_Event                      0x080061f0   Data           4  usb_config.o(.constdata)
    USBD_P_WakeUp_Event                      0x080061f4   Data           4  usb_config.o(.constdata)
    USBD_P_SOF_Event                         0x080061f8   Data           4  usb_config.o(.constdata)
    USBD_P_Error_Event                       0x080061fc   Data           4  usb_config.o(.constdata)
    USBD_P_EP                                0x08006200   Data          64  usb_config.o(.constdata)
    USBD_P_Configure_Event                   0x08006240   Data           4  usb_config.o(.constdata)
    USBD_P_Interface_Event                   0x08006244   Data           4  usb_config.o(.constdata)
    USBD_P_Feature_Event                     0x08006248   Data           4  usb_config.o(.constdata)
    __rtx                                    0x0800624c   Data           4  usb_config.o(.constdata)
    USBD_HID_ReportDescriptor                0x08006250   Data          33  usb_config.o(.constdata)
    USBD_HID_ReportDescriptorSize            0x08006272   Data           2  usb_config.o(.constdata)
    USBD_HID_DescriptorOffset                0x08006274   Data           2  usb_config.o(.constdata)
    USBD_DeviceDescriptor                    0x08006276   Data          18  usb_config.o(.constdata)
    USBD_DeviceQualifier                     0x08006288   Data           1  usb_config.o(.constdata)
    USBD_DeviceQualifier_HS                  0x08006289   Data           1  usb_config.o(.constdata)
    USBD_ConfigDescriptor                    0x0800628a   Data         108  usb_config.o(.constdata)
    USBD_ConfigDescriptor_HS                 0x080062f6   Data           1  usb_config.o(.constdata)
    USBD_OtherSpeedConfigDescriptor          0x080062f7   Data           1  usb_config.o(.constdata)
    USBD_OtherSpeedConfigDescriptor_HS       0x080062f8   Data           1  usb_config.o(.constdata)
    USBD_StringDescriptor                    0x080062fa   Data         180  usb_config.o(.constdata)
    Driver_USART1                            0x08006468   Data          56  usart_stm32f10x.o(.constdata)
    Driver_USART2                            0x080064a0   Data          56  usart_stm32f10x.o(.constdata)
    Region$$Table$$Base                      0x080064d8   Number         0  anon$$obj.o(Region$$Table)
    Region$$Table$$Limit                     0x080064f8   Number         0  anon$$obj.o(Region$$Table)
    u8SysTick_Counter                        0x20000000   Data           1  main.o(.data)
    u8LedMode                                0x20000001   Data           1  main.o(.data)
    pCoreDescriptor                          0x20000004   Data           4  main.o(.data)
    pUserAppDescriptor                       0x20000008   Data           4  main.o(.data)
    USBD_AltSetting                          0x2000000c   Data           3  usb_config.o(.data)
    USBD_HID_PollingCnt                      0x20000010   Data           2  usb_config.o(.data)
    USBD_HID_IdleCnt                         0x20000012   Data           1  usb_config.o(.data)
    USBD_HID_IdleReload                      0x20000013   Data           1  usb_config.o(.data)
    USBD_HID_IdleSet                         0x20000014   Data           1  usb_config.o(.data)
    USBD_HID_FeatReport                      0x20000015   Data           2  usb_config.o(.data)
    pBUF_DSCR                                0x20000018   Data           4  usbd_stm32f103.o(.data)
    FreeBufAddr                              0x2000001c   Data           2  usbd_stm32f103.o(.data)
    DAP_TransferAbort                        0x20000048   Data           1  dap.o(.data)
    SystemCoreClock                          0x2000004c   Data           4  system_stm32f10x.o(.data)
    AHBPrescTable                            0x20000050   Data          16  system_stm32f10x.o(.data)
    USBD_DeviceAddress                       0x20000060   Data           1  usbd_core.o(.data)
    USBD_Configuration                       0x20000061   Data           1  usbd_core.o(.data)
    USBD_NumInterfaces                       0x20000062   Data           1  usbd_core.o(.data)
    USBD_HighSpeed                           0x20000063   Data           1  usbd_core.o(.data)
    USBD_ZLP                                 0x20000064   Data           1  usbd_core.o(.data)
    USBD_DeviceStatus                        0x20000066   Data           2  usbd_core.o(.data)
    USBD_EndPointMask                        0x20000068   Data           4  usbd_core.o(.data)
    USBD_EndPointHalt                        0x2000006c   Data           4  usbd_core.o(.data)
    USBD_EndPointNoHaltClr                   0x20000070   Data           4  usbd_core.o(.data)
    USBD_RTX_CoreTask                        0x20000074   Data           4  usbd_core.o(.data)
    USBD_EP0Data                             0x20000078   Data           8  usbd_core.o(.data)
    USBD_SetupPacket                         0x20000080   Data           8  usbd_core.o(.data)
    control_line_state                       0x20000088   Data           2  usbd_cdc_acm.o(.data)
    data_send_access                         0x2000008c   Data           4  usbd_cdc_acm.o(.data)
    data_send_active                         0x20000090   Data           4  usbd_cdc_acm.o(.data)
    data_send_zlp                            0x20000094   Data           4  usbd_cdc_acm.o(.data)
    data_to_send_wr                          0x20000098   Data           4  usbd_cdc_acm.o(.data)
    data_to_send_rd                          0x2000009c   Data           4  usbd_cdc_acm.o(.data)
    ptr_data_to_send                         0x200000a0   Data           4  usbd_cdc_acm.o(.data)
    ptr_data_sent                            0x200000a4   Data           4  usbd_cdc_acm.o(.data)
    data_read_access                         0x200000a8   Data           4  usbd_cdc_acm.o(.data)
    data_receive_int_access                  0x200000ac   Data           4  usbd_cdc_acm.o(.data)
    data_received_pending_pckts              0x200000b0   Data           4  usbd_cdc_acm.o(.data)
    data_no_space_for_receive                0x200000b4   Data           4  usbd_cdc_acm.o(.data)
    ptr_data_received                        0x200000b8   Data           4  usbd_cdc_acm.o(.data)
    ptr_data_read                            0x200000bc   Data           4  usbd_cdc_acm.o(.data)
    line_coding                              0x200000c0   Data           7  usbd_cdc_acm.o(.data)
    USBD_HID_Protocol                        0x200000c9   Data           1  usbd_hid.o(.data)
    DataOutToSendLen                         0x200000ca   Data           2  usbd_hid.o(.data)
    DataOutSentLen                           0x200000cc   Data           2  usbd_hid.o(.data)
    DataInReceLen                            0x200000ce   Data           2  usbd_hid.o(.data)
    DataFeatReceLen                          0x200000d0   Data           2  usbd_hid.o(.data)
    DataOutAsyncReq                          0x200000d4   Data           4  usbd_hid.o(.data)
    DataOutUpdateReqMask                     0x200000d8   Data           4  usbd_hid.o(.data)
    DataOutProcessing                        0x200000dc   Data           4  usbd_hid.o(.data)
    DataOutProcessPending                    0x200000e0   Data           4  usbd_hid.o(.data)
    ptrDataOut                               0x200000e4   Data           4  usbd_hid.o(.data)
    DataOutEndWithShortPacket                0x200000e8   Data           4  usbd_hid.o(.data)
    DataOutInProgress                        0x200000ec   Data           4  usbd_hid.o(.data)
    ptrDataIn                                0x200000f0   Data           4  usbd_hid.o(.data)
    ptrDataFeat                              0x200000f4   Data           4  usbd_hid.o(.data)
    USBD_EP0Buf                              0x200000f8   Data          64  usb_config.o(.bss)
    USBD_HID_InReport                        0x20000138   Data          65  usb_config.o(.bss)
    USBD_HID_OutReport                       0x20000179   Data          65  usb_config.o(.bss)
    USBD_CDC_ACM_SendBuf                     0x200001ba   Data          64  usb_config.o(.bss)
    USBD_CDC_ACM_ReceiveBuf                  0x200001fa   Data          64  usb_config.o(.bss)
    USBD_CDC_ACM_NotifyBuf                   0x2000023a   Data          10  usb_config.o(.bss)
    DAP_Data                                 0x20001a44   Data          28  dap.o(.bss)
    __libspace_start                         0x20001ad0   Data          96  libspace.o(.bss)
    __temporary_stack_top$libspace           0x20001b30   Data           0  libspace.o(.bss)



==============================================================================

Memory Map of the image

  Image Entry point : 0x080000ed

  Load Region LR_IROM1 (Base: 0x08000000, Size: 0x000065f0, Max: 0x00008000, ABSOLUTE)

    Execution Region ER_IROM1 (Exec base: 0x08000000, Load base: 0x08000000, Size: 0x000064f8, Max: 0x00008000, ABSOLUTE)

    Exec Addr    Load Addr    Size         Type   Attr      Idx    E Section Name        Object

    0x08000000   0x08000000   0x000000ec   Data   RO         2459    RESET               startup_stm32f10x_ld.o
    0x080000ec   0x080000ec   0x00000008   Code   RO         2711  * !!!main             c_w.l(__main.o)
    0x080000f4   0x080000f4   0x00000034   Code   RO         2871    !!!scatter          c_w.l(__scatter.o)
    0x08000128   0x08000128   0x0000001a   Code   RO         2873    !!handler_copy      c_w.l(__scatter_copy.o)
    0x08000142   0x08000142   0x00000002   PAD
    0x08000144   0x08000144   0x0000001c   Code   RO         2875    !!handler_zi        c_w.l(__scatter_zi.o)
    0x08000160   0x08000160   0x00000002   Code   RO         2740    .ARM.Collect$$libinit$$00000000  c_w.l(libinit.o)
    0x08000162   0x08000162   0x00000000   Code   RO         2747    .ARM.Collect$$libinit$$00000002  c_w.l(libinit2.o)
    0x08000162   0x08000162   0x00000000   Code   RO         2749    .ARM.Collect$$libinit$$00000004  c_w.l(libinit2.o)
    0x08000162   0x08000162   0x00000000   Code   RO         2752    .ARM.Collect$$libinit$$0000000A  c_w.l(libinit2.o)
    0x08000162   0x08000162   0x00000000   Code   RO         2754    .ARM.Collect$$libinit$$0000000C  c_w.l(libinit2.o)
    0x08000162   0x08000162   0x00000000   Code   RO         2756    .ARM.Collect$$libinit$$0000000E  c_w.l(libinit2.o)
    0x08000162   0x08000162   0x00000000   Code   RO         2759    .ARM.Collect$$libinit$$00000011  c_w.l(libinit2.o)
    0x08000162   0x08000162   0x00000000   Code   RO         2761    .ARM.Collect$$libinit$$00000013  c_w.l(libinit2.o)
    0x08000162   0x08000162   0x00000000   Code   RO         2763    .ARM.Collect$$libinit$$00000015  c_w.l(libinit2.o)
    0x08000162   0x08000162   0x00000000   Code   RO         2765    .ARM.Collect$$libinit$$00000017  c_w.l(libinit2.o)
    0x08000162   0x08000162   0x00000000   Code   RO         2767    .ARM.Collect$$libinit$$00000019  c_w.l(libinit2.o)
    0x08000162   0x08000162   0x00000000   Code   RO         2769    .ARM.Collect$$libinit$$0000001B  c_w.l(libinit2.o)
    0x08000162   0x08000162   0x00000000   Code   RO         2771    .ARM.Collect$$libinit$$0000001D  c_w.l(libinit2.o)
    0x08000162   0x08000162   0x00000000   Code   RO         2773    .ARM.Collect$$libinit$$0000001F  c_w.l(libinit2.o)
    0x08000162   0x08000162   0x00000000   Code   RO         2775    .ARM.Collect$$libinit$$00000021  c_w.l(libinit2.o)
    0x08000162   0x08000162   0x00000000   Code   RO         2777    .ARM.Collect$$libinit$$00000023  c_w.l(libinit2.o)
    0x08000162   0x08000162   0x00000000   Code   RO         2779    .ARM.Collect$$libinit$$00000025  c_w.l(libinit2.o)
    0x08000162   0x08000162   0x00000000   Code   RO         2783    .ARM.Collect$$libinit$$0000002C  c_w.l(libinit2.o)
    0x08000162   0x08000162   0x00000000   Code   RO         2785    .ARM.Collect$$libinit$$0000002E  c_w.l(libinit2.o)
    0x08000162   0x08000162   0x00000000   Code   RO         2787    .ARM.Collect$$libinit$$00000030  c_w.l(libinit2.o)
    0x08000162   0x08000162   0x00000000   Code   RO         2789    .ARM.Collect$$libinit$$00000032  c_w.l(libinit2.o)
    0x08000162   0x08000162   0x00000002   Code   RO         2790    .ARM.Collect$$libinit$$00000033  c_w.l(libinit2.o)
    0x08000164   0x08000164   0x00000002   Code   RO         2810    .ARM.Collect$$libshutdown$$00000000  c_w.l(libshutdown.o)
    0x08000166   0x08000166   0x00000000   Code   RO         2823    .ARM.Collect$$libshutdown$$00000002  c_w.l(libshutdown2.o)
    0x08000166   0x08000166   0x00000000   Code   RO         2825    .ARM.Collect$$libshutdown$$00000004  c_w.l(libshutdown2.o)
    0x08000166   0x08000166   0x00000000   Code   RO         2827    .ARM.Collect$$libshutdown$$00000006  c_w.l(libshutdown2.o)
    0x08000166   0x08000166   0x00000000   Code   RO         2830    .ARM.Collect$$libshutdown$$00000009  c_w.l(libshutdown2.o)
    0x08000166   0x08000166   0x00000000   Code   RO         2833    .ARM.Collect$$libshutdown$$0000000C  c_w.l(libshutdown2.o)
    0x08000166   0x08000166   0x00000000   Code   RO         2835    .ARM.Collect$$libshutdown$$0000000E  c_w.l(libshutdown2.o)
    0x08000166   0x08000166   0x00000000   Code   RO         2838    .ARM.Collect$$libshutdown$$00000011  c_w.l(libshutdown2.o)
    0x08000166   0x08000166   0x00000002   Code   RO         2839    .ARM.Collect$$libshutdown$$00000012  c_w.l(libshutdown2.o)
    0x08000168   0x08000168   0x00000000   Code   RO         2713    .ARM.Collect$$rtentry$$00000000  c_w.l(__rtentry.o)
    0x08000168   0x08000168   0x00000000   Code   RO         2717    .ARM.Collect$$rtentry$$00000002  c_w.l(__rtentry2.o)
    0x08000168   0x08000168   0x00000006   Code   RO         2729    .ARM.Collect$$rtentry$$00000004  c_w.l(__rtentry4.o)
    0x0800016e   0x0800016e   0x00000000   Code   RO         2719    .ARM.Collect$$rtentry$$00000009  c_w.l(__rtentry2.o)
    0x0800016e   0x0800016e   0x00000004   Code   RO         2720    .ARM.Collect$$rtentry$$0000000A  c_w.l(__rtentry2.o)
    0x08000172   0x08000172   0x00000000   Code   RO         2722    .ARM.Collect$$rtentry$$0000000C  c_w.l(__rtentry2.o)
    0x08000172   0x08000172   0x00000008   Code   RO         2723    .ARM.Collect$$rtentry$$0000000D  c_w.l(__rtentry2.o)
    0x0800017a   0x0800017a   0x00000002   Code   RO         2744    .ARM.Collect$$rtexit$$00000000  c_w.l(rtexit.o)
    0x0800017c   0x0800017c   0x00000000   Code   RO         2792    .ARM.Collect$$rtexit$$00000002  c_w.l(rtexit2.o)
    0x0800017c   0x0800017c   0x00000004   Code   RO         2793    .ARM.Collect$$rtexit$$00000003  c_w.l(rtexit2.o)
    0x08000180   0x08000180   0x00000006   Code   RO         2794    .ARM.Collect$$rtexit$$00000004  c_w.l(rtexit2.o)
    0x08000186   0x08000186   0x00000002   PAD
    0x08000188   0x08000188   0x00000040   Code   RO         2460    .text               startup_stm32f10x_ld.o
    0x080001c8   0x080001c8   0x0000008a   Code   RO         2705    .text               c_w.l(rt_memcpy_v6.o)
    0x08000252   0x08000252   0x0000004e   Code   RO         2707    .text               c_w.l(rt_memclr_w.o)
    0x080002a0   0x080002a0   0x00000006   Code   RO         2709    .text               c_w.l(heapauxi.o)
    0x080002a6   0x080002a6   0x00000064   Code   RO         2714    .text               c_w.l(rt_memcpy_w.o)
    0x0800030a   0x0800030a   0x0000004a   Code   RO         2731    .text               c_w.l(sys_stackheap_outer.o)
    0x08000354   0x08000354   0x00000012   Code   RO         2733    .text               c_w.l(exit.o)
    0x08000366   0x08000366   0x00000002   PAD
    0x08000368   0x08000368   0x00000008   Code   RO         2741    .text               c_w.l(libspace.o)
    0x08000370   0x08000370   0x0000000c   Code   RO         2802    .text               c_w.l(sys_exit.o)
    0x0800037c   0x0800037c   0x00000002   Code   RO         2813    .text               c_w.l(use_no_semi.o)
    0x0800037e   0x0800037e   0x00000000   Code   RO         2815    .text               c_w.l(indicate_semi.o)
    0x0800037e   0x0800037e   0x00000002   PAD
    0x08000380   0x08000380   0x00000064   Code   RO            4    i.BoardInit         main.o
    0x080003e4   0x080003e4   0x00000080   Code   RO         1514    i.CDC_ACM_UART_to_USB  usbd_user_cdc_acm.o
    0x08000464   0x08000464   0x00000040   Code   RO         1707    i.DAP_Connect       dap.o
    0x080004a4   0x080004a4   0x0000002c   Code   RO         1708    i.DAP_Delay         dap.o
    0x080004d0   0x080004d0   0x00000028   Code   RO         1709    i.DAP_Disconnect    dap.o
    0x080004f8   0x080004f8   0x00000038   Code   RO         1710    i.DAP_Dummy_Transfer  dap.o
    0x08000530   0x08000530   0x0000004c   Code   RO         1712    i.DAP_HostStatus    dap.o
    0x0800057c   0x0800057c   0x0000008c   Code   RO         1713    i.DAP_Info          dap.o
    0x08000608   0x08000608   0x00000010   Code   RO         1714    i.DAP_JTAG_Configure  dap.o
    0x08000618   0x08000618   0x0000000c   Code   RO         1715    i.DAP_JTAG_IDCode   dap.o
    0x08000624   0x08000624   0x0000003a   Code   RO         1716    i.DAP_JTAG_Sequence  dap.o
    0x0800065e   0x0800065e   0x0000013c   Code   RO         1717    i.DAP_ProcessCommand  dap.o
    0x0800079a   0x0800079a   0x0000000c   Code   RO         1718    i.DAP_ProcessVendorCommand  dap.o
    0x080007a6   0x080007a6   0x00000010   Code   RO         1719    i.DAP_ResetTarget   dap.o
    0x080007b6   0x080007b6   0x00000002   PAD
    0x080007b8   0x080007b8   0x00000028   Code   RO         1720    i.DAP_SWD_Configure  dap.o
    0x080007e0   0x080007e0   0x00000098   Code   RO         1721    i.DAP_SWD_Sequence  dap.o
    0x08000878   0x08000878   0x000003a0   Code   RO         1722    i.DAP_SWD_Transfer  dap.o
    0x08000c18   0x08000c18   0x00000178   Code   RO         1723    i.DAP_SWD_TransferBlock  dap.o
    0x08000d90   0x08000d90   0x0000002c   Code   RO         1724    i.DAP_SWD_WriteAbort  dap.o
    0x08000dbc   0x08000dbc   0x0000007c   Code   RO         1725    i.DAP_SWJ_Clock     dap.o
    0x08000e38   0x08000e38   0x00000158   Code   RO         1726    i.DAP_SWJ_Pins      dap.o
    0x08000f90   0x08000f90   0x00000028   Code   RO         1727    i.DAP_SWJ_Sequence  dap.o
    0x08000fb8   0x08000fb8   0x00000034   Code   RO         1728    i.DAP_Setup         dap.o
    0x08000fec   0x08000fec   0x00000030   Code   RO         1729    i.DAP_Transfer      dap.o
    0x0800101c   0x0800101c   0x00000050   Code   RO         1730    i.DAP_TransferBlock  dap.o
    0x0800106c   0x0800106c   0x00000030   Code   RO         1731    i.DAP_TransferConfigure  dap.o
    0x0800109c   0x0800109c   0x00000030   Code   RO         1732    i.DAP_WriteAbort    dap.o
    0x080010cc   0x080010cc   0x00000002   Code   RO         2274    i.DMA1_Channel1_Event  dma_stm32f10x.o
    0x080010ce   0x080010ce   0x00000002   PAD
    0x080010d0   0x080010d0   0x0000001c   Code   RO         2275    i.DMA1_Channel1_IRQHandler  dma_stm32f10x.o
    0x080010ec   0x080010ec   0x00000002   Code   RO         2276    i.DMA1_Channel2_Event  dma_stm32f10x.o
    0x080010ee   0x080010ee   0x00000002   PAD
    0x080010f0   0x080010f0   0x0000001c   Code   RO         2277    i.DMA1_Channel2_IRQHandler  dma_stm32f10x.o
    0x0800110c   0x0800110c   0x00000002   Code   RO         2278    i.DMA1_Channel3_Event  dma_stm32f10x.o
    0x0800110e   0x0800110e   0x00000002   PAD
    0x08001110   0x08001110   0x0000001c   Code   RO         2279    i.DMA1_Channel3_IRQHandler  dma_stm32f10x.o
    0x0800112c   0x0800112c   0x00000010   Code   RO         1977    i.DMA1_Channel4_Event  usart_stm32f10x.o
    0x0800113c   0x0800113c   0x0000001c   Code   RO         2281    i.DMA1_Channel4_IRQHandler  dma_stm32f10x.o
    0x08001158   0x08001158   0x00000010   Code   RO         1978    i.DMA1_Channel5_Event  usart_stm32f10x.o
    0x08001168   0x08001168   0x0000001c   Code   RO         2283    i.DMA1_Channel5_IRQHandler  dma_stm32f10x.o
    0x08001184   0x08001184   0x00000010   Code   RO         1979    i.DMA1_Channel6_Event  usart_stm32f10x.o
    0x08001194   0x08001194   0x0000001c   Code   RO         2285    i.DMA1_Channel6_IRQHandler  dma_stm32f10x.o
    0x080011b0   0x080011b0   0x00000010   Code   RO         1980    i.DMA1_Channel7_Event  usart_stm32f10x.o
    0x080011c0   0x080011c0   0x0000001c   Code   RO         2287    i.DMA1_Channel7_IRQHandler  dma_stm32f10x.o
    0x080011dc   0x080011dc   0x00000100   Code   RO         2288    i.DMA_ChannelInitialize  dma_stm32f10x.o
    0x080012dc   0x080012dc   0x000000bc   Code   RO         2289    i.DMA_ChannelUninitialize  dma_stm32f10x.o
    0x08001398   0x08001398   0x00000016   Code   RO         1733    i.Delayms           dap.o
    0x080013ae   0x080013ae   0x00000002   PAD
    0x080013b0   0x080013b0   0x00000040   Code   RO         1324    i.EP_Reset          usbd_stm32f103.o
    0x080013f0   0x080013f0   0x0000004c   Code   RO         1325    i.EP_Status         usbd_stm32f103.o
    0x0800143c   0x0800143c   0x0000004c   Code   RO          969    i.FLASH_ErasePage   stm32f10x_flash.o
    0x08001488   0x08001488   0x00000034   Code   RO          970    i.FLASH_GetBank1Status  stm32f10x_flash.o
    0x080014bc   0x080014bc   0x00000014   Code   RO          979    i.FLASH_Lock        stm32f10x_flash.o
    0x080014d0   0x080014d0   0x00000040   Code   RO          982    i.FLASH_ProgramHalfWord  stm32f10x_flash.o
    0x08001510   0x08001510   0x00000018   Code   RO          987    i.FLASH_Unlock      stm32f10x_flash.o
    0x08001528   0x08001528   0x00000026   Code   RO          991    i.FLASH_WaitForLastOperation  stm32f10x_flash.o
    0x0800154e   0x0800154e   0x00000002   PAD
    0x08001550   0x08001550   0x0000009c   Code   RO         2415    i.GPIO_AFConfigure  gpio_stm32f10x.o
    0x080015ec   0x080015ec   0x00000098   Code   RO         2416    i.GPIO_GetPortClockState  gpio_stm32f10x.o
    0x08001684   0x08001684   0x00000116   Code   RO          440    i.GPIO_Init         stm32f10x_gpio.o
    0x0800179a   0x0800179a   0x00000078   Code   RO         2417    i.GPIO_PinConfigure  gpio_stm32f10x.o
    0x08001812   0x08001812   0x00000002   PAD
    0x08001814   0x08001814   0x0000013c   Code   RO         2418    i.GPIO_PortClock    gpio_stm32f10x.o
    0x08001950   0x08001950   0x00000198   Code   RO         1606    i.HID_ProcessCommand  usbd_user_hid.o
    0x08001ae8   0x08001ae8   0x00000070   Code   RO            5    i.HardFault_Handler  main.o
    0x08001b58   0x08001b58   0x00000054   Code   RO            6    i.LEDS_SETUP        main.o
    0x08001bac   0x08001bac   0x00000010   Code   RO            7    i.LedConnectedOff   main.o
    0x08001bbc   0x08001bbc   0x00000010   Code   RO            8    i.LedConnectedOn    main.o
    0x08001bcc   0x08001bcc   0x0000002c   Code   RO            9    i.LedConnectedOut   main.o
    0x08001bf8   0x08001bf8   0x00000010   Code   RO           11    i.LedRunningOff     main.o
    0x08001c08   0x08001c08   0x00000010   Code   RO           12    i.LedRunningOn      main.o
    0x08001c18   0x08001c18   0x0000004c   Code   RO           13    i.LedRunningOut     main.o
    0x08001c64   0x08001c64   0x00000010   Code   RO           15    i.PIN_SWCLK_TCK_CLR  main.o
    0x08001c74   0x08001c74   0x00000010   Code   RO         1892    i.PIN_SWCLK_TCK_CLR  sw_dp.o
    0x08001c84   0x08001c84   0x00000010   Code   RO         1734    i.PIN_SWCLK_TCK_IN  dap.o
    0x08001c94   0x08001c94   0x00000010   Code   RO           16    i.PIN_SWCLK_TCK_SET  main.o
    0x08001ca4   0x08001ca4   0x00000010   Code   RO         1893    i.PIN_SWCLK_TCK_SET  sw_dp.o
    0x08001cb4   0x08001cb4   0x00000018   Code   RO           17    i.PIN_SWDIO_IN      main.o
    0x08001ccc   0x08001ccc   0x00000018   Code   RO         1894    i.PIN_SWDIO_IN      sw_dp.o
    0x08001ce4   0x08001ce4   0x00000020   Code   RO           18    i.PIN_SWDIO_OUT     main.o
    0x08001d04   0x08001d04   0x00000020   Code   RO         1895    i.PIN_SWDIO_OUT     sw_dp.o
    0x08001d24   0x08001d24   0x00000024   Code   RO         1896    i.PIN_SWDIO_OUT_DISABLE  sw_dp.o
    0x08001d48   0x08001d48   0x00000024   Code   RO           19    i.PIN_SWDIO_OUT_ENABLE  main.o
    0x08001d6c   0x08001d6c   0x00000024   Code   RO         1735    i.PIN_SWDIO_OUT_ENABLE  dap.o
    0x08001d90   0x08001d90   0x00000024   Code   RO         1897    i.PIN_SWDIO_OUT_ENABLE  sw_dp.o
    0x08001db4   0x08001db4   0x00000010   Code   RO         1736    i.PIN_SWDIO_TMS_IN  dap.o
    0x08001dc4   0x08001dc4   0x00000024   Code   RO           20    i.PORT_OFF          main.o
    0x08001de8   0x08001de8   0x00000040   Code   RO           21    i.PORT_SWD_SETUP    main.o
    0x08001e28   0x08001e28   0x00000002   Code   RO           22    i.PORT_USB_CONNECT_SETUP  main.o
    0x08001e2a   0x08001e2a   0x00000002   PAD
    0x08001e2c   0x08001e2c   0x00000338   Code   RO           23    i.RST_Transfer      main.o
    0x08002164   0x08002164   0x000000bc   Code   RO         1898    i.SWD_Sequence      sw_dp.o
    0x08002220   0x08002220   0x00000024   Code   RO         1899    i.SWD_Transfer      sw_dp.o
    0x08002244   0x08002244   0x0000034c   Code   RO         1900    i.SWD_TransferFast  sw_dp.o
    0x08002590   0x08002590   0x00000574   Code   RO         1901    i.SWD_TransferSlow  sw_dp.o
    0x08002b04   0x08002b04   0x0000007c   Code   RO         1902    i.SWJ_Sequence      sw_dp.o
    0x08002b80   0x08002b80   0x00000008   Code   RO         2467    i.SetSysClock       system_stm32f10x.o
    0x08002b88   0x08002b88   0x000000e0   Code   RO         2468    i.SetSysClockTo72   system_stm32f10x.o
    0x08002c68   0x08002c68   0x00000028   Code   RO          380    i.SysTick_CLKSourceConfig  misc.o
    0x08002c90   0x08002c90   0x00000074   Code   RO           24    i.SysTick_Handler   main.o
    0x08002d04   0x08002d04   0x0000006c   Code   RO           25    i.SysTick_Init      main.o
    0x08002d70   0x08002d70   0x000000a4   Code   RO         2469    i.SystemCoreClockUpdate  system_stm32f10x.o
    0x08002e14   0x08002e14   0x00000060   Code   RO         2470    i.SystemInit        system_stm32f10x.o
    0x08002e74   0x08002e74   0x00000064   Code   RO         1515    i.UART_Callback     usbd_user_cdc_acm.o
    0x08002ed8   0x08002ed8   0x00000018   Code   RO         1981    i.USART1_Control    usart_stm32f10x.o
    0x08002ef0   0x08002ef0   0x00000010   Code   RO         1982    i.USART1_GetCapabilities  usart_stm32f10x.o
    0x08002f00   0x08002f00   0x00000010   Code   RO         1983    i.USART1_GetModemStatus  usart_stm32f10x.o
    0x08002f10   0x08002f10   0x00000010   Code   RO         1984    i.USART1_GetRxCount  usart_stm32f10x.o
    0x08002f20   0x08002f20   0x00000010   Code   RO         1985    i.USART1_GetStatus  usart_stm32f10x.o
    0x08002f30   0x08002f30   0x00000010   Code   RO         1986    i.USART1_GetTxCount  usart_stm32f10x.o
    0x08002f40   0x08002f40   0x00000010   Code   RO         1987    i.USART1_IRQHandler  usart_stm32f10x.o
    0x08002f50   0x08002f50   0x00000014   Code   RO         1988    i.USART1_Initialize  usart_stm32f10x.o
    0x08002f64   0x08002f64   0x00000014   Code   RO         1989    i.USART1_PowerControl  usart_stm32f10x.o
    0x08002f78   0x08002f78   0x00000018   Code   RO         1990    i.USART1_Receive    usart_stm32f10x.o
    0x08002f90   0x08002f90   0x00000018   Code   RO         1991    i.USART1_Send       usart_stm32f10x.o
    0x08002fa8   0x08002fa8   0x00000014   Code   RO         1992    i.USART1_SetModemControl  usart_stm32f10x.o
    0x08002fbc   0x08002fbc   0x0000001c   Code   RO         1993    i.USART1_Transfer   usart_stm32f10x.o
    0x08002fd8   0x08002fd8   0x00000010   Code   RO         1994    i.USART1_Uninitialize  usart_stm32f10x.o
    0x08002fe8   0x08002fe8   0x00000018   Code   RO         1995    i.USART2_Control    usart_stm32f10x.o
    0x08003000   0x08003000   0x00000010   Code   RO         1996    i.USART2_GetCapabilities  usart_stm32f10x.o
    0x08003010   0x08003010   0x00000010   Code   RO         1997    i.USART2_GetModemStatus  usart_stm32f10x.o
    0x08003020   0x08003020   0x00000010   Code   RO         1998    i.USART2_GetRxCount  usart_stm32f10x.o
    0x08003030   0x08003030   0x00000010   Code   RO         1999    i.USART2_GetStatus  usart_stm32f10x.o
    0x08003040   0x08003040   0x00000010   Code   RO         2000    i.USART2_GetTxCount  usart_stm32f10x.o
    0x08003050   0x08003050   0x00000010   Code   RO         2001    i.USART2_IRQHandler  usart_stm32f10x.o
    0x08003060   0x08003060   0x00000014   Code   RO         2002    i.USART2_Initialize  usart_stm32f10x.o
    0x08003074   0x08003074   0x00000014   Code   RO         2003    i.USART2_PowerControl  usart_stm32f10x.o
    0x08003088   0x08003088   0x00000018   Code   RO         2004    i.USART2_Receive    usart_stm32f10x.o
    0x080030a0   0x080030a0   0x00000018   Code   RO         2005    i.USART2_Send       usart_stm32f10x.o
    0x080030b8   0x080030b8   0x00000014   Code   RO         2006    i.USART2_SetModemControl  usart_stm32f10x.o
    0x080030cc   0x080030cc   0x0000001c   Code   RO         2007    i.USART2_Transfer   usart_stm32f10x.o
    0x080030e8   0x080030e8   0x00000010   Code   RO         2008    i.USART2_Uninitialize  usart_stm32f10x.o
    0x080030f8   0x080030f8   0x00000018   Code   RO          564    i.USART_Cmd         stm32f10x_usart.o
    0x08003110   0x08003110   0x00000820   Code   RO         2009    i.USART_Control     usart_stm32f10x.o
    0x08003930   0x08003930   0x00000006   Code   RO         2010    i.USART_GetCapabilities  usart_stm32f10x.o
    0x08003936   0x08003936   0x00000056   Code   RO         2011    i.USART_GetModemStatus  usart_stm32f10x.o
    0x0800398c   0x0800398c   0x0000001a   Code   RO         2012    i.USART_GetRxCount  usart_stm32f10x.o
    0x080039a6   0x080039a6   0x00000076   Code   RO         2013    i.USART_GetStatus   usart_stm32f10x.o
    0x08003a1c   0x08003a1c   0x0000001a   Code   RO         2014    i.USART_GetTxCount  usart_stm32f10x.o
    0x08003a36   0x08003a36   0x00000270   Code   RO         2015    i.USART_IRQHandler  usart_stm32f10x.o
    0x08003ca6   0x08003ca6   0x000000a2   Code   RO         2016    i.USART_Initialize  usart_stm32f10x.o
    0x08003d48   0x08003d48   0x00000060   Code   RO         2017    i.USART_PeripheralReset  usart_stm32f10x.o
    0x08003da8   0x08003da8   0x000001cc   Code   RO         2018    i.USART_PowerControl  usart_stm32f10x.o
    0x08003f74   0x08003f74   0x00000082   Code   RO         2019    i.USART_RX_DMA_Complete  usart_stm32f10x.o
    0x08003ff6   0x08003ff6   0x00000122   Code   RO         2020    i.USART_Receive     usart_stm32f10x.o
    0x08004118   0x08004118   0x000000f6   Code   RO         2021    i.USART_Send        usart_stm32f10x.o
    0x0800420e   0x0800420e   0x0000009c   Code   RO         2022    i.USART_SetModemControl  usart_stm32f10x.o
    0x080042aa   0x080042aa   0x0000004a   Code   RO         2023    i.USART_TX_DMA_Complete  usart_stm32f10x.o
    0x080042f4   0x080042f4   0x0000006a   Code   RO         2024    i.USART_Transfer    usart_stm32f10x.o
    0x0800435e   0x0800435e   0x0000006c   Code   RO         2025    i.USART_Uninitialize  usart_stm32f10x.o
    0x080043ca   0x080043ca   0x00000002   PAD
    0x080043cc   0x080043cc   0x00000010   Code   RO         2026    i.USARTx_GetVersion  usart_stm32f10x.o
    0x080043dc   0x080043dc   0x00000004   Code   RO         2552    i.USBD_CDC_ACM_ClearCommFeature  USB_CM3.lib(usbd_cdc_acm.o)
    0x080043e0   0x080043e0   0x00000034   Code   RO         2554    i.USBD_CDC_ACM_DataRead  USB_CM3.lib(usbd_cdc_acm.o)
    0x08004414   0x08004414   0x00000038   Code   RO         1516    i.USBD_CDC_ACM_DataReceived  usbd_user_cdc_acm.o
    0x0800444c   0x0800444c   0x00000078   Code   RO         2556    i.USBD_CDC_ACM_DataSend  USB_CM3.lib(usbd_cdc_acm.o)
    0x080044c4   0x080044c4   0x0000001c   Code   RO         2557    i.USBD_CDC_ACM_EP_BULKIN_Event  USB_CM3.lib(usbd_cdc_acm.o)
    0x080044e0   0x080044e0   0x000000a8   Code   RO         2558    i.USBD_CDC_ACM_EP_BULKIN_HandleData  USB_CM3.lib(usbd_cdc_acm.o)
    0x08004588   0x08004588   0x00000034   Code   RO         2559    i.USBD_CDC_ACM_EP_BULKOUT_Event  USB_CM3.lib(usbd_cdc_acm.o)
    0x080045bc   0x080045bc   0x00000068   Code   RO         2560    i.USBD_CDC_ACM_EP_BULKOUT_HandleData  USB_CM3.lib(usbd_cdc_acm.o)
    0x08004624   0x08004624   0x0000001e   Code   RO         2561    i.USBD_CDC_ACM_EP_BULK_Event  USB_CM3.lib(usbd_cdc_acm.o)
    0x08004642   0x08004642   0x00000002   Code   RO         2562    i.USBD_CDC_ACM_EP_INTIN_Event  USB_CM3.lib(usbd_cdc_acm.o)
    0x08004644   0x08004644   0x00000004   Code   RO         2564    i.USBD_CDC_ACM_GetCommFeature  USB_CM3.lib(usbd_cdc_acm.o)
    0x08004648   0x08004648   0x00000004   Code   RO         2565    i.USBD_CDC_ACM_GetEncapsulatedResponse  USB_CM3.lib(usbd_cdc_acm.o)
    0x0800464c   0x0800464c   0x00000038   Code   RO         2566    i.USBD_CDC_ACM_GetLineCoding  USB_CM3.lib(usbd_cdc_acm.o)
    0x08004684   0x08004684   0x00000008   Code   RO         2567    i.USBD_CDC_ACM_Initialize  USB_CM3.lib(usbd_cdc_acm.o)
    0x0800468c   0x0800468c   0x00000018   Code   RO         1517    i.USBD_CDC_ACM_PortGetLineCoding  usbd_user_cdc_acm.o
    0x080046a4   0x080046a4   0x00000020   Code   RO         1518    i.USBD_CDC_ACM_PortInitialize  usbd_user_cdc_acm.o
    0x080046c4   0x080046c4   0x00000020   Code   RO         1519    i.USBD_CDC_ACM_PortReset  usbd_user_cdc_acm.o
    0x080046e4   0x080046e4   0x00000006   Code   RO         1520    i.USBD_CDC_ACM_PortSetControlLineState  usbd_user_cdc_acm.o
    0x080046ea   0x080046ea   0x00000002   PAD
    0x080046ec   0x080046ec   0x00000118   Code   RO         1521    i.USBD_CDC_ACM_PortSetLineCoding  usbd_user_cdc_acm.o
    0x08004804   0x08004804   0x00000050   Code   RO         2576    i.USBD_CDC_ACM_Reset  USB_CM3.lib(usbd_cdc_acm.o)
    0x08004854   0x08004854   0x00000008   Code   RO         2577    i.USBD_CDC_ACM_Reset_Event  USB_CM3.lib(usbd_cdc_acm.o)
    0x0800485c   0x0800485c   0x00000068   Code   RO         2578    i.USBD_CDC_ACM_SOF_Event  USB_CM3.lib(usbd_cdc_acm.o)
    0x080048c4   0x080048c4   0x00000004   Code   RO         2579    i.USBD_CDC_ACM_SendBreak  USB_CM3.lib(usbd_cdc_acm.o)
    0x080048c8   0x080048c8   0x00000004   Code   RO         2580    i.USBD_CDC_ACM_SendEncapsulatedCommand  USB_CM3.lib(usbd_cdc_acm.o)
    0x080048cc   0x080048cc   0x00000004   Code   RO         2581    i.USBD_CDC_ACM_SetCommFeature  USB_CM3.lib(usbd_cdc_acm.o)
    0x080048d0   0x080048d0   0x00000010   Code   RO         2582    i.USBD_CDC_ACM_SetControlLineState  USB_CM3.lib(usbd_cdc_acm.o)
    0x080048e0   0x080048e0   0x0000002c   Code   RO         2583    i.USBD_CDC_ACM_SetLineCoding  USB_CM3.lib(usbd_cdc_acm.o)
    0x0800490c   0x0800490c   0x00000016   Code   RO         1327    i.USBD_ClrStallEP   usbd_stm32f103.o
    0x08004922   0x08004922   0x00000002   PAD
    0x08004924   0x08004924   0x000000c8   Code   RO         1328    i.USBD_ConfigEP     usbd_stm32f103.o
    0x080049ec   0x080049ec   0x00000018   Code   RO         1329    i.USBD_Configure    usbd_stm32f103.o
    0x08004a04   0x08004a04   0x00000004   Code   RO         1147    i.USBD_Configure_Event  usb_config.o
    0x08004a08   0x08004a08   0x00000028   Code   RO         1330    i.USBD_Connect      usbd_stm32f103.o
    0x08004a30   0x08004a30   0x00000038   Code   RO         2511    i.USBD_DataInStage  USB_CM3.lib(usbd_core.o)
    0x08004a68   0x08004a68   0x00000020   Code   RO         2512    i.USBD_DataOutStage  USB_CM3.lib(usbd_core.o)
    0x08004a88   0x08004a88   0x00000002   Code   RO         1331    i.USBD_DirCtrlEP    usbd_stm32f103.o
    0x08004a8a   0x08004a8a   0x0000000e   Code   RO         1332    i.USBD_DisableEP    usbd_stm32f103.o
    0x08004a98   0x08004a98   0x00000010   Code   RO         1333    i.USBD_EnableEP     usbd_stm32f103.o
    0x08004aa8   0x08004aa8   0x00000264   Code   RO         2513    i.USBD_EndPoint0    USB_CM3.lib(usbd_core.o)
    0x08004d0c   0x08004d0c   0x00000004   Code   RO         1148    i.USBD_EndPoint0_Out_ADC_ReqToEP  usb_config.o
    0x08004d10   0x08004d10   0x00000004   Code   RO         1149    i.USBD_EndPoint0_Out_ADC_ReqToIF  usb_config.o
    0x08004d14   0x08004d14   0x00000050   Code   RO         2681    i.USBD_EndPoint0_Out_CDC_ReqToIF  USB_CM3.lib(usbd_core_cdc.o)
    0x08004d64   0x08004d64   0x00000004   Code   RO         1150    i.USBD_EndPoint0_Out_CLS_ReqToDEV  usb_config.o
    0x08004d68   0x08004d68   0x00000004   Code   RO         1151    i.USBD_EndPoint0_Out_CLS_ReqToEP  usb_config.o
    0x08004d6c   0x08004d6c   0x00000004   Code   RO         1152    i.USBD_EndPoint0_Out_CLS_ReqToIF  usb_config.o
    0x08004d70   0x08004d70   0x00000030   Code   RO         2691    i.USBD_EndPoint0_Out_HID_ReqToIF  USB_CM3.lib(usbd_core_hid.o)
    0x08004da0   0x08004da0   0x00000004   Code   RO         1154    i.USBD_EndPoint0_Setup_ADC_ReqToEP  usb_config.o
    0x08004da4   0x08004da4   0x00000004   Code   RO         1155    i.USBD_EndPoint0_Setup_ADC_ReqToIF  usb_config.o
    0x08004da8   0x08004da8   0x000000a0   Code   RO         2682    i.USBD_EndPoint0_Setup_CDC_ReqToIF  USB_CM3.lib(usbd_core_cdc.o)
    0x08004e48   0x08004e48   0x00000004   Code   RO         1156    i.USBD_EndPoint0_Setup_CLS_ReqToDEV  usb_config.o
    0x08004e4c   0x08004e4c   0x00000004   Code   RO         1157    i.USBD_EndPoint0_Setup_CLS_ReqToEP  usb_config.o
    0x08004e50   0x08004e50   0x00000004   Code   RO         1158    i.USBD_EndPoint0_Setup_CLS_ReqToIF  usb_config.o
    0x08004e54   0x08004e54   0x000000ac   Code   RO         2692    i.USBD_EndPoint0_Setup_HID_ReqToIF  USB_CM3.lib(usbd_core_hid.o)
    0x08004f00   0x08004f00   0x00000004   Code   RO         1159    i.USBD_EndPoint0_Setup_MSC_ReqToIF  usb_config.o
    0x08004f04   0x08004f04   0x00000028   Code   RO         2634    i.USBD_HID_Configure_Event  USB_CM3.lib(usbd_hid.o)
    0x08004f2c   0x08004f2c   0x00000164   Code   RO         2635    i.USBD_HID_EP_INTIN_Event  USB_CM3.lib(usbd_hid.o)
    0x08005090   0x08005090   0x00000084   Code   RO         2636    i.USBD_HID_EP_INTOUT_Event  USB_CM3.lib(usbd_hid.o)
    0x08005114   0x08005114   0x0000001e   Code   RO         2637    i.USBD_HID_EP_INT_Event  USB_CM3.lib(usbd_hid.o)
    0x08005132   0x08005132   0x00000002   PAD
    0x08005134   0x08005134   0x0000001c   Code   RO         2638    i.USBD_HID_GetIdle  USB_CM3.lib(usbd_hid.o)
    0x08005150   0x08005150   0x00000014   Code   RO         2639    i.USBD_HID_GetProtocol  USB_CM3.lib(usbd_hid.o)
    0x08005164   0x08005164   0x0000003c   Code   RO         2640    i.USBD_HID_GetReport  USB_CM3.lib(usbd_hid.o)
    0x080051a0   0x080051a0   0x00000148   Code   RO         2641    i.USBD_HID_SOF_Event  USB_CM3.lib(usbd_hid.o)
    0x080052e8   0x080052e8   0x0000003c   Code   RO         2642    i.USBD_HID_SetIdle  USB_CM3.lib(usbd_hid.o)
    0x08005324   0x08005324   0x00000014   Code   RO         2643    i.USBD_HID_SetProtocol  USB_CM3.lib(usbd_hid.o)
    0x08005338   0x08005338   0x00000040   Code   RO         2644    i.USBD_HID_SetReport  USB_CM3.lib(usbd_hid.o)
    0x08005378   0x08005378   0x0000001c   Code   RO         1335    i.USBD_Init         usbd_stm32f103.o
    0x08005394   0x08005394   0x00000026   Code   RO         1336    i.USBD_IntrEna      usbd_stm32f103.o
    0x080053ba   0x080053ba   0x00000002   Code   RO         1160    i.USBD_RTX_TaskInit  usb_config.o
    0x080053bc   0x080053bc   0x00000060   Code   RO         1337    i.USBD_ReadEP       usbd_stm32f103.o
    0x0800541c   0x0800541c   0x00000002   Code   RO         1161    i.USBD_ReqClrFeature_MSC  usb_config.o
    0x0800541e   0x0800541e   0x00000002   PAD
    0x08005420   0x08005420   0x00000130   Code   RO         2538    i.USBD_ReqGetDescriptor  USB_CM3.lib(usbd_core.o)
    0x08005550   0x08005550   0x00000084   Code   RO         2693    i.USBD_ReqGetDescriptor_HID  USB_CM3.lib(usbd_core_hid.o)
    0x080055d4   0x080055d4   0x0000007c   Code   RO         2544    i.USBD_ReqGetStatus  USB_CM3.lib(usbd_core.o)
    0x08005650   0x08005650   0x000000ac   Code   RO         2536    i.USBD_ReqSetClrFeature  USB_CM3.lib(usbd_core.o)
    0x080056fc   0x080056fc   0x00000190   Code   RO         2540    i.USBD_ReqSetConfiguration  USB_CM3.lib(usbd_core.o)
    0x0800588c   0x0800588c   0x0000012c   Code   RO         2542    i.USBD_ReqSetInterface  USB_CM3.lib(usbd_core.o)
    0x080059b8   0x080059b8   0x000000b4   Code   RO         1338    i.USBD_Reset        usbd_stm32f103.o
    0x08005a6c   0x08005a6c   0x0000000c   Code   RO         1339    i.USBD_ResetEP      usbd_stm32f103.o
    0x08005a78   0x08005a78   0x00000004   Code   RO         1162    i.USBD_Reset_Event  usb_config.o
    0x08005a7c   0x08005a7c   0x0000000e   Code   RO         1163    i.USBD_SOF_Event    usb_config.o
    0x08005a8a   0x08005a8a   0x00000002   PAD
    0x08005a8c   0x08005a8c   0x00000014   Code   RO         1341    i.USBD_SetAddress   usbd_stm32f103.o
    0x08005aa0   0x08005aa0   0x00000010   Code   RO         1342    i.USBD_SetStallEP   usbd_stm32f103.o
    0x08005ab0   0x08005ab0   0x0000000c   Code   RO         2515    i.USBD_SetupStage   USB_CM3.lib(usbd_core.o)
    0x08005abc   0x08005abc   0x0000000a   Code   RO         2516    i.USBD_StatusInStage  USB_CM3.lib(usbd_core.o)
    0x08005ac6   0x08005ac6   0x00000002   PAD
    0x08005ac8   0x08005ac8   0x0000000c   Code   RO         2517    i.USBD_StatusOutStage  USB_CM3.lib(usbd_core.o)
    0x08005ad4   0x08005ad4   0x0000001c   Code   RO         1343    i.USBD_Suspend      usbd_stm32f103.o
    0x08005af0   0x08005af0   0x00000014   Code   RO         1344    i.USBD_WakeUp       usbd_stm32f103.o
    0x08005b04   0x08005b04   0x00000002   Code   RO         1345    i.USBD_WakeUpCfg    usbd_stm32f103.o
    0x08005b06   0x08005b06   0x00000002   PAD
    0x08005b08   0x08005b08   0x00000074   Code   RO         1346    i.USBD_WriteEP      usbd_stm32f103.o
    0x08005b7c   0x08005b7c   0x00000164   Code   RO         1347    i.USB_LP_CAN1_RX0_IRQHandler  usbd_stm32f103.o
    0x08005ce0   0x08005ce0   0x0000000c   Code   RO           27    i.UserAppAbort      main.o
    0x08005cec   0x08005cec   0x00000014   Code   RO           28    i.UserAppInit       main.o
    0x08005d00   0x08005d00   0x0000001c   Code   RO         2290    i.__NVIC_ClearPendingIRQ  dma_stm32f10x.o
    0x08005d1c   0x08005d1c   0x00000024   Code   RO         2291    i.__NVIC_DisableIRQ  dma_stm32f10x.o
    0x08005d40   0x08005d40   0x00000022   Code   RO         2292    i.__NVIC_EnableIRQ  dma_stm32f10x.o
    0x08005d62   0x08005d62   0x00000002   PAD
    0x08005d64   0x08005d64   0x00000088   Code   RO           29    i.main              main.o
    0x08005dec   0x08005dec   0x0000000e   Code   RO         1164    i.usbd_class_init   usb_config.o
    0x08005dfa   0x08005dfa   0x00000002   PAD
    0x08005dfc   0x08005dfc   0x00000010   Code   RO         2518    i.usbd_configured   USB_CM3.lib(usbd_core.o)
    0x08005e0c   0x08005e0c   0x00000004   Code   RO         2519    i.usbd_connect      USB_CM3.lib(usbd_core.o)
    0x08005e10   0x08005e10   0x00000004   Code   RO         2648    i.usbd_hid_get_protocol  USB_CM3.lib(usbd_hid.o)
    0x08005e14   0x08005e14   0x000000a0   Code   RO         1607    i.usbd_hid_get_report  usbd_user_hid.o
    0x08005eb4   0x08005eb4   0x0000009c   Code   RO         2650    i.usbd_hid_get_report_trigger  USB_CM3.lib(usbd_hid.o)
    0x08005f50   0x08005f50   0x00000040   Code   RO         1608    i.usbd_hid_init     usbd_user_hid.o
    0x08005f90   0x08005f90   0x000000bc   Code   RO         1609    i.usbd_hid_process  usbd_user_hid.o
    0x0800604c   0x0800604c   0x00000002   Code   RO         2652    i.usbd_hid_set_protocol  USB_CM3.lib(usbd_hid.o)
    0x0800604e   0x0800604e   0x00000002   PAD
    0x08006050   0x08006050   0x000000a0   Code   RO         1610    i.usbd_hid_set_report  usbd_user_hid.o
    0x080060f0   0x080060f0   0x0000001c   Code   RO         2520    i.usbd_init         USB_CM3.lib(usbd_core.o)
    0x0800610c   0x0800610c   0x00000002   Code   RO         1166    i.usbd_os_evt_set   usb_config.o
    0x0800610e   0x0800610e   0x00000002   PAD
    0x08006110   0x08006110   0x00000024   Code   RO         2521    i.usbd_reset_core   USB_CM3.lib(usbd_core.o)
    0x08006134   0x08006134   0x00000054   Code   RO           30    i.vResetTarget      main.o
    0x08006188   0x08006188   0x00000030   Data   RO           31    .constdata          main.o
    0x080061b8   0x080061b8   0x000001f6   Data   RO         1169    .constdata          usb_config.o
    0x080063ae   0x080063ae   0x00000006   Data   RO         1738    .constdata          dap.o
    0x080063b4   0x080063b4   0x00000124   Data   RO         2028    .constdata          usart_stm32f10x.o
    0x080064d8   0x080064d8   0x00000020   Data   RO         2870    Region$$Table       anon$$obj.o


    Execution Region RW_IRAM1 (Exec base: 0x20000000, Load base: 0x080064f8, Size: 0x00002130, Max: 0x00002800, ABSOLUTE)

    Exec Addr    Load Addr    Size         Type   Attr      Idx    E Section Name        Object

    0x20000000   0x080064f8   0x0000000c   Data   RW           32    .data               main.o
    0x2000000c   0x08006504   0x0000000b   Data   RW         1170    .data               usb_config.o
    0x20000017   0x0800650f   0x00000001   PAD
    0x20000018   0x08006510   0x00000006   Data   RW         1348    .data               usbd_stm32f103.o
    0x2000001e   0x08006516   0x00000002   PAD
    0x20000020   0x08006518   0x0000000f   Data   RW         1524    .data               usbd_user_cdc_acm.o
    0x2000002f   0x08006527   0x00000001   PAD
    0x20000030   0x08006528   0x00000018   Data   RW         1612    .data               usbd_user_hid.o
    0x20000048   0x08006540   0x00000001   Data   RW         1739    .data               dap.o
    0x20000049   0x08006541   0x00000001   Data   RW         2293    .data               dma_stm32f10x.o
    0x2000004a   0x08006542   0x00000002   PAD
    0x2000004c   0x08006544   0x00000014   Data   RW         2471    .data               system_stm32f10x.o
    0x20000060   0x08006558   0x00000028   Data   RW         2523    .data               USB_CM3.lib(usbd_core.o)
    0x20000088   0x08006580   0x0000003f   Data   RW         2589    .data               USB_CM3.lib(usbd_cdc_acm.o)
    0x200000c7   0x080065bf   0x00000001   PAD
    0x200000c8   0x080065c0   0x00000030   Data   RW         2654    .data               USB_CM3.lib(usbd_hid.o)
    0x200000f8        -       0x0000014c   Zero   RW         1168    .bss                usb_config.o
    0x20000244        -       0x00000800   Zero   RW         1523    .bss                usbd_user_cdc_acm.o
    0x20000a44        -       0x00001000   Zero   RW         1611    .bss                usbd_user_hid.o
    0x20001a44        -       0x0000001c   Zero   RW         1737    .bss                dap.o
    0x20001a60        -       0x00000070   Zero   RW         2027    .bss                usart_stm32f10x.o
    0x20001ad0        -       0x00000060   Zero   RW         2742    .bss                c_w.l(libspace.o)
    0x20001b30        -       0x00000200   Zero   RW         2458    HEAP                startup_stm32f10x_ld.o
    0x20001d30        -       0x00000400   Zero   RW         2457    STACK               startup_stm32f10x_ld.o


==============================================================================

Image component sizes


      Code (inc. data)   RO Data    RW Data    ZI Data      Debug   Object Name

      3264        180          6          1         28      27905   dap.o
       744         86          0          1          0     234476   dma_stm32f10x.o
       744         76          0          0          0       6253   gpio_stm32f10x.o
      2006        212         48         12          0     296385   main.o
        40          0          0          0          0        558   misc.o
        64         26        236          0       1536        832   startup_stm32f10x_ld.o
       274         30          0          0          0       3642   stm32f10x_flash.o
       278          0          0          0          0       2048   stm32f10x_gpio.o
        24          0          0          0          0       2056   stm32f10x_usart.o
      2748         84          0          0          0      22760   sw_dp.o
       492         50          0         20          0       2989   system_stm32f10x.o
      5418        244        292          0        112      69224   usart_stm32f10x.o
        86          0        502         11        332      34190   usb_config.o
      1370        132          0          6          0      42743   usbd_stm32f103.o
       658         90          0         15       2048      12728   usbd_user_cdc_acm.o
       980        148          0         24       4096      37376   usbd_user_hid.o

    ----------------------------------------------------------------------
     19224       1358       1116         96       8152     796165   Object Totals
         0          0         32          0          0          0   (incl. Generated)
        34          0          0          6          0          0   (incl. Padding)

    ----------------------------------------------------------------------

      Code (inc. data)   RO Data    RW Data    ZI Data      Debug   Library Member Name

       896        118          0         63          0       1576   usbd_cdc_acm.o
      2118        184          0         40          0       1192   usbd_core.o
       240         32          0          0          0        156   usbd_core_cdc.o
       352         92          0          0          0        240   usbd_core_hid.o
      1300        200          0         48          0       1100   usbd_hid.o
         8          0          0          0          0         68   __main.o
         0          0          0          0          0          0   __rtentry.o
        12          0          0          0          0          0   __rtentry2.o
         6          0          0          0          0          0   __rtentry4.o
        52          8          0          0          0          0   __scatter.o
        26          0          0          0          0          0   __scatter_copy.o
        28          0          0          0          0          0   __scatter_zi.o
        18          0          0          0          0         80   exit.o
         6          0          0          0          0        152   heapauxi.o
         0          0          0          0          0          0   indicate_semi.o
         2          0          0          0          0          0   libinit.o
         2          0          0          0          0          0   libinit2.o
         2          0          0          0          0          0   libshutdown.o
         2          0          0          0          0          0   libshutdown2.o
         8          4          0          0         96         68   libspace.o
        78          0          0          0          0         80   rt_memclr_w.o
       138          0          0          0          0         68   rt_memcpy_v6.o
       100          0          0          0          0         80   rt_memcpy_w.o
         2          0          0          0          0          0   rtexit.o
        10          0          0          0          0          0   rtexit2.o
        12          4          0          0          0         68   sys_exit.o
        74          0          0          0          0         80   sys_stackheap_outer.o
         2          0          0          0          0         68   use_no_semi.o

    ----------------------------------------------------------------------
      5508        642          0        152         96       5076   Library Totals
        14          0          0          1          0          0   (incl. Padding)

    ----------------------------------------------------------------------

      Code (inc. data)   RO Data    RW Data    ZI Data      Debug   Library Name

      4906        626          0        151          0       4264   USB_CM3.lib
       588         16          0          0         96        812   c_w.l

    ----------------------------------------------------------------------
      5508        642          0        152         96       5076   Library Totals

    ----------------------------------------------------------------------

==============================================================================


      Code (inc. data)   RO Data    RW Data    ZI Data      Debug   

     24732       2000       1116        248       8248     788237   Grand Totals
     24732       2000       1116        248       8248     788237   ELF Image Totals
     24732       2000       1116        248          0          0   ROM Totals

==============================================================================

    Total RO  Size (Code + RO Data)                25848 (  25.24kB)
    Total RW  Size (RW Data + ZI Data)              8496 (   8.30kB)
    Total ROM Size (Code + RO Data + RW Data)      26096 (  25.48kB)

==============================================================================

